{
	"contracts/staking.sol": {
		"staking": {
			"abi": [
				{
					"anonymous": false,
					"inputs": [
						{
							"indexed": true,
							"internalType": "address",
							"name": "previousOwner",
							"type": "address"
						},
						{
							"indexed": true,
							"internalType": "address",
							"name": "newOwner",
							"type": "address"
						}
					],
					"name": "OwnershipTransferred",
					"type": "event"
				},
				{
					"anonymous": false,
					"inputs": [
						{
							"indexed": false,
							"internalType": "address",
							"name": "_to",
							"type": "address"
						},
						{
							"indexed": false,
							"internalType": "uint256",
							"name": "_amount",
							"type": "uint256"
						}
					],
					"name": "TokensUnstaked",
					"type": "event"
				},
				{
					"anonymous": false,
					"inputs": [
						{
							"indexed": false,
							"internalType": "address",
							"name": "_from",
							"type": "address"
						},
						{
							"indexed": false,
							"internalType": "uint256",
							"name": "_amount",
							"type": "uint256"
						}
					],
					"name": "tokensStaked",
					"type": "event"
				},
				{
					"inputs": [
						{
							"internalType": "address",
							"name": "",
							"type": "address"
						},
						{
							"internalType": "address",
							"name": "",
							"type": "address"
						}
					],
					"name": "StakeMap",
					"outputs": [
						{
							"internalType": "uint256",
							"name": "amount",
							"type": "uint256"
						},
						{
							"internalType": "uint256",
							"name": "alreadyWithdrawn",
							"type": "uint256"
						},
						{
							"internalType": "uint256",
							"name": "releaseDate",
							"type": "uint256"
						}
					],
					"stateMutability": "view",
					"type": "function"
				},
				{
					"inputs": [
						{
							"internalType": "address",
							"name": "_tokenAddr",
							"type": "address"
						}
					],
					"name": "addToken",
					"outputs": [],
					"stateMutability": "nonpayable",
					"type": "function"
				},
				{
					"inputs": [
						{
							"internalType": "address",
							"name": "_tokenAddr",
							"type": "address"
						}
					],
					"name": "getTokenTotalStaked",
					"outputs": [
						{
							"internalType": "uint256",
							"name": "",
							"type": "uint256"
						}
					],
					"stateMutability": "view",
					"type": "function"
				},
				{
					"inputs": [
						{
							"internalType": "address",
							"name": "_tokenAddr",
							"type": "address"
						}
					],
					"name": "getUserInfo",
					"outputs": [
						{
							"components": [
								{
									"internalType": "uint256",
									"name": "amount",
									"type": "uint256"
								},
								{
									"internalType": "uint256",
									"name": "alreadyWithdrawn",
									"type": "uint256"
								},
								{
									"internalType": "uint256",
									"name": "releaseDate",
									"type": "uint256"
								}
							],
							"internalType": "struct staking.stakingInfo",
							"name": "",
							"type": "tuple"
						}
					],
					"stateMutability": "view",
					"type": "function"
				},
				{
					"inputs": [],
					"name": "owner",
					"outputs": [
						{
							"internalType": "address",
							"name": "",
							"type": "address"
						}
					],
					"stateMutability": "view",
					"type": "function"
				},
				{
					"inputs": [
						{
							"internalType": "address",
							"name": "_tokenAddr",
							"type": "address"
						}
					],
					"name": "removeToken",
					"outputs": [],
					"stateMutability": "nonpayable",
					"type": "function"
				},
				{
					"inputs": [],
					"name": "renounceOwnership",
					"outputs": [],
					"stateMutability": "nonpayable",
					"type": "function"
				},
				{
					"inputs": [
						{
							"internalType": "uint256",
							"name": "_amount",
							"type": "uint256"
						},
						{
							"internalType": "address",
							"name": "_tokenAddr",
							"type": "address"
						},
						{
							"internalType": "uint256",
							"name": "_daysCount",
							"type": "uint256"
						}
					],
					"name": "stake",
					"outputs": [
						{
							"internalType": "bool",
							"name": "",
							"type": "bool"
						}
					],
					"stateMutability": "payable",
					"type": "function"
				},
				{
					"inputs": [
						{
							"internalType": "address",
							"name": "",
							"type": "address"
						}
					],
					"name": "tokenTotalStaked",
					"outputs": [
						{
							"internalType": "uint256",
							"name": "",
							"type": "uint256"
						}
					],
					"stateMutability": "view",
					"type": "function"
				},
				{
					"inputs": [
						{
							"internalType": "address",
							"name": "newOwner",
							"type": "address"
						}
					],
					"name": "transferOwnership",
					"outputs": [],
					"stateMutability": "nonpayable",
					"type": "function"
				},
				{
					"inputs": [
						{
							"internalType": "uint256",
							"name": "_amount",
							"type": "uint256"
						},
						{
							"internalType": "address",
							"name": "_tokenAddr",
							"type": "address"
						}
					],
					"name": "unstake",
					"outputs": [
						{
							"internalType": "bool",
							"name": "",
							"type": "bool"
						}
					],
					"stateMutability": "payable",
					"type": "function"
				},
				{
					"inputs": [
						{
							"internalType": "address",
							"name": "",
							"type": "address"
						}
					],
					"name": "validTokens",
					"outputs": [
						{
							"internalType": "bool",
							"name": "",
							"type": "bool"
						}
					],
					"stateMutability": "view",
					"type": "function"
				}
			],
			"devdoc": {
				"kind": "dev",
				"methods": {
					"owner()": {
						"details": "Returns the address of the current owner."
					},
					"renounceOwnership()": {
						"details": "Leaves the contract without owner. It will not be possible to call `onlyOwner` functions anymore. Can only be called by the current owner. NOTE: Renouncing ownership will leave the contract without an owner, thereby removing any functionality that is only available to the owner."
					},
					"transferOwnership(address)": {
						"details": "Transfers ownership of the contract to a new account (`newOwner`). Can only be called by the current owner."
					}
				},
				"version": 1
			},
			"evm": {
				"assembly": "    /* \"contracts/staking.sol\":233:3297  contract staking is Ownable {\r... */\n  mstore(0x40, 0x80)\n  callvalue\n  dup1\n  iszero\n  tag_1\n  jumpi\n  0x00\n  dup1\n  revert\ntag_1:\n  pop\n    /* \"@openzeppelin/contracts/access/Ownable.sol\":921:953  _transferOwnership(_msgSender()) */\n  tag_4\n    /* \"@openzeppelin/contracts/access/Ownable.sol\":940:952  _msgSender() */\n  tag_5\n    /* \"@openzeppelin/contracts/access/Ownable.sol\":940:950  _msgSender */\n  shl(0x20, tag_6)\n    /* \"@openzeppelin/contracts/access/Ownable.sol\":940:952  _msgSender() */\n  0x20\n  shr\n  jump\t// in\ntag_5:\n    /* \"@openzeppelin/contracts/access/Ownable.sol\":921:939  _transferOwnership */\n  shl(0x20, tag_7)\n    /* \"@openzeppelin/contracts/access/Ownable.sol\":921:953  _transferOwnership(_msgSender()) */\n  0x20\n  shr\n  jump\t// in\ntag_4:\n    /* \"contracts/staking.sol\":233:3297  contract staking is Ownable {\r... */\n  jump(tag_8)\n    /* \"@openzeppelin/contracts/utils/Context.sol\":640:736  function _msgSender() internal view virtual returns (address) {... */\ntag_6:\n    /* \"@openzeppelin/contracts/utils/Context.sol\":693:700  address */\n  0x00\n    /* \"@openzeppelin/contracts/utils/Context.sol\":719:729  msg.sender */\n  caller\n    /* \"@openzeppelin/contracts/utils/Context.sol\":712:729  return msg.sender */\n  swap1\n  pop\n    /* \"@openzeppelin/contracts/utils/Context.sol\":640:736  function _msgSender() internal view virtual returns (address) {... */\n  swap1\n  jump\t// out\n    /* \"@openzeppelin/contracts/access/Ownable.sol\":2270:2457  function _transferOwnership(address newOwner) internal virtual {... */\ntag_7:\n    /* \"@openzeppelin/contracts/access/Ownable.sol\":2343:2359  address oldOwner */\n  0x00\n    /* \"@openzeppelin/contracts/access/Ownable.sol\":2362:2368  _owner */\n  dup1\n  0x00\n  swap1\n  sload\n  swap1\n  0x0100\n  exp\n  swap1\n  div\n  0xffffffffffffffffffffffffffffffffffffffff\n  and\n    /* \"@openzeppelin/contracts/access/Ownable.sol\":2343:2368  address oldOwner = _owner */\n  swap1\n  pop\n    /* \"@openzeppelin/contracts/access/Ownable.sol\":2387:2395  newOwner */\n  dup2\n    /* \"@openzeppelin/contracts/access/Ownable.sol\":2378:2384  _owner */\n  0x00\n  dup1\n    /* \"@openzeppelin/contracts/access/Ownable.sol\":2378:2395  _owner = newOwner */\n  0x0100\n  exp\n  dup2\n  sload\n  dup2\n  0xffffffffffffffffffffffffffffffffffffffff\n  mul\n  not\n  and\n  swap1\n  dup4\n  0xffffffffffffffffffffffffffffffffffffffff\n  and\n  mul\n  or\n  swap1\n  sstore\n  pop\n    /* \"@openzeppelin/contracts/access/Ownable.sol\":2441:2449  newOwner */\n  dup2\n    /* \"@openzeppelin/contracts/access/Ownable.sol\":2410:2450  OwnershipTransferred(oldOwner, newOwner) */\n  0xffffffffffffffffffffffffffffffffffffffff\n  and\n    /* \"@openzeppelin/contracts/access/Ownable.sol\":2431:2439  oldOwner */\n  dup2\n    /* \"@openzeppelin/contracts/access/Ownable.sol\":2410:2450  OwnershipTransferred(oldOwner, newOwner) */\n  0xffffffffffffffffffffffffffffffffffffffff\n  and\n  0x8be0079c531659141344cd1fd0a4f28419497f9722a3daafe3b4186f6b6457e0\n  mload(0x40)\n  mload(0x40)\n  dup1\n  swap2\n  sub\n  swap1\n  log3\n    /* \"@openzeppelin/contracts/access/Ownable.sol\":2333:2457  {... */\n  pop\n    /* \"@openzeppelin/contracts/access/Ownable.sol\":2270:2457  function _transferOwnership(address newOwner) internal virtual {... */\n  pop\n  jump\t// out\n    /* \"contracts/staking.sol\":233:3297  contract staking is Ownable {\r... */\ntag_8:\n  dataSize(sub_0)\n  dup1\n  dataOffset(sub_0)\n  0x00\n  codecopy\n  0x00\n  return\nstop\n\nsub_0: assembly {\n        /* \"contracts/staking.sol\":233:3297  contract staking is Ownable {\r... */\n      mstore(0x40, 0x80)\n      jumpi(tag_1, lt(calldatasize, 0x04))\n      shr(0xe0, calldataload(0x00))\n      dup1\n      0x8381e182\n      gt\n      tag_14\n      jumpi\n      dup1\n      0x8381e182\n      eq\n      tag_8\n      jumpi\n      dup1\n      0x8da5cb5b\n      eq\n      tag_9\n      jumpi\n      dup1\n      0xd48bfca7\n      eq\n      tag_10\n      jumpi\n      dup1\n      0xdcb43191\n      eq\n      tag_11\n      jumpi\n      dup1\n      0xe12fb1b9\n      eq\n      tag_12\n      jumpi\n      dup1\n      0xf2fde38b\n      eq\n      tag_13\n      jumpi\n      jump(tag_1)\n    tag_14:\n      dup1\n      0x4302a2f2\n      eq\n      tag_2\n      jumpi\n      dup1\n      0x5fa7b584\n      eq\n      tag_3\n      jumpi\n      dup1\n      0x6386c1c7\n      eq\n      tag_4\n      jumpi\n      dup1\n      0x6e9c931c\n      eq\n      tag_5\n      jumpi\n      dup1\n      0x715018a6\n      eq\n      tag_6\n      jumpi\n      dup1\n      0x83374cab\n      eq\n      tag_7\n      jumpi\n    tag_1:\n      0x00\n      dup1\n      revert\n        /* \"contracts/staking.sol\":645:694  mapping (address => uint) public tokenTotalStaked */\n    tag_2:\n      callvalue\n      dup1\n      iszero\n      tag_15\n      jumpi\n      0x00\n      dup1\n      revert\n    tag_15:\n      pop\n      tag_16\n      0x04\n      dup1\n      calldatasize\n      sub\n      dup2\n      add\n      swap1\n      tag_17\n      swap2\n      swap1\n      tag_18\n      jump\t// in\n    tag_17:\n      tag_19\n      jump\t// in\n    tag_16:\n      mload(0x40)\n      tag_20\n      swap2\n      swap1\n      tag_21\n      jump\t// in\n    tag_20:\n      mload(0x40)\n      dup1\n      swap2\n      sub\n      swap1\n      return\n        /* \"contracts/staking.sol\":1145:1250  function removeToken( address _tokenAddr) onlyOwner external {\r... */\n    tag_3:\n      callvalue\n      dup1\n      iszero\n      tag_22\n      jumpi\n      0x00\n      dup1\n      revert\n    tag_22:\n      pop\n      tag_23\n      0x04\n      dup1\n      calldatasize\n      sub\n      dup2\n      add\n      swap1\n      tag_24\n      swap2\n      swap1\n      tag_18\n      jump\t// in\n    tag_24:\n      tag_25\n      jump\t// in\n    tag_23:\n      stop\n        /* \"contracts/staking.sol\":2937:3096  function getUserInfo(address _tokenAddr) isValidToken(_tokenAddr) external view returns(stakingInfo memory){\r... */\n    tag_4:\n      callvalue\n      dup1\n      iszero\n      tag_26\n      jumpi\n      0x00\n      dup1\n      revert\n    tag_26:\n      pop\n      tag_27\n      0x04\n      dup1\n      calldatasize\n      sub\n      dup2\n      add\n      swap1\n      tag_28\n      swap2\n      swap1\n      tag_18\n      jump\t// in\n    tag_28:\n      tag_29\n      jump\t// in\n    tag_27:\n      mload(0x40)\n      tag_30\n      swap2\n      swap1\n      tag_31\n      jump\t// in\n    tag_30:\n      mload(0x40)\n      dup1\n      swap2\n      sub\n      swap1\n      return\n        /* \"contracts/staking.sol\":1287:2201  function stake(uint _amount, address _tokenAddr, uint _daysCount) isValidToken(_tokenAddr) external payable returns (bool){\r... */\n    tag_5:\n      tag_32\n      0x04\n      dup1\n      calldatasize\n      sub\n      dup2\n      add\n      swap1\n      tag_33\n      swap2\n      swap1\n      tag_34\n      jump\t// in\n    tag_33:\n      tag_35\n      jump\t// in\n    tag_32:\n      mload(0x40)\n      tag_36\n      swap2\n      swap1\n      tag_37\n      jump\t// in\n    tag_36:\n      mload(0x40)\n      dup1\n      swap2\n      sub\n      swap1\n      return\n        /* \"@openzeppelin/contracts/access/Ownable.sol\":1668:1769  function renounceOwnership() public virtual onlyOwner {... */\n    tag_6:\n      callvalue\n      dup1\n      iszero\n      tag_38\n      jumpi\n      0x00\n      dup1\n      revert\n    tag_38:\n      pop\n      tag_39\n      tag_40\n      jump\t// in\n    tag_39:\n      stop\n        /* \"contracts/staking.sol\":3145:3294  function getTokenTotalStaked(address _tokenAddr) isValidToken(_tokenAddr) external view returns(uint){\r... */\n    tag_7:\n      callvalue\n      dup1\n      iszero\n      tag_41\n      jumpi\n      0x00\n      dup1\n      revert\n    tag_41:\n      pop\n      tag_42\n      0x04\n      dup1\n      calldatasize\n      sub\n      dup2\n      add\n      swap1\n      tag_43\n      swap2\n      swap1\n      tag_18\n      jump\t// in\n    tag_43:\n      tag_44\n      jump\t// in\n    tag_42:\n      mload(0x40)\n      tag_45\n      swap2\n      swap1\n      tag_21\n      jump\t// in\n    tag_45:\n      mload(0x40)\n      dup1\n      swap2\n      sub\n      swap1\n      return\n        /* \"contracts/staking.sol\":2240:2890  function unstake(uint _amount, address _tokenAddr) isValidToken(_tokenAddr) external payable returns (bool){\r... */\n    tag_8:\n      tag_46\n      0x04\n      dup1\n      calldatasize\n      sub\n      dup2\n      add\n      swap1\n      tag_47\n      swap2\n      swap1\n      tag_48\n      jump\t// in\n    tag_47:\n      tag_49\n      jump\t// in\n    tag_46:\n      mload(0x40)\n      tag_50\n      swap2\n      swap1\n      tag_37\n      jump\t// in\n    tag_50:\n      mload(0x40)\n      dup1\n      swap2\n      sub\n      swap1\n      return\n        /* \"@openzeppelin/contracts/access/Ownable.sol\":1036:1121  function owner() public view virtual returns (address) {... */\n    tag_9:\n      callvalue\n      dup1\n      iszero\n      tag_51\n      jumpi\n      0x00\n      dup1\n      revert\n    tag_51:\n      pop\n      tag_52\n      tag_53\n      jump\t// in\n    tag_52:\n      mload(0x40)\n      tag_54\n      swap2\n      swap1\n      tag_55\n      jump\t// in\n    tag_54:\n      mload(0x40)\n      dup1\n      swap2\n      sub\n      swap1\n      return\n        /* \"contracts/staking.sol\":995:1096  function addToken( address _tokenAddr) onlyOwner external {\r... */\n    tag_10:\n      callvalue\n      dup1\n      iszero\n      tag_56\n      jumpi\n      0x00\n      dup1\n      revert\n    tag_56:\n      pop\n      tag_57\n      0x04\n      dup1\n      calldatasize\n      sub\n      dup2\n      add\n      swap1\n      tag_58\n      swap2\n      swap1\n      tag_18\n      jump\t// in\n    tag_58:\n      tag_59\n      jump\t// in\n    tag_57:\n      stop\n        /* \"contracts/staking.sol\":536:604  mapping (address => mapping(address => stakingInfo)) public StakeMap */\n    tag_11:\n      callvalue\n      dup1\n      iszero\n      tag_60\n      jumpi\n      0x00\n      dup1\n      revert\n    tag_60:\n      pop\n      tag_61\n      0x04\n      dup1\n      calldatasize\n      sub\n      dup2\n      add\n      swap1\n      tag_62\n      swap2\n      swap1\n      tag_63\n      jump\t// in\n    tag_62:\n      tag_64\n      jump\t// in\n    tag_61:\n      mload(0x40)\n      tag_65\n      swap4\n      swap3\n      swap2\n      swap1\n      tag_66\n      jump\t// in\n    tag_65:\n      mload(0x40)\n      dup1\n      swap2\n      sub\n      swap1\n      return\n        /* \"contracts/staking.sol\":463:507  mapping (address => bool) public validTokens */\n    tag_12:\n      callvalue\n      dup1\n      iszero\n      tag_67\n      jumpi\n      0x00\n      dup1\n      revert\n    tag_67:\n      pop\n      tag_68\n      0x04\n      dup1\n      calldatasize\n      sub\n      dup2\n      add\n      swap1\n      tag_69\n      swap2\n      swap1\n      tag_18\n      jump\t// in\n    tag_69:\n      tag_70\n      jump\t// in\n    tag_68:\n      mload(0x40)\n      tag_71\n      swap2\n      swap1\n      tag_37\n      jump\t// in\n    tag_71:\n      mload(0x40)\n      dup1\n      swap2\n      sub\n      swap1\n      return\n        /* \"@openzeppelin/contracts/access/Ownable.sol\":1918:2116  function transferOwnership(address newOwner) public virtual onlyOwner {... */\n    tag_13:\n      callvalue\n      dup1\n      iszero\n      tag_72\n      jumpi\n      0x00\n      dup1\n      revert\n    tag_72:\n      pop\n      tag_73\n      0x04\n      dup1\n      calldatasize\n      sub\n      dup2\n      add\n      swap1\n      tag_74\n      swap2\n      swap1\n      tag_18\n      jump\t// in\n    tag_74:\n      tag_75\n      jump\t// in\n    tag_73:\n      stop\n        /* \"contracts/staking.sol\":645:694  mapping (address => uint) public tokenTotalStaked */\n    tag_19:\n      mstore(0x20, 0x03)\n      dup1\n      0x00\n      mstore\n      keccak256(0x00, 0x40)\n      0x00\n      swap2\n      pop\n      swap1\n      pop\n      sload\n      dup2\n      jump\t// out\n        /* \"contracts/staking.sol\":1145:1250  function removeToken( address _tokenAddr) onlyOwner external {\r... */\n    tag_25:\n        /* \"@openzeppelin/contracts/access/Ownable.sol\":1259:1271  _msgSender() */\n      tag_77\n        /* \"@openzeppelin/contracts/access/Ownable.sol\":1259:1269  _msgSender */\n      tag_78\n        /* \"@openzeppelin/contracts/access/Ownable.sol\":1259:1271  _msgSender() */\n      jump\t// in\n    tag_77:\n        /* \"@openzeppelin/contracts/access/Ownable.sol\":1248:1271  owner() == _msgSender() */\n      0xffffffffffffffffffffffffffffffffffffffff\n      and\n        /* \"@openzeppelin/contracts/access/Ownable.sol\":1248:1255  owner() */\n      tag_79\n        /* \"@openzeppelin/contracts/access/Ownable.sol\":1248:1253  owner */\n      tag_53\n        /* \"@openzeppelin/contracts/access/Ownable.sol\":1248:1255  owner() */\n      jump\t// in\n    tag_79:\n        /* \"@openzeppelin/contracts/access/Ownable.sol\":1248:1271  owner() == _msgSender() */\n      0xffffffffffffffffffffffffffffffffffffffff\n      and\n      eq\n        /* \"@openzeppelin/contracts/access/Ownable.sol\":1240:1308  require(owner() == _msgSender(), \"Ownable: caller is not the owner\") */\n      tag_80\n      jumpi\n      mload(0x40)\n      0x08c379a000000000000000000000000000000000000000000000000000000000\n      dup2\n      mstore\n      0x04\n      add\n      tag_81\n      swap1\n      tag_82\n      jump\t// in\n    tag_81:\n      mload(0x40)\n      dup1\n      swap2\n      sub\n      swap1\n      revert\n    tag_80:\n        /* \"contracts/staking.sol\":1239:1244  false */\n      0x00\n        /* \"contracts/staking.sol\":1213:1224  validTokens */\n      0x01\n        /* \"contracts/staking.sol\":1213:1236  validTokens[_tokenAddr] */\n      0x00\n        /* \"contracts/staking.sol\":1225:1235  _tokenAddr */\n      dup4\n        /* \"contracts/staking.sol\":1213:1236  validTokens[_tokenAddr] */\n      0xffffffffffffffffffffffffffffffffffffffff\n      and\n      0xffffffffffffffffffffffffffffffffffffffff\n      and\n      dup2\n      mstore\n      0x20\n      add\n      swap1\n      dup2\n      mstore\n      0x20\n      add\n      0x00\n      keccak256\n      0x00\n        /* \"contracts/staking.sol\":1213:1244  validTokens[_tokenAddr] = false */\n      0x0100\n      exp\n      dup2\n      sload\n      dup2\n      0xff\n      mul\n      not\n      and\n      swap1\n      dup4\n      iszero\n      iszero\n      mul\n      or\n      swap1\n      sstore\n      pop\n        /* \"contracts/staking.sol\":1145:1250  function removeToken( address _tokenAddr) onlyOwner external {\r... */\n      pop\n      jump\t// out\n        /* \"contracts/staking.sol\":2937:3096  function getUserInfo(address _tokenAddr) isValidToken(_tokenAddr) external view returns(stakingInfo memory){\r... */\n    tag_29:\n        /* \"contracts/staking.sol\":3025:3043  stakingInfo memory */\n      tag_84\n      tag_85\n      jump\t// in\n    tag_84:\n        /* \"contracts/staking.sol\":2991:3001  _tokenAddr */\n      dup2\n        /* \"contracts/staking.sol\":914:925  validTokens */\n      0x01\n        /* \"contracts/staking.sol\":914:937  validTokens[_tokenAddr] */\n      0x00\n        /* \"contracts/staking.sol\":926:936  _tokenAddr */\n      dup3\n        /* \"contracts/staking.sol\":914:937  validTokens[_tokenAddr] */\n      0xffffffffffffffffffffffffffffffffffffffff\n      and\n      0xffffffffffffffffffffffffffffffffffffffff\n      and\n      dup2\n      mstore\n      0x20\n      add\n      swap1\n      dup2\n      mstore\n      0x20\n      add\n      0x00\n      keccak256\n      0x00\n      swap1\n      sload\n      swap1\n      0x0100\n      exp\n      swap1\n      div\n      0xff\n      and\n        /* \"contracts/staking.sol\":906:938  require(validTokens[_tokenAddr]) */\n      tag_87\n      jumpi\n      0x00\n      dup1\n      revert\n    tag_87:\n        /* \"contracts/staking.sol\":3058:3066  StakeMap */\n      0x02\n        /* \"contracts/staking.sol\":3058:3078  StakeMap[_tokenAddr] */\n      0x00\n        /* \"contracts/staking.sol\":3067:3077  _tokenAddr */\n      dup5\n        /* \"contracts/staking.sol\":3058:3078  StakeMap[_tokenAddr] */\n      0xffffffffffffffffffffffffffffffffffffffff\n      and\n      0xffffffffffffffffffffffffffffffffffffffff\n      and\n      dup2\n      mstore\n      0x20\n      add\n      swap1\n      dup2\n      mstore\n      0x20\n      add\n      0x00\n      keccak256\n        /* \"contracts/staking.sol\":3058:3090  StakeMap[_tokenAddr][msg.sender] */\n      0x00\n        /* \"contracts/staking.sol\":3079:3089  msg.sender */\n      caller\n        /* \"contracts/staking.sol\":3058:3090  StakeMap[_tokenAddr][msg.sender] */\n      0xffffffffffffffffffffffffffffffffffffffff\n      and\n      0xffffffffffffffffffffffffffffffffffffffff\n      and\n      dup2\n      mstore\n      0x20\n      add\n      swap1\n      dup2\n      mstore\n      0x20\n      add\n      0x00\n      keccak256\n        /* \"contracts/staking.sol\":3051:3090  return StakeMap[_tokenAddr][msg.sender] */\n      mload(0x40)\n      dup1\n      0x60\n      add\n      0x40\n      mstore\n      swap1\n      dup2\n      0x00\n      dup3\n      add\n      sload\n      dup2\n      mstore\n      0x20\n      add\n      0x01\n      dup3\n      add\n      sload\n      dup2\n      mstore\n      0x20\n      add\n      0x02\n      dup3\n      add\n      sload\n      dup2\n      mstore\n      pop\n      pop\n      swap2\n      pop\n        /* \"contracts/staking.sol\":2937:3096  function getUserInfo(address _tokenAddr) isValidToken(_tokenAddr) external view returns(stakingInfo memory){\r... */\n      pop\n      swap2\n      swap1\n      pop\n      jump\t// out\n        /* \"contracts/staking.sol\":1287:2201  function stake(uint _amount, address _tokenAddr, uint _daysCount) isValidToken(_tokenAddr) external payable returns (bool){\r... */\n    tag_35:\n        /* \"contracts/staking.sol\":1404:1408  bool */\n      0x00\n        /* \"contracts/staking.sol\":1366:1376  _tokenAddr */\n      dup3\n        /* \"contracts/staking.sol\":914:925  validTokens */\n      0x01\n        /* \"contracts/staking.sol\":914:937  validTokens[_tokenAddr] */\n      0x00\n        /* \"contracts/staking.sol\":926:936  _tokenAddr */\n      dup3\n        /* \"contracts/staking.sol\":914:937  validTokens[_tokenAddr] */\n      0xffffffffffffffffffffffffffffffffffffffff\n      and\n      0xffffffffffffffffffffffffffffffffffffffff\n      and\n      dup2\n      mstore\n      0x20\n      add\n      swap1\n      dup2\n      mstore\n      0x20\n      add\n      0x00\n      keccak256\n      0x00\n      swap1\n      sload\n      swap1\n      0x0100\n      exp\n      swap1\n      div\n      0xff\n      and\n        /* \"contracts/staking.sol\":906:938  require(validTokens[_tokenAddr]) */\n      tag_90\n      jumpi\n      0x00\n      dup1\n      revert\n    tag_90:\n        /* \"contracts/staking.sol\":1442:1452  _tokenAddr */\n      dup4\n        /* \"contracts/staking.sol\":1435:1463  IERC20(_tokenAddr).balanceOf */\n      0xffffffffffffffffffffffffffffffffffffffff\n      and\n      0x70a08231\n        /* \"contracts/staking.sol\":1464:1474  msg.sender */\n      caller\n        /* \"contracts/staking.sol\":1435:1475  IERC20(_tokenAddr).balanceOf(msg.sender) */\n      mload(0x40)\n      dup3\n      0xffffffff\n      and\n      0xe0\n      shl\n      dup2\n      mstore\n      0x04\n      add\n      tag_92\n      swap2\n      swap1\n      tag_55\n      jump\t// in\n    tag_92:\n      0x20\n      mload(0x40)\n      dup1\n      dup4\n      sub\n      dup2\n      dup7\n      dup1\n      extcodesize\n      iszero\n      dup1\n      iszero\n      tag_93\n      jumpi\n      0x00\n      dup1\n      revert\n    tag_93:\n      pop\n      gas\n      staticcall\n      iszero\n      dup1\n      iszero\n      tag_95\n      jumpi\n      returndatasize\n      0x00\n      dup1\n      returndatacopy\n      revert(0x00, returndatasize)\n    tag_95:\n      pop\n      pop\n      pop\n      pop\n      mload(0x40)\n      returndatasize\n      not(0x1f)\n      0x1f\n      dup3\n      add\n      and\n      dup3\n      add\n      dup1\n      0x40\n      mstore\n      pop\n      dup2\n      add\n      swap1\n      tag_96\n      swap2\n      swap1\n      tag_97\n      jump\t// in\n    tag_96:\n        /* \"contracts/staking.sol\":1424:1431  _amount */\n      dup6\n        /* \"contracts/staking.sol\":1424:1475  _amount <= IERC20(_tokenAddr).balanceOf(msg.sender) */\n      gt\n      iszero\n        /* \"contracts/staking.sol\":1416:1544  require(_amount <= IERC20(_tokenAddr).balanceOf(msg.sender), \"Not enough STATE tokens in your wallet, please try lesser amount\") */\n      tag_98\n      jumpi\n      mload(0x40)\n      0x08c379a000000000000000000000000000000000000000000000000000000000\n      dup2\n      mstore\n      0x04\n      add\n      tag_99\n      swap1\n      tag_100\n      jump\t// in\n    tag_99:\n      mload(0x40)\n      dup1\n      swap2\n      sub\n      swap1\n      revert\n    tag_98:\n        /* \"contracts/staking.sol\":1566:1576  _tokenAddr */\n      dup4\n        /* \"contracts/staking.sol\":1559:1590  IERC20(_tokenAddr).transferFrom */\n      0xffffffffffffffffffffffffffffffffffffffff\n      and\n      0x23b872dd\n        /* \"contracts/staking.sol\":1591:1601  msg.sender */\n      caller\n        /* \"contracts/staking.sol\":1611:1615  this */\n      address\n        /* \"contracts/staking.sol\":1618:1625  _amount */\n      dup9\n        /* \"contracts/staking.sol\":1559:1626  IERC20(_tokenAddr).transferFrom(msg.sender, address(this), _amount) */\n      mload(0x40)\n      dup5\n      0xffffffff\n      and\n      0xe0\n      shl\n      dup2\n      mstore\n      0x04\n      add\n      tag_101\n      swap4\n      swap3\n      swap2\n      swap1\n      tag_102\n      jump\t// in\n    tag_101:\n      0x20\n      mload(0x40)\n      dup1\n      dup4\n      sub\n      dup2\n      0x00\n      dup8\n      dup1\n      extcodesize\n      iszero\n      dup1\n      iszero\n      tag_103\n      jumpi\n      0x00\n      dup1\n      revert\n    tag_103:\n      pop\n      gas\n      call\n      iszero\n      dup1\n      iszero\n      tag_105\n      jumpi\n      returndatasize\n      0x00\n      dup1\n      returndatacopy\n      revert(0x00, returndatasize)\n    tag_105:\n      pop\n      pop\n      pop\n      pop\n      mload(0x40)\n      returndatasize\n      not(0x1f)\n      0x1f\n      dup3\n      add\n      and\n      dup3\n      add\n      dup1\n      0x40\n      mstore\n      pop\n      dup2\n      add\n      swap1\n      tag_106\n      swap2\n      swap1\n      tag_107\n      jump\t// in\n    tag_106:\n        /* \"contracts/staking.sol\":1551:1627  require(IERC20(_tokenAddr).transferFrom(msg.sender, address(this), _amount)) */\n      tag_108\n      jumpi\n      0x00\n      dup1\n      revert\n    tag_108:\n        /* \"contracts/staking.sol\":1683:1684  0 */\n      0x00\n        /* \"contracts/staking.sol\":1640:1648  StakeMap */\n      0x02\n        /* \"contracts/staking.sol\":1640:1660  StakeMap[_tokenAddr] */\n      0x00\n        /* \"contracts/staking.sol\":1649:1659  _tokenAddr */\n      dup7\n        /* \"contracts/staking.sol\":1640:1660  StakeMap[_tokenAddr] */\n      0xffffffffffffffffffffffffffffffffffffffff\n      and\n      0xffffffffffffffffffffffffffffffffffffffff\n      and\n      dup2\n      mstore\n      0x20\n      add\n      swap1\n      dup2\n      mstore\n      0x20\n      add\n      0x00\n      keccak256\n        /* \"contracts/staking.sol\":1640:1672  StakeMap[_tokenAddr][msg.sender] */\n      0x00\n        /* \"contracts/staking.sol\":1661:1671  msg.sender */\n      caller\n        /* \"contracts/staking.sol\":1640:1672  StakeMap[_tokenAddr][msg.sender] */\n      0xffffffffffffffffffffffffffffffffffffffff\n      and\n      0xffffffffffffffffffffffffffffffffffffffff\n      and\n      dup2\n      mstore\n      0x20\n      add\n      swap1\n      dup2\n      mstore\n      0x20\n      add\n      0x00\n      keccak256\n        /* \"contracts/staking.sol\":1640:1679  StakeMap[_tokenAddr][msg.sender].amount */\n      0x00\n      add\n      sload\n        /* \"contracts/staking.sol\":1640:1684  StakeMap[_tokenAddr][msg.sender].amount == 0 */\n      eq\n        /* \"contracts/staking.sol\":1636:2052  if (StakeMap[_tokenAddr][msg.sender].amount == 0){\r... */\n      iszero\n      tag_109\n      jumpi\n        /* \"contracts/staking.sol\":1736:1743  _amount */\n      dup5\n        /* \"contracts/staking.sol\":1694:1702  StakeMap */\n      0x02\n        /* \"contracts/staking.sol\":1694:1714  StakeMap[_tokenAddr] */\n      0x00\n        /* \"contracts/staking.sol\":1703:1713  _tokenAddr */\n      dup7\n        /* \"contracts/staking.sol\":1694:1714  StakeMap[_tokenAddr] */\n      0xffffffffffffffffffffffffffffffffffffffff\n      and\n      0xffffffffffffffffffffffffffffffffffffffff\n      and\n      dup2\n      mstore\n      0x20\n      add\n      swap1\n      dup2\n      mstore\n      0x20\n      add\n      0x00\n      keccak256\n        /* \"contracts/staking.sol\":1694:1726  StakeMap[_tokenAddr][msg.sender] */\n      0x00\n        /* \"contracts/staking.sol\":1715:1725  msg.sender */\n      caller\n        /* \"contracts/staking.sol\":1694:1726  StakeMap[_tokenAddr][msg.sender] */\n      0xffffffffffffffffffffffffffffffffffffffff\n      and\n      0xffffffffffffffffffffffffffffffffffffffff\n      and\n      dup2\n      mstore\n      0x20\n      add\n      swap1\n      dup2\n      mstore\n      0x20\n      add\n      0x00\n      keccak256\n        /* \"contracts/staking.sol\":1694:1733  StakeMap[_tokenAddr][msg.sender].amount */\n      0x00\n      add\n        /* \"contracts/staking.sol\":1694:1743  StakeMap[_tokenAddr][msg.sender].amount = _amount */\n      dup2\n      swap1\n      sstore\n      pop\n        /* \"contracts/staking.sol\":1830:1836  1 days */\n      0x015180\n        /* \"contracts/staking.sol\":1817:1827  _daysCount */\n      dup4\n        /* \"contracts/staking.sol\":1817:1836  _daysCount * 1 days */\n      tag_110\n      swap2\n      swap1\n      tag_111\n      jump\t// in\n    tag_110:\n        /* \"contracts/staking.sol\":1799:1814  block.timestamp */\n      timestamp\n        /* \"contracts/staking.sol\":1799:1836  block.timestamp + _daysCount * 1 days */\n      tag_112\n      swap2\n      swap1\n      tag_113\n      jump\t// in\n    tag_112:\n        /* \"contracts/staking.sol\":1752:1760  StakeMap */\n      0x02\n        /* \"contracts/staking.sol\":1752:1772  StakeMap[_tokenAddr] */\n      0x00\n        /* \"contracts/staking.sol\":1761:1771  _tokenAddr */\n      dup7\n        /* \"contracts/staking.sol\":1752:1772  StakeMap[_tokenAddr] */\n      0xffffffffffffffffffffffffffffffffffffffff\n      and\n      0xffffffffffffffffffffffffffffffffffffffff\n      and\n      dup2\n      mstore\n      0x20\n      add\n      swap1\n      dup2\n      mstore\n      0x20\n      add\n      0x00\n      keccak256\n        /* \"contracts/staking.sol\":1752:1784  StakeMap[_tokenAddr][msg.sender] */\n      0x00\n        /* \"contracts/staking.sol\":1773:1783  msg.sender */\n      caller\n        /* \"contracts/staking.sol\":1752:1784  StakeMap[_tokenAddr][msg.sender] */\n      0xffffffffffffffffffffffffffffffffffffffff\n      and\n      0xffffffffffffffffffffffffffffffffffffffff\n      and\n      dup2\n      mstore\n      0x20\n      add\n      swap1\n      dup2\n      mstore\n      0x20\n      add\n      0x00\n      keccak256\n        /* \"contracts/staking.sol\":1752:1796  StakeMap[_tokenAddr][msg.sender].releaseDate */\n      0x02\n      add\n        /* \"contracts/staking.sol\":1752:1836  StakeMap[_tokenAddr][msg.sender].releaseDate = block.timestamp + _daysCount * 1 days */\n      dup2\n      swap1\n      sstore\n      pop\n        /* \"contracts/staking.sol\":1636:2052  if (StakeMap[_tokenAddr][msg.sender].amount == 0){\r... */\n      jump(tag_114)\n    tag_109:\n        /* \"contracts/staking.sol\":1899:1951  StakeMap[_tokenAddr][msg.sender].amount.add(_amount) */\n      tag_115\n        /* \"contracts/staking.sol\":1943:1950  _amount */\n      dup6\n        /* \"contracts/staking.sol\":1899:1907  StakeMap */\n      0x02\n        /* \"contracts/staking.sol\":1899:1919  StakeMap[_tokenAddr] */\n      0x00\n        /* \"contracts/staking.sol\":1908:1918  _tokenAddr */\n      dup8\n        /* \"contracts/staking.sol\":1899:1919  StakeMap[_tokenAddr] */\n      0xffffffffffffffffffffffffffffffffffffffff\n      and\n      0xffffffffffffffffffffffffffffffffffffffff\n      and\n      dup2\n      mstore\n      0x20\n      add\n      swap1\n      dup2\n      mstore\n      0x20\n      add\n      0x00\n      keccak256\n        /* \"contracts/staking.sol\":1899:1931  StakeMap[_tokenAddr][msg.sender] */\n      0x00\n        /* \"contracts/staking.sol\":1920:1930  msg.sender */\n      caller\n        /* \"contracts/staking.sol\":1899:1931  StakeMap[_tokenAddr][msg.sender] */\n      0xffffffffffffffffffffffffffffffffffffffff\n      and\n      0xffffffffffffffffffffffffffffffffffffffff\n      and\n      dup2\n      mstore\n      0x20\n      add\n      swap1\n      dup2\n      mstore\n      0x20\n      add\n      0x00\n      keccak256\n        /* \"contracts/staking.sol\":1899:1938  StakeMap[_tokenAddr][msg.sender].amount */\n      0x00\n      add\n      sload\n        /* \"contracts/staking.sol\":1899:1942  StakeMap[_tokenAddr][msg.sender].amount.add */\n      tag_116\n      swap1\n        /* \"contracts/staking.sol\":1899:1951  StakeMap[_tokenAddr][msg.sender].amount.add(_amount) */\n      swap2\n      swap1\n      0xffffffff\n      and\n      jump\t// in\n    tag_115:\n        /* \"contracts/staking.sol\":1857:1865  StakeMap */\n      0x02\n        /* \"contracts/staking.sol\":1857:1877  StakeMap[_tokenAddr] */\n      0x00\n        /* \"contracts/staking.sol\":1866:1876  _tokenAddr */\n      dup7\n        /* \"contracts/staking.sol\":1857:1877  StakeMap[_tokenAddr] */\n      0xffffffffffffffffffffffffffffffffffffffff\n      and\n      0xffffffffffffffffffffffffffffffffffffffff\n      and\n      dup2\n      mstore\n      0x20\n      add\n      swap1\n      dup2\n      mstore\n      0x20\n      add\n      0x00\n      keccak256\n        /* \"contracts/staking.sol\":1857:1889  StakeMap[_tokenAddr][msg.sender] */\n      0x00\n        /* \"contracts/staking.sol\":1878:1888  msg.sender */\n      caller\n        /* \"contracts/staking.sol\":1857:1889  StakeMap[_tokenAddr][msg.sender] */\n      0xffffffffffffffffffffffffffffffffffffffff\n      and\n      0xffffffffffffffffffffffffffffffffffffffff\n      and\n      dup2\n      mstore\n      0x20\n      add\n      swap1\n      dup2\n      mstore\n      0x20\n      add\n      0x00\n      keccak256\n        /* \"contracts/staking.sol\":1857:1896  StakeMap[_tokenAddr][msg.sender].amount */\n      0x00\n      add\n        /* \"contracts/staking.sol\":1857:1951  StakeMap[_tokenAddr][msg.sender].amount = StakeMap[_tokenAddr][msg.sender].amount.add(_amount) */\n      dup2\n      swap1\n      sstore\n      pop\n        /* \"contracts/staking.sol\":2038:2044  1 days */\n      0x015180\n        /* \"contracts/staking.sol\":2025:2035  _daysCount */\n      dup4\n        /* \"contracts/staking.sol\":2025:2044  _daysCount * 1 days */\n      tag_117\n      swap2\n      swap1\n      tag_111\n      jump\t// in\n    tag_117:\n        /* \"contracts/staking.sol\":2007:2022  block.timestamp */\n      timestamp\n        /* \"contracts/staking.sol\":2007:2044  block.timestamp + _daysCount * 1 days */\n      tag_118\n      swap2\n      swap1\n      tag_113\n      jump\t// in\n    tag_118:\n        /* \"contracts/staking.sol\":1960:1968  StakeMap */\n      0x02\n        /* \"contracts/staking.sol\":1960:1980  StakeMap[_tokenAddr] */\n      0x00\n        /* \"contracts/staking.sol\":1969:1979  _tokenAddr */\n      dup7\n        /* \"contracts/staking.sol\":1960:1980  StakeMap[_tokenAddr] */\n      0xffffffffffffffffffffffffffffffffffffffff\n      and\n      0xffffffffffffffffffffffffffffffffffffffff\n      and\n      dup2\n      mstore\n      0x20\n      add\n      swap1\n      dup2\n      mstore\n      0x20\n      add\n      0x00\n      keccak256\n        /* \"contracts/staking.sol\":1960:1992  StakeMap[_tokenAddr][msg.sender] */\n      0x00\n        /* \"contracts/staking.sol\":1981:1991  msg.sender */\n      caller\n        /* \"contracts/staking.sol\":1960:1992  StakeMap[_tokenAddr][msg.sender] */\n      0xffffffffffffffffffffffffffffffffffffffff\n      and\n      0xffffffffffffffffffffffffffffffffffffffff\n      and\n      dup2\n      mstore\n      0x20\n      add\n      swap1\n      dup2\n      mstore\n      0x20\n      add\n      0x00\n      keccak256\n        /* \"contracts/staking.sol\":1960:2004  StakeMap[_tokenAddr][msg.sender].releaseDate */\n      0x02\n      add\n        /* \"contracts/staking.sol\":1960:2044  StakeMap[_tokenAddr][msg.sender].releaseDate = block.timestamp + _daysCount * 1 days */\n      dup2\n      swap1\n      sstore\n      pop\n        /* \"contracts/staking.sol\":1636:2052  if (StakeMap[_tokenAddr][msg.sender].amount == 0){\r... */\n    tag_114:\n        /* \"contracts/staking.sol\":2089:2130  tokenTotalStaked[_tokenAddr].add(_amount) */\n      tag_119\n        /* \"contracts/staking.sol\":2122:2129  _amount */\n      dup6\n        /* \"contracts/staking.sol\":2089:2105  tokenTotalStaked */\n      0x03\n        /* \"contracts/staking.sol\":2089:2117  tokenTotalStaked[_tokenAddr] */\n      0x00\n        /* \"contracts/staking.sol\":2106:2116  _tokenAddr */\n      dup8\n        /* \"contracts/staking.sol\":2089:2117  tokenTotalStaked[_tokenAddr] */\n      0xffffffffffffffffffffffffffffffffffffffff\n      and\n      0xffffffffffffffffffffffffffffffffffffffff\n      and\n      dup2\n      mstore\n      0x20\n      add\n      swap1\n      dup2\n      mstore\n      0x20\n      add\n      0x00\n      keccak256\n      sload\n        /* \"contracts/staking.sol\":2089:2121  tokenTotalStaked[_tokenAddr].add */\n      tag_116\n      swap1\n        /* \"contracts/staking.sol\":2089:2130  tokenTotalStaked[_tokenAddr].add(_amount) */\n      swap2\n      swap1\n      0xffffffff\n      and\n      jump\t// in\n    tag_119:\n        /* \"contracts/staking.sol\":2058:2074  tokenTotalStaked */\n      0x03\n        /* \"contracts/staking.sol\":2058:2086  tokenTotalStaked[_tokenAddr] */\n      0x00\n        /* \"contracts/staking.sol\":2075:2085  _tokenAddr */\n      dup7\n        /* \"contracts/staking.sol\":2058:2086  tokenTotalStaked[_tokenAddr] */\n      0xffffffffffffffffffffffffffffffffffffffff\n      and\n      0xffffffffffffffffffffffffffffffffffffffff\n      and\n      dup2\n      mstore\n      0x20\n      add\n      swap1\n      dup2\n      mstore\n      0x20\n      add\n      0x00\n      keccak256\n        /* \"contracts/staking.sol\":2058:2130  tokenTotalStaked[_tokenAddr] = tokenTotalStaked[_tokenAddr].add(_amount) */\n      dup2\n      swap1\n      sstore\n      pop\n        /* \"contracts/staking.sol\":2144:2177  tokensStaked(msg.sender, _amount) */\n      0xe5cfeeb5fcb96c1c52a55137c15e7f46d34d100d256c5396efc087c43d2fde4b\n        /* \"contracts/staking.sol\":2157:2167  msg.sender */\n      caller\n        /* \"contracts/staking.sol\":2169:2176  _amount */\n      dup7\n        /* \"contracts/staking.sol\":2144:2177  tokensStaked(msg.sender, _amount) */\n      mload(0x40)\n      tag_120\n      swap3\n      swap2\n      swap1\n      tag_121\n      jump\t// in\n    tag_120:\n      mload(0x40)\n      dup1\n      swap2\n      sub\n      swap1\n      log1\n        /* \"contracts/staking.sol\":2191:2195  true */\n      0x01\n        /* \"contracts/staking.sol\":2184:2195  return true */\n      swap2\n      pop\n        /* \"contracts/staking.sol\":1287:2201  function stake(uint _amount, address _tokenAddr, uint _daysCount) isValidToken(_tokenAddr) external payable returns (bool){\r... */\n      pop\n      swap4\n      swap3\n      pop\n      pop\n      pop\n      jump\t// out\n        /* \"@openzeppelin/contracts/access/Ownable.sol\":1668:1769  function renounceOwnership() public virtual onlyOwner {... */\n    tag_40:\n        /* \"@openzeppelin/contracts/access/Ownable.sol\":1259:1271  _msgSender() */\n      tag_123\n        /* \"@openzeppelin/contracts/access/Ownable.sol\":1259:1269  _msgSender */\n      tag_78\n        /* \"@openzeppelin/contracts/access/Ownable.sol\":1259:1271  _msgSender() */\n      jump\t// in\n    tag_123:\n        /* \"@openzeppelin/contracts/access/Ownable.sol\":1248:1271  owner() == _msgSender() */\n      0xffffffffffffffffffffffffffffffffffffffff\n      and\n        /* \"@openzeppelin/contracts/access/Ownable.sol\":1248:1255  owner() */\n      tag_124\n        /* \"@openzeppelin/contracts/access/Ownable.sol\":1248:1253  owner */\n      tag_53\n        /* \"@openzeppelin/contracts/access/Ownable.sol\":1248:1255  owner() */\n      jump\t// in\n    tag_124:\n        /* \"@openzeppelin/contracts/access/Ownable.sol\":1248:1271  owner() == _msgSender() */\n      0xffffffffffffffffffffffffffffffffffffffff\n      and\n      eq\n        /* \"@openzeppelin/contracts/access/Ownable.sol\":1240:1308  require(owner() == _msgSender(), \"Ownable: caller is not the owner\") */\n      tag_125\n      jumpi\n      mload(0x40)\n      0x08c379a000000000000000000000000000000000000000000000000000000000\n      dup2\n      mstore\n      0x04\n      add\n      tag_126\n      swap1\n      tag_82\n      jump\t// in\n    tag_126:\n      mload(0x40)\n      dup1\n      swap2\n      sub\n      swap1\n      revert\n    tag_125:\n        /* \"@openzeppelin/contracts/access/Ownable.sol\":1732:1762  _transferOwnership(address(0)) */\n      tag_128\n        /* \"@openzeppelin/contracts/access/Ownable.sol\":1759:1760  0 */\n      0x00\n        /* \"@openzeppelin/contracts/access/Ownable.sol\":1732:1750  _transferOwnership */\n      tag_129\n        /* \"@openzeppelin/contracts/access/Ownable.sol\":1732:1762  _transferOwnership(address(0)) */\n      jump\t// in\n    tag_128:\n        /* \"@openzeppelin/contracts/access/Ownable.sol\":1668:1769  function renounceOwnership() public virtual onlyOwner {... */\n      jump\t// out\n        /* \"contracts/staking.sol\":3145:3294  function getTokenTotalStaked(address _tokenAddr) isValidToken(_tokenAddr) external view returns(uint){\r... */\n    tag_44:\n        /* \"contracts/staking.sol\":3241:3245  uint */\n      0x00\n        /* \"contracts/staking.sol\":3207:3217  _tokenAddr */\n      dup2\n        /* \"contracts/staking.sol\":914:925  validTokens */\n      0x01\n        /* \"contracts/staking.sol\":914:937  validTokens[_tokenAddr] */\n      0x00\n        /* \"contracts/staking.sol\":926:936  _tokenAddr */\n      dup3\n        /* \"contracts/staking.sol\":914:937  validTokens[_tokenAddr] */\n      0xffffffffffffffffffffffffffffffffffffffff\n      and\n      0xffffffffffffffffffffffffffffffffffffffff\n      and\n      dup2\n      mstore\n      0x20\n      add\n      swap1\n      dup2\n      mstore\n      0x20\n      add\n      0x00\n      keccak256\n      0x00\n      swap1\n      sload\n      swap1\n      0x0100\n      exp\n      swap1\n      div\n      0xff\n      and\n        /* \"contracts/staking.sol\":906:938  require(validTokens[_tokenAddr]) */\n      tag_131\n      jumpi\n      0x00\n      dup1\n      revert\n    tag_131:\n        /* \"contracts/staking.sol\":3260:3276  tokenTotalStaked */\n      0x03\n        /* \"contracts/staking.sol\":3260:3288  tokenTotalStaked[_tokenAddr] */\n      0x00\n        /* \"contracts/staking.sol\":3277:3287  _tokenAddr */\n      dup5\n        /* \"contracts/staking.sol\":3260:3288  tokenTotalStaked[_tokenAddr] */\n      0xffffffffffffffffffffffffffffffffffffffff\n      and\n      0xffffffffffffffffffffffffffffffffffffffff\n      and\n      dup2\n      mstore\n      0x20\n      add\n      swap1\n      dup2\n      mstore\n      0x20\n      add\n      0x00\n      keccak256\n      sload\n        /* \"contracts/staking.sol\":3253:3288  return tokenTotalStaked[_tokenAddr] */\n      swap2\n      pop\n        /* \"contracts/staking.sol\":3145:3294  function getTokenTotalStaked(address _tokenAddr) isValidToken(_tokenAddr) external view returns(uint){\r... */\n      pop\n      swap2\n      swap1\n      pop\n      jump\t// out\n        /* \"contracts/staking.sol\":2240:2890  function unstake(uint _amount, address _tokenAddr) isValidToken(_tokenAddr) external payable returns (bool){\r... */\n    tag_49:\n        /* \"contracts/staking.sol\":2342:2346  bool */\n      0x00\n        /* \"contracts/staking.sol\":2304:2314  _tokenAddr */\n      dup2\n        /* \"contracts/staking.sol\":914:925  validTokens */\n      0x01\n        /* \"contracts/staking.sol\":914:937  validTokens[_tokenAddr] */\n      0x00\n        /* \"contracts/staking.sol\":926:936  _tokenAddr */\n      dup3\n        /* \"contracts/staking.sol\":914:937  validTokens[_tokenAddr] */\n      0xffffffffffffffffffffffffffffffffffffffff\n      and\n      0xffffffffffffffffffffffffffffffffffffffff\n      and\n      dup2\n      mstore\n      0x20\n      add\n      swap1\n      dup2\n      mstore\n      0x20\n      add\n      0x00\n      keccak256\n      0x00\n      swap1\n      sload\n      swap1\n      0x0100\n      exp\n      swap1\n      div\n      0xff\n      and\n        /* \"contracts/staking.sol\":906:938  require(validTokens[_tokenAddr]) */\n      tag_134\n      jumpi\n      0x00\n      dup1\n      revert\n    tag_134:\n        /* \"contracts/staking.sol\":2404:2405  0 */\n      0x00\n        /* \"contracts/staking.sol\":2362:2370  StakeMap */\n      0x02\n        /* \"contracts/staking.sol\":2362:2382  StakeMap[_tokenAddr] */\n      0x00\n        /* \"contracts/staking.sol\":2371:2381  _tokenAddr */\n      dup6\n        /* \"contracts/staking.sol\":2362:2382  StakeMap[_tokenAddr] */\n      0xffffffffffffffffffffffffffffffffffffffff\n      and\n      0xffffffffffffffffffffffffffffffffffffffff\n      and\n      dup2\n      mstore\n      0x20\n      add\n      swap1\n      dup2\n      mstore\n      0x20\n      add\n      0x00\n      keccak256\n        /* \"contracts/staking.sol\":2362:2394  StakeMap[_tokenAddr][msg.sender] */\n      0x00\n        /* \"contracts/staking.sol\":2383:2393  msg.sender */\n      caller\n        /* \"contracts/staking.sol\":2362:2394  StakeMap[_tokenAddr][msg.sender] */\n      0xffffffffffffffffffffffffffffffffffffffff\n      and\n      0xffffffffffffffffffffffffffffffffffffffff\n      and\n      dup2\n      mstore\n      0x20\n      add\n      swap1\n      dup2\n      mstore\n      0x20\n      add\n      0x00\n      keccak256\n        /* \"contracts/staking.sol\":2362:2401  StakeMap[_tokenAddr][msg.sender].amount */\n      0x00\n      add\n      sload\n        /* \"contracts/staking.sol\":2362:2405  StakeMap[_tokenAddr][msg.sender].amount > 0 */\n      gt\n        /* \"contracts/staking.sol\":2354:2406  require(StakeMap[_tokenAddr][msg.sender].amount > 0) */\n      tag_136\n      jumpi\n      0x00\n      dup1\n      revert\n    tag_136:\n        /* \"contracts/staking.sol\":2439:2447  StakeMap */\n      0x02\n        /* \"contracts/staking.sol\":2439:2459  StakeMap[_tokenAddr] */\n      0x00\n        /* \"contracts/staking.sol\":2448:2458  _tokenAddr */\n      dup5\n        /* \"contracts/staking.sol\":2439:2459  StakeMap[_tokenAddr] */\n      0xffffffffffffffffffffffffffffffffffffffff\n      and\n      0xffffffffffffffffffffffffffffffffffffffff\n      and\n      dup2\n      mstore\n      0x20\n      add\n      swap1\n      dup2\n      mstore\n      0x20\n      add\n      0x00\n      keccak256\n        /* \"contracts/staking.sol\":2439:2471  StakeMap[_tokenAddr][msg.sender] */\n      0x00\n        /* \"contracts/staking.sol\":2460:2470  msg.sender */\n      caller\n        /* \"contracts/staking.sol\":2439:2471  StakeMap[_tokenAddr][msg.sender] */\n      0xffffffffffffffffffffffffffffffffffffffff\n      and\n      0xffffffffffffffffffffffffffffffffffffffff\n      and\n      dup2\n      mstore\n      0x20\n      add\n      swap1\n      dup2\n      mstore\n      0x20\n      add\n      0x00\n      keccak256\n        /* \"contracts/staking.sol\":2439:2483  StakeMap[_tokenAddr][msg.sender].releaseDate */\n      0x02\n      add\n      sload\n        /* \"contracts/staking.sol\":2421:2436  block.timestamp */\n      timestamp\n        /* \"contracts/staking.sol\":2421:2483  block.timestamp > StakeMap[_tokenAddr][msg.sender].releaseDate */\n      gt\n        /* \"contracts/staking.sol\":2413:2551  require(block.timestamp > StakeMap[_tokenAddr][msg.sender].releaseDate, \"Tokens are only available after correct time period has elapsed\") */\n      tag_137\n      jumpi\n      mload(0x40)\n      0x08c379a000000000000000000000000000000000000000000000000000000000\n      dup2\n      mstore\n      0x04\n      add\n      tag_138\n      swap1\n      tag_139\n      jump\t// in\n    tag_138:\n      mload(0x40)\n      dup1\n      swap2\n      sub\n      swap1\n      revert\n    tag_137:\n        /* \"contracts/staking.sol\":2573:2583  _tokenAddr */\n      dup3\n        /* \"contracts/staking.sol\":2566:2593  IERC20(_tokenAddr).transfer */\n      0xffffffffffffffffffffffffffffffffffffffff\n      and\n      0xa9059cbb\n        /* \"contracts/staking.sol\":2594:2604  msg.sender */\n      caller\n        /* \"contracts/staking.sol\":2606:2613  _amount */\n      dup7\n        /* \"contracts/staking.sol\":2566:2614  IERC20(_tokenAddr).transfer(msg.sender, _amount) */\n      mload(0x40)\n      dup4\n      0xffffffff\n      and\n      0xe0\n      shl\n      dup2\n      mstore\n      0x04\n      add\n      tag_140\n      swap3\n      swap2\n      swap1\n      tag_121\n      jump\t// in\n    tag_140:\n      0x20\n      mload(0x40)\n      dup1\n      dup4\n      sub\n      dup2\n      0x00\n      dup8\n      dup1\n      extcodesize\n      iszero\n      dup1\n      iszero\n      tag_141\n      jumpi\n      0x00\n      dup1\n      revert\n    tag_141:\n      pop\n      gas\n      call\n      iszero\n      dup1\n      iszero\n      tag_143\n      jumpi\n      returndatasize\n      0x00\n      dup1\n      returndatacopy\n      revert(0x00, returndatasize)\n    tag_143:\n      pop\n      pop\n      pop\n      pop\n      mload(0x40)\n      returndatasize\n      not(0x1f)\n      0x1f\n      dup3\n      add\n      and\n      dup3\n      add\n      dup1\n      0x40\n      mstore\n      pop\n      dup2\n      add\n      swap1\n      tag_144\n      swap2\n      swap1\n      tag_107\n      jump\t// in\n    tag_144:\n        /* \"contracts/staking.sol\":2558:2615  require(IERC20(_tokenAddr).transfer(msg.sender, _amount)) */\n      tag_145\n      jumpi\n      0x00\n      dup1\n      revert\n    tag_145:\n        /* \"contracts/staking.sol\":2655:2696  tokenTotalStaked[_tokenAddr].sub(_amount) */\n      tag_146\n        /* \"contracts/staking.sol\":2688:2695  _amount */\n      dup5\n        /* \"contracts/staking.sol\":2655:2671  tokenTotalStaked */\n      0x03\n        /* \"contracts/staking.sol\":2655:2683  tokenTotalStaked[_tokenAddr] */\n      0x00\n        /* \"contracts/staking.sol\":2672:2682  _tokenAddr */\n      dup7\n        /* \"contracts/staking.sol\":2655:2683  tokenTotalStaked[_tokenAddr] */\n      0xffffffffffffffffffffffffffffffffffffffff\n      and\n      0xffffffffffffffffffffffffffffffffffffffff\n      and\n      dup2\n      mstore\n      0x20\n      add\n      swap1\n      dup2\n      mstore\n      0x20\n      add\n      0x00\n      keccak256\n      sload\n        /* \"contracts/staking.sol\":2655:2687  tokenTotalStaked[_tokenAddr].sub */\n      tag_147\n      swap1\n        /* \"contracts/staking.sol\":2655:2696  tokenTotalStaked[_tokenAddr].sub(_amount) */\n      swap2\n      swap1\n      0xffffffff\n      and\n      jump\t// in\n    tag_146:\n        /* \"contracts/staking.sol\":2624:2640  tokenTotalStaked */\n      0x03\n        /* \"contracts/staking.sol\":2624:2652  tokenTotalStaked[_tokenAddr] */\n      0x00\n        /* \"contracts/staking.sol\":2641:2651  _tokenAddr */\n      dup6\n        /* \"contracts/staking.sol\":2624:2652  tokenTotalStaked[_tokenAddr] */\n      0xffffffffffffffffffffffffffffffffffffffff\n      and\n      0xffffffffffffffffffffffffffffffffffffffff\n      and\n      dup2\n      mstore\n      0x20\n      add\n      swap1\n      dup2\n      mstore\n      0x20\n      add\n      0x00\n      keccak256\n        /* \"contracts/staking.sol\":2624:2696  tokenTotalStaked[_tokenAddr] = tokenTotalStaked[_tokenAddr].sub(_amount) */\n      dup2\n      swap1\n      sstore\n      pop\n        /* \"contracts/staking.sol\":2755:2817  StakeMap[_tokenAddr][msg.sender].alreadyWithdrawn.add(_amount) */\n      tag_148\n        /* \"contracts/staking.sol\":2809:2816  _amount */\n      dup5\n        /* \"contracts/staking.sol\":2755:2763  StakeMap */\n      0x02\n        /* \"contracts/staking.sol\":2755:2775  StakeMap[_tokenAddr] */\n      0x00\n        /* \"contracts/staking.sol\":2764:2774  _tokenAddr */\n      dup7\n        /* \"contracts/staking.sol\":2755:2775  StakeMap[_tokenAddr] */\n      0xffffffffffffffffffffffffffffffffffffffff\n      and\n      0xffffffffffffffffffffffffffffffffffffffff\n      and\n      dup2\n      mstore\n      0x20\n      add\n      swap1\n      dup2\n      mstore\n      0x20\n      add\n      0x00\n      keccak256\n        /* \"contracts/staking.sol\":2755:2787  StakeMap[_tokenAddr][msg.sender] */\n      0x00\n        /* \"contracts/staking.sol\":2776:2786  msg.sender */\n      caller\n        /* \"contracts/staking.sol\":2755:2787  StakeMap[_tokenAddr][msg.sender] */\n      0xffffffffffffffffffffffffffffffffffffffff\n      and\n      0xffffffffffffffffffffffffffffffffffffffff\n      and\n      dup2\n      mstore\n      0x20\n      add\n      swap1\n      dup2\n      mstore\n      0x20\n      add\n      0x00\n      keccak256\n        /* \"contracts/staking.sol\":2755:2804  StakeMap[_tokenAddr][msg.sender].alreadyWithdrawn */\n      0x01\n      add\n      sload\n        /* \"contracts/staking.sol\":2755:2808  StakeMap[_tokenAddr][msg.sender].alreadyWithdrawn.add */\n      tag_116\n      swap1\n        /* \"contracts/staking.sol\":2755:2817  StakeMap[_tokenAddr][msg.sender].alreadyWithdrawn.add(_amount) */\n      swap2\n      swap1\n      0xffffffff\n      and\n      jump\t// in\n    tag_148:\n        /* \"contracts/staking.sol\":2703:2711  StakeMap */\n      0x02\n        /* \"contracts/staking.sol\":2703:2723  StakeMap[_tokenAddr] */\n      0x00\n        /* \"contracts/staking.sol\":2712:2722  _tokenAddr */\n      dup6\n        /* \"contracts/staking.sol\":2703:2723  StakeMap[_tokenAddr] */\n      0xffffffffffffffffffffffffffffffffffffffff\n      and\n      0xffffffffffffffffffffffffffffffffffffffff\n      and\n      dup2\n      mstore\n      0x20\n      add\n      swap1\n      dup2\n      mstore\n      0x20\n      add\n      0x00\n      keccak256\n        /* \"contracts/staking.sol\":2703:2735  StakeMap[_tokenAddr][msg.sender] */\n      0x00\n        /* \"contracts/staking.sol\":2724:2734  msg.sender */\n      caller\n        /* \"contracts/staking.sol\":2703:2735  StakeMap[_tokenAddr][msg.sender] */\n      0xffffffffffffffffffffffffffffffffffffffff\n      and\n      0xffffffffffffffffffffffffffffffffffffffff\n      and\n      dup2\n      mstore\n      0x20\n      add\n      swap1\n      dup2\n      mstore\n      0x20\n      add\n      0x00\n      keccak256\n        /* \"contracts/staking.sol\":2703:2752  StakeMap[_tokenAddr][msg.sender].alreadyWithdrawn */\n      0x01\n      add\n        /* \"contracts/staking.sol\":2703:2817  StakeMap[_tokenAddr][msg.sender].alreadyWithdrawn = StakeMap[_tokenAddr][msg.sender].alreadyWithdrawn.add(_amount) */\n      dup2\n      swap1\n      sstore\n      pop\n        /* \"contracts/staking.sol\":2831:2866  TokensUnstaked(msg.sender, _amount) */\n      0x9845e367b683334e5c0b12d7b81721ac518e649376fa65e3d68324e8f34f2679\n        /* \"contracts/staking.sol\":2846:2856  msg.sender */\n      caller\n        /* \"contracts/staking.sol\":2858:2865  _amount */\n      dup6\n        /* \"contracts/staking.sol\":2831:2866  TokensUnstaked(msg.sender, _amount) */\n      mload(0x40)\n      tag_149\n      swap3\n      swap2\n      swap1\n      tag_121\n      jump\t// in\n    tag_149:\n      mload(0x40)\n      dup1\n      swap2\n      sub\n      swap1\n      log1\n        /* \"contracts/staking.sol\":2880:2884  true */\n      0x01\n        /* \"contracts/staking.sol\":2873:2884  return true */\n      swap2\n      pop\n        /* \"contracts/staking.sol\":2240:2890  function unstake(uint _amount, address _tokenAddr) isValidToken(_tokenAddr) external payable returns (bool){\r... */\n      pop\n      swap3\n      swap2\n      pop\n      pop\n      jump\t// out\n        /* \"@openzeppelin/contracts/access/Ownable.sol\":1036:1121  function owner() public view virtual returns (address) {... */\n    tag_53:\n        /* \"@openzeppelin/contracts/access/Ownable.sol\":1082:1089  address */\n      0x00\n        /* \"@openzeppelin/contracts/access/Ownable.sol\":1108:1114  _owner */\n      dup1\n      0x00\n      swap1\n      sload\n      swap1\n      0x0100\n      exp\n      swap1\n      div\n      0xffffffffffffffffffffffffffffffffffffffff\n      and\n        /* \"@openzeppelin/contracts/access/Ownable.sol\":1101:1114  return _owner */\n      swap1\n      pop\n        /* \"@openzeppelin/contracts/access/Ownable.sol\":1036:1121  function owner() public view virtual returns (address) {... */\n      swap1\n      jump\t// out\n        /* \"contracts/staking.sol\":995:1096  function addToken( address _tokenAddr) onlyOwner external {\r... */\n    tag_59:\n        /* \"@openzeppelin/contracts/access/Ownable.sol\":1259:1271  _msgSender() */\n      tag_152\n        /* \"@openzeppelin/contracts/access/Ownable.sol\":1259:1269  _msgSender */\n      tag_78\n        /* \"@openzeppelin/contracts/access/Ownable.sol\":1259:1271  _msgSender() */\n      jump\t// in\n    tag_152:\n        /* \"@openzeppelin/contracts/access/Ownable.sol\":1248:1271  owner() == _msgSender() */\n      0xffffffffffffffffffffffffffffffffffffffff\n      and\n        /* \"@openzeppelin/contracts/access/Ownable.sol\":1248:1255  owner() */\n      tag_153\n        /* \"@openzeppelin/contracts/access/Ownable.sol\":1248:1253  owner */\n      tag_53\n        /* \"@openzeppelin/contracts/access/Ownable.sol\":1248:1255  owner() */\n      jump\t// in\n    tag_153:\n        /* \"@openzeppelin/contracts/access/Ownable.sol\":1248:1271  owner() == _msgSender() */\n      0xffffffffffffffffffffffffffffffffffffffff\n      and\n      eq\n        /* \"@openzeppelin/contracts/access/Ownable.sol\":1240:1308  require(owner() == _msgSender(), \"Ownable: caller is not the owner\") */\n      tag_154\n      jumpi\n      mload(0x40)\n      0x08c379a000000000000000000000000000000000000000000000000000000000\n      dup2\n      mstore\n      0x04\n      add\n      tag_155\n      swap1\n      tag_82\n      jump\t// in\n    tag_155:\n      mload(0x40)\n      dup1\n      swap2\n      sub\n      swap1\n      revert\n    tag_154:\n        /* \"contracts/staking.sol\":1086:1090  true */\n      0x01\n        /* \"contracts/staking.sol\":1060:1071  validTokens */\n      dup1\n        /* \"contracts/staking.sol\":1060:1083  validTokens[_tokenAddr] */\n      0x00\n        /* \"contracts/staking.sol\":1072:1082  _tokenAddr */\n      dup4\n        /* \"contracts/staking.sol\":1060:1083  validTokens[_tokenAddr] */\n      0xffffffffffffffffffffffffffffffffffffffff\n      and\n      0xffffffffffffffffffffffffffffffffffffffff\n      and\n      dup2\n      mstore\n      0x20\n      add\n      swap1\n      dup2\n      mstore\n      0x20\n      add\n      0x00\n      keccak256\n      0x00\n        /* \"contracts/staking.sol\":1060:1090  validTokens[_tokenAddr] = true */\n      0x0100\n      exp\n      dup2\n      sload\n      dup2\n      0xff\n      mul\n      not\n      and\n      swap1\n      dup4\n      iszero\n      iszero\n      mul\n      or\n      swap1\n      sstore\n      pop\n        /* \"contracts/staking.sol\":995:1096  function addToken( address _tokenAddr) onlyOwner external {\r... */\n      pop\n      jump\t// out\n        /* \"contracts/staking.sol\":536:604  mapping (address => mapping(address => stakingInfo)) public StakeMap */\n    tag_64:\n      mstore(0x20, 0x02)\n      dup2\n      0x00\n      mstore\n      mstore(0x20, keccak256(0x00, 0x40))\n      dup1\n      0x00\n      mstore\n      keccak256(0x00, 0x40)\n      0x00\n      swap2\n      pop\n      swap2\n      pop\n      pop\n      dup1\n      0x00\n      add\n      sload\n      swap1\n      dup1\n      0x01\n      add\n      sload\n      swap1\n      dup1\n      0x02\n      add\n      sload\n      swap1\n      pop\n      dup4\n      jump\t// out\n        /* \"contracts/staking.sol\":463:507  mapping (address => bool) public validTokens */\n    tag_70:\n      mstore(0x20, 0x01)\n      dup1\n      0x00\n      mstore\n      keccak256(0x00, 0x40)\n      0x00\n      swap2\n      pop\n      sload\n      swap1\n      0x0100\n      exp\n      swap1\n      div\n      0xff\n      and\n      dup2\n      jump\t// out\n        /* \"@openzeppelin/contracts/access/Ownable.sol\":1918:2116  function transferOwnership(address newOwner) public virtual onlyOwner {... */\n    tag_75:\n        /* \"@openzeppelin/contracts/access/Ownable.sol\":1259:1271  _msgSender() */\n      tag_158\n        /* \"@openzeppelin/contracts/access/Ownable.sol\":1259:1269  _msgSender */\n      tag_78\n        /* \"@openzeppelin/contracts/access/Ownable.sol\":1259:1271  _msgSender() */\n      jump\t// in\n    tag_158:\n        /* \"@openzeppelin/contracts/access/Ownable.sol\":1248:1271  owner() == _msgSender() */\n      0xffffffffffffffffffffffffffffffffffffffff\n      and\n        /* \"@openzeppelin/contracts/access/Ownable.sol\":1248:1255  owner() */\n      tag_159\n        /* \"@openzeppelin/contracts/access/Ownable.sol\":1248:1253  owner */\n      tag_53\n        /* \"@openzeppelin/contracts/access/Ownable.sol\":1248:1255  owner() */\n      jump\t// in\n    tag_159:\n        /* \"@openzeppelin/contracts/access/Ownable.sol\":1248:1271  owner() == _msgSender() */\n      0xffffffffffffffffffffffffffffffffffffffff\n      and\n      eq\n        /* \"@openzeppelin/contracts/access/Ownable.sol\":1240:1308  require(owner() == _msgSender(), \"Ownable: caller is not the owner\") */\n      tag_160\n      jumpi\n      mload(0x40)\n      0x08c379a000000000000000000000000000000000000000000000000000000000\n      dup2\n      mstore\n      0x04\n      add\n      tag_161\n      swap1\n      tag_82\n      jump\t// in\n    tag_161:\n      mload(0x40)\n      dup1\n      swap2\n      sub\n      swap1\n      revert\n    tag_160:\n        /* \"@openzeppelin/contracts/access/Ownable.sol\":2026:2027  0 */\n      0x00\n        /* \"@openzeppelin/contracts/access/Ownable.sol\":2006:2028  newOwner != address(0) */\n      0xffffffffffffffffffffffffffffffffffffffff\n      and\n        /* \"@openzeppelin/contracts/access/Ownable.sol\":2006:2014  newOwner */\n      dup2\n        /* \"@openzeppelin/contracts/access/Ownable.sol\":2006:2028  newOwner != address(0) */\n      0xffffffffffffffffffffffffffffffffffffffff\n      and\n      eq\n      iszero\n        /* \"@openzeppelin/contracts/access/Ownable.sol\":1998:2071  require(newOwner != address(0), \"Ownable: new owner is the zero address\") */\n      tag_163\n      jumpi\n      mload(0x40)\n      0x08c379a000000000000000000000000000000000000000000000000000000000\n      dup2\n      mstore\n      0x04\n      add\n      tag_164\n      swap1\n      tag_165\n      jump\t// in\n    tag_164:\n      mload(0x40)\n      dup1\n      swap2\n      sub\n      swap1\n      revert\n    tag_163:\n        /* \"@openzeppelin/contracts/access/Ownable.sol\":2081:2109  _transferOwnership(newOwner) */\n      tag_166\n        /* \"@openzeppelin/contracts/access/Ownable.sol\":2100:2108  newOwner */\n      dup2\n        /* \"@openzeppelin/contracts/access/Ownable.sol\":2081:2099  _transferOwnership */\n      tag_129\n        /* \"@openzeppelin/contracts/access/Ownable.sol\":2081:2109  _transferOwnership(newOwner) */\n      jump\t// in\n    tag_166:\n        /* \"@openzeppelin/contracts/access/Ownable.sol\":1918:2116  function transferOwnership(address newOwner) public virtual onlyOwner {... */\n      pop\n      jump\t// out\n        /* \"@openzeppelin/contracts/utils/Context.sol\":640:736  function _msgSender() internal view virtual returns (address) {... */\n    tag_78:\n        /* \"@openzeppelin/contracts/utils/Context.sol\":693:700  address */\n      0x00\n        /* \"@openzeppelin/contracts/utils/Context.sol\":719:729  msg.sender */\n      caller\n        /* \"@openzeppelin/contracts/utils/Context.sol\":712:729  return msg.sender */\n      swap1\n      pop\n        /* \"@openzeppelin/contracts/utils/Context.sol\":640:736  function _msgSender() internal view virtual returns (address) {... */\n      swap1\n      jump\t// out\n        /* \"@openzeppelin/contracts/utils/math/SafeMath.sol\":2755:2851  function add(uint256 a, uint256 b) internal pure returns (uint256) {... */\n    tag_116:\n        /* \"@openzeppelin/contracts/utils/math/SafeMath.sol\":2813:2820  uint256 */\n      0x00\n        /* \"@openzeppelin/contracts/utils/math/SafeMath.sol\":2843:2844  b */\n      dup2\n        /* \"@openzeppelin/contracts/utils/math/SafeMath.sol\":2839:2840  a */\n      dup4\n        /* \"@openzeppelin/contracts/utils/math/SafeMath.sol\":2839:2844  a + b */\n      tag_169\n      swap2\n      swap1\n      tag_113\n      jump\t// in\n    tag_169:\n        /* \"@openzeppelin/contracts/utils/math/SafeMath.sol\":2832:2844  return a + b */\n      swap1\n      pop\n        /* \"@openzeppelin/contracts/utils/math/SafeMath.sol\":2755:2851  function add(uint256 a, uint256 b) internal pure returns (uint256) {... */\n      swap3\n      swap2\n      pop\n      pop\n      jump\t// out\n        /* \"@openzeppelin/contracts/access/Ownable.sol\":2270:2457  function _transferOwnership(address newOwner) internal virtual {... */\n    tag_129:\n        /* \"@openzeppelin/contracts/access/Ownable.sol\":2343:2359  address oldOwner */\n      0x00\n        /* \"@openzeppelin/contracts/access/Ownable.sol\":2362:2368  _owner */\n      dup1\n      0x00\n      swap1\n      sload\n      swap1\n      0x0100\n      exp\n      swap1\n      div\n      0xffffffffffffffffffffffffffffffffffffffff\n      and\n        /* \"@openzeppelin/contracts/access/Ownable.sol\":2343:2368  address oldOwner = _owner */\n      swap1\n      pop\n        /* \"@openzeppelin/contracts/access/Ownable.sol\":2387:2395  newOwner */\n      dup2\n        /* \"@openzeppelin/contracts/access/Ownable.sol\":2378:2384  _owner */\n      0x00\n      dup1\n        /* \"@openzeppelin/contracts/access/Ownable.sol\":2378:2395  _owner = newOwner */\n      0x0100\n      exp\n      dup2\n      sload\n      dup2\n      0xffffffffffffffffffffffffffffffffffffffff\n      mul\n      not\n      and\n      swap1\n      dup4\n      0xffffffffffffffffffffffffffffffffffffffff\n      and\n      mul\n      or\n      swap1\n      sstore\n      pop\n        /* \"@openzeppelin/contracts/access/Ownable.sol\":2441:2449  newOwner */\n      dup2\n        /* \"@openzeppelin/contracts/access/Ownable.sol\":2410:2450  OwnershipTransferred(oldOwner, newOwner) */\n      0xffffffffffffffffffffffffffffffffffffffff\n      and\n        /* \"@openzeppelin/contracts/access/Ownable.sol\":2431:2439  oldOwner */\n      dup2\n        /* \"@openzeppelin/contracts/access/Ownable.sol\":2410:2450  OwnershipTransferred(oldOwner, newOwner) */\n      0xffffffffffffffffffffffffffffffffffffffff\n      and\n      0x8be0079c531659141344cd1fd0a4f28419497f9722a3daafe3b4186f6b6457e0\n      mload(0x40)\n      mload(0x40)\n      dup1\n      swap2\n      sub\n      swap1\n      log3\n        /* \"@openzeppelin/contracts/access/Ownable.sol\":2333:2457  {... */\n      pop\n        /* \"@openzeppelin/contracts/access/Ownable.sol\":2270:2457  function _transferOwnership(address newOwner) internal virtual {... */\n      pop\n      jump\t// out\n        /* \"@openzeppelin/contracts/utils/math/SafeMath.sol\":3122:3218  function sub(uint256 a, uint256 b) internal pure returns (uint256) {... */\n    tag_147:\n        /* \"@openzeppelin/contracts/utils/math/SafeMath.sol\":3180:3187  uint256 */\n      0x00\n        /* \"@openzeppelin/contracts/utils/math/SafeMath.sol\":3210:3211  b */\n      dup2\n        /* \"@openzeppelin/contracts/utils/math/SafeMath.sol\":3206:3207  a */\n      dup4\n        /* \"@openzeppelin/contracts/utils/math/SafeMath.sol\":3206:3211  a - b */\n      tag_172\n      swap2\n      swap1\n      tag_173\n      jump\t// in\n    tag_172:\n        /* \"@openzeppelin/contracts/utils/math/SafeMath.sol\":3199:3211  return a - b */\n      swap1\n      pop\n        /* \"@openzeppelin/contracts/utils/math/SafeMath.sol\":3122:3218  function sub(uint256 a, uint256 b) internal pure returns (uint256) {... */\n      swap3\n      swap2\n      pop\n      pop\n      jump\t// out\n    tag_85:\n      mload(0x40)\n      dup1\n      0x60\n      add\n      0x40\n      mstore\n      dup1\n      0x00\n      dup2\n      mstore\n      0x20\n      add\n      0x00\n      dup2\n      mstore\n      0x20\n      add\n      0x00\n      dup2\n      mstore\n      pop\n      swap1\n      jump\t// out\n        /* \"#utility.yul\":7:146   */\n    tag_175:\n        /* \"#utility.yul\":53:58   */\n      0x00\n        /* \"#utility.yul\":91:97   */\n      dup2\n        /* \"#utility.yul\":78:98   */\n      calldataload\n        /* \"#utility.yul\":69:98   */\n      swap1\n      pop\n        /* \"#utility.yul\":107:140   */\n      tag_177\n        /* \"#utility.yul\":134:139   */\n      dup2\n        /* \"#utility.yul\":107:140   */\n      tag_178\n      jump\t// in\n    tag_177:\n        /* \"#utility.yul\":7:146   */\n      swap3\n      swap2\n      pop\n      pop\n      jump\t// out\n        /* \"#utility.yul\":152:289   */\n    tag_179:\n        /* \"#utility.yul\":206:211   */\n      0x00\n        /* \"#utility.yul\":237:243   */\n      dup2\n        /* \"#utility.yul\":231:244   */\n      mload\n        /* \"#utility.yul\":222:244   */\n      swap1\n      pop\n        /* \"#utility.yul\":253:283   */\n      tag_181\n        /* \"#utility.yul\":277:282   */\n      dup2\n        /* \"#utility.yul\":253:283   */\n      tag_182\n      jump\t// in\n    tag_181:\n        /* \"#utility.yul\":152:289   */\n      swap3\n      swap2\n      pop\n      pop\n      jump\t// out\n        /* \"#utility.yul\":295:434   */\n    tag_183:\n        /* \"#utility.yul\":341:346   */\n      0x00\n        /* \"#utility.yul\":379:385   */\n      dup2\n        /* \"#utility.yul\":366:386   */\n      calldataload\n        /* \"#utility.yul\":357:386   */\n      swap1\n      pop\n        /* \"#utility.yul\":395:428   */\n      tag_185\n        /* \"#utility.yul\":422:427   */\n      dup2\n        /* \"#utility.yul\":395:428   */\n      tag_186\n      jump\t// in\n    tag_185:\n        /* \"#utility.yul\":295:434   */\n      swap3\n      swap2\n      pop\n      pop\n      jump\t// out\n        /* \"#utility.yul\":440:583   */\n    tag_187:\n        /* \"#utility.yul\":497:502   */\n      0x00\n        /* \"#utility.yul\":528:534   */\n      dup2\n        /* \"#utility.yul\":522:535   */\n      mload\n        /* \"#utility.yul\":513:535   */\n      swap1\n      pop\n        /* \"#utility.yul\":544:577   */\n      tag_189\n        /* \"#utility.yul\":571:576   */\n      dup2\n        /* \"#utility.yul\":544:577   */\n      tag_186\n      jump\t// in\n    tag_189:\n        /* \"#utility.yul\":440:583   */\n      swap3\n      swap2\n      pop\n      pop\n      jump\t// out\n        /* \"#utility.yul\":589:918   */\n    tag_18:\n        /* \"#utility.yul\":648:654   */\n      0x00\n        /* \"#utility.yul\":697:699   */\n      0x20\n        /* \"#utility.yul\":685:694   */\n      dup3\n        /* \"#utility.yul\":676:683   */\n      dup5\n        /* \"#utility.yul\":672:695   */\n      sub\n        /* \"#utility.yul\":668:700   */\n      slt\n        /* \"#utility.yul\":665:784   */\n      iszero\n      tag_191\n      jumpi\n        /* \"#utility.yul\":703:782   */\n      tag_192\n      tag_193\n      jump\t// in\n    tag_192:\n        /* \"#utility.yul\":665:784   */\n    tag_191:\n        /* \"#utility.yul\":823:824   */\n      0x00\n        /* \"#utility.yul\":848:901   */\n      tag_194\n        /* \"#utility.yul\":893:900   */\n      dup5\n        /* \"#utility.yul\":884:890   */\n      dup3\n        /* \"#utility.yul\":873:882   */\n      dup6\n        /* \"#utility.yul\":869:891   */\n      add\n        /* \"#utility.yul\":848:901   */\n      tag_175\n      jump\t// in\n    tag_194:\n        /* \"#utility.yul\":838:901   */\n      swap2\n      pop\n        /* \"#utility.yul\":794:911   */\n      pop\n        /* \"#utility.yul\":589:918   */\n      swap3\n      swap2\n      pop\n      pop\n      jump\t// out\n        /* \"#utility.yul\":924:1398   */\n    tag_63:\n        /* \"#utility.yul\":992:998   */\n      0x00\n        /* \"#utility.yul\":1000:1006   */\n      dup1\n        /* \"#utility.yul\":1049:1051   */\n      0x40\n        /* \"#utility.yul\":1037:1046   */\n      dup4\n        /* \"#utility.yul\":1028:1035   */\n      dup6\n        /* \"#utility.yul\":1024:1047   */\n      sub\n        /* \"#utility.yul\":1020:1052   */\n      slt\n        /* \"#utility.yul\":1017:1136   */\n      iszero\n      tag_196\n      jumpi\n        /* \"#utility.yul\":1055:1134   */\n      tag_197\n      tag_193\n      jump\t// in\n    tag_197:\n        /* \"#utility.yul\":1017:1136   */\n    tag_196:\n        /* \"#utility.yul\":1175:1176   */\n      0x00\n        /* \"#utility.yul\":1200:1253   */\n      tag_198\n        /* \"#utility.yul\":1245:1252   */\n      dup6\n        /* \"#utility.yul\":1236:1242   */\n      dup3\n        /* \"#utility.yul\":1225:1234   */\n      dup7\n        /* \"#utility.yul\":1221:1243   */\n      add\n        /* \"#utility.yul\":1200:1253   */\n      tag_175\n      jump\t// in\n    tag_198:\n        /* \"#utility.yul\":1190:1253   */\n      swap3\n      pop\n        /* \"#utility.yul\":1146:1263   */\n      pop\n        /* \"#utility.yul\":1302:1304   */\n      0x20\n        /* \"#utility.yul\":1328:1381   */\n      tag_199\n        /* \"#utility.yul\":1373:1380   */\n      dup6\n        /* \"#utility.yul\":1364:1370   */\n      dup3\n        /* \"#utility.yul\":1353:1362   */\n      dup7\n        /* \"#utility.yul\":1349:1371   */\n      add\n        /* \"#utility.yul\":1328:1381   */\n      tag_175\n      jump\t// in\n    tag_199:\n        /* \"#utility.yul\":1318:1381   */\n      swap2\n      pop\n        /* \"#utility.yul\":1273:1391   */\n      pop\n        /* \"#utility.yul\":924:1398   */\n      swap3\n      pop\n      swap3\n      swap1\n      pop\n      jump\t// out\n        /* \"#utility.yul\":1404:1749   */\n    tag_107:\n        /* \"#utility.yul\":1471:1477   */\n      0x00\n        /* \"#utility.yul\":1520:1522   */\n      0x20\n        /* \"#utility.yul\":1508:1517   */\n      dup3\n        /* \"#utility.yul\":1499:1506   */\n      dup5\n        /* \"#utility.yul\":1495:1518   */\n      sub\n        /* \"#utility.yul\":1491:1523   */\n      slt\n        /* \"#utility.yul\":1488:1607   */\n      iszero\n      tag_201\n      jumpi\n        /* \"#utility.yul\":1526:1605   */\n      tag_202\n      tag_193\n      jump\t// in\n    tag_202:\n        /* \"#utility.yul\":1488:1607   */\n    tag_201:\n        /* \"#utility.yul\":1646:1647   */\n      0x00\n        /* \"#utility.yul\":1671:1732   */\n      tag_203\n        /* \"#utility.yul\":1724:1731   */\n      dup5\n        /* \"#utility.yul\":1715:1721   */\n      dup3\n        /* \"#utility.yul\":1704:1713   */\n      dup6\n        /* \"#utility.yul\":1700:1722   */\n      add\n        /* \"#utility.yul\":1671:1732   */\n      tag_179\n      jump\t// in\n    tag_203:\n        /* \"#utility.yul\":1661:1732   */\n      swap2\n      pop\n        /* \"#utility.yul\":1617:1742   */\n      pop\n        /* \"#utility.yul\":1404:1749   */\n      swap3\n      swap2\n      pop\n      pop\n      jump\t// out\n        /* \"#utility.yul\":1755:2106   */\n    tag_97:\n        /* \"#utility.yul\":1825:1831   */\n      0x00\n        /* \"#utility.yul\":1874:1876   */\n      0x20\n        /* \"#utility.yul\":1862:1871   */\n      dup3\n        /* \"#utility.yul\":1853:1860   */\n      dup5\n        /* \"#utility.yul\":1849:1872   */\n      sub\n        /* \"#utility.yul\":1845:1877   */\n      slt\n        /* \"#utility.yul\":1842:1961   */\n      iszero\n      tag_205\n      jumpi\n        /* \"#utility.yul\":1880:1959   */\n      tag_206\n      tag_193\n      jump\t// in\n    tag_206:\n        /* \"#utility.yul\":1842:1961   */\n    tag_205:\n        /* \"#utility.yul\":2000:2001   */\n      0x00\n        /* \"#utility.yul\":2025:2089   */\n      tag_207\n        /* \"#utility.yul\":2081:2088   */\n      dup5\n        /* \"#utility.yul\":2072:2078   */\n      dup3\n        /* \"#utility.yul\":2061:2070   */\n      dup6\n        /* \"#utility.yul\":2057:2079   */\n      add\n        /* \"#utility.yul\":2025:2089   */\n      tag_187\n      jump\t// in\n    tag_207:\n        /* \"#utility.yul\":2015:2089   */\n      swap2\n      pop\n        /* \"#utility.yul\":1971:2099   */\n      pop\n        /* \"#utility.yul\":1755:2106   */\n      swap3\n      swap2\n      pop\n      pop\n      jump\t// out\n        /* \"#utility.yul\":2112:2586   */\n    tag_48:\n        /* \"#utility.yul\":2180:2186   */\n      0x00\n        /* \"#utility.yul\":2188:2194   */\n      dup1\n        /* \"#utility.yul\":2237:2239   */\n      0x40\n        /* \"#utility.yul\":2225:2234   */\n      dup4\n        /* \"#utility.yul\":2216:2223   */\n      dup6\n        /* \"#utility.yul\":2212:2235   */\n      sub\n        /* \"#utility.yul\":2208:2240   */\n      slt\n        /* \"#utility.yul\":2205:2324   */\n      iszero\n      tag_209\n      jumpi\n        /* \"#utility.yul\":2243:2322   */\n      tag_210\n      tag_193\n      jump\t// in\n    tag_210:\n        /* \"#utility.yul\":2205:2324   */\n    tag_209:\n        /* \"#utility.yul\":2363:2364   */\n      0x00\n        /* \"#utility.yul\":2388:2441   */\n      tag_211\n        /* \"#utility.yul\":2433:2440   */\n      dup6\n        /* \"#utility.yul\":2424:2430   */\n      dup3\n        /* \"#utility.yul\":2413:2422   */\n      dup7\n        /* \"#utility.yul\":2409:2431   */\n      add\n        /* \"#utility.yul\":2388:2441   */\n      tag_183\n      jump\t// in\n    tag_211:\n        /* \"#utility.yul\":2378:2441   */\n      swap3\n      pop\n        /* \"#utility.yul\":2334:2451   */\n      pop\n        /* \"#utility.yul\":2490:2492   */\n      0x20\n        /* \"#utility.yul\":2516:2569   */\n      tag_212\n        /* \"#utility.yul\":2561:2568   */\n      dup6\n        /* \"#utility.yul\":2552:2558   */\n      dup3\n        /* \"#utility.yul\":2541:2550   */\n      dup7\n        /* \"#utility.yul\":2537:2559   */\n      add\n        /* \"#utility.yul\":2516:2569   */\n      tag_175\n      jump\t// in\n    tag_212:\n        /* \"#utility.yul\":2506:2569   */\n      swap2\n      pop\n        /* \"#utility.yul\":2461:2579   */\n      pop\n        /* \"#utility.yul\":2112:2586   */\n      swap3\n      pop\n      swap3\n      swap1\n      pop\n      jump\t// out\n        /* \"#utility.yul\":2592:3211   */\n    tag_34:\n        /* \"#utility.yul\":2669:2675   */\n      0x00\n        /* \"#utility.yul\":2677:2683   */\n      dup1\n        /* \"#utility.yul\":2685:2691   */\n      0x00\n        /* \"#utility.yul\":2734:2736   */\n      0x60\n        /* \"#utility.yul\":2722:2731   */\n      dup5\n        /* \"#utility.yul\":2713:2720   */\n      dup7\n        /* \"#utility.yul\":2709:2732   */\n      sub\n        /* \"#utility.yul\":2705:2737   */\n      slt\n        /* \"#utility.yul\":2702:2821   */\n      iszero\n      tag_214\n      jumpi\n        /* \"#utility.yul\":2740:2819   */\n      tag_215\n      tag_193\n      jump\t// in\n    tag_215:\n        /* \"#utility.yul\":2702:2821   */\n    tag_214:\n        /* \"#utility.yul\":2860:2861   */\n      0x00\n        /* \"#utility.yul\":2885:2938   */\n      tag_216\n        /* \"#utility.yul\":2930:2937   */\n      dup7\n        /* \"#utility.yul\":2921:2927   */\n      dup3\n        /* \"#utility.yul\":2910:2919   */\n      dup8\n        /* \"#utility.yul\":2906:2928   */\n      add\n        /* \"#utility.yul\":2885:2938   */\n      tag_183\n      jump\t// in\n    tag_216:\n        /* \"#utility.yul\":2875:2938   */\n      swap4\n      pop\n        /* \"#utility.yul\":2831:2948   */\n      pop\n        /* \"#utility.yul\":2987:2989   */\n      0x20\n        /* \"#utility.yul\":3013:3066   */\n      tag_217\n        /* \"#utility.yul\":3058:3065   */\n      dup7\n        /* \"#utility.yul\":3049:3055   */\n      dup3\n        /* \"#utility.yul\":3038:3047   */\n      dup8\n        /* \"#utility.yul\":3034:3056   */\n      add\n        /* \"#utility.yul\":3013:3066   */\n      tag_175\n      jump\t// in\n    tag_217:\n        /* \"#utility.yul\":3003:3066   */\n      swap3\n      pop\n        /* \"#utility.yul\":2958:3076   */\n      pop\n        /* \"#utility.yul\":3115:3117   */\n      0x40\n        /* \"#utility.yul\":3141:3194   */\n      tag_218\n        /* \"#utility.yul\":3186:3193   */\n      dup7\n        /* \"#utility.yul\":3177:3183   */\n      dup3\n        /* \"#utility.yul\":3166:3175   */\n      dup8\n        /* \"#utility.yul\":3162:3184   */\n      add\n        /* \"#utility.yul\":3141:3194   */\n      tag_183\n      jump\t// in\n    tag_218:\n        /* \"#utility.yul\":3131:3194   */\n      swap2\n      pop\n        /* \"#utility.yul\":3086:3204   */\n      pop\n        /* \"#utility.yul\":2592:3211   */\n      swap3\n      pop\n      swap3\n      pop\n      swap3\n      jump\t// out\n        /* \"#utility.yul\":3217:3335   */\n    tag_219:\n        /* \"#utility.yul\":3304:3328   */\n      tag_221\n        /* \"#utility.yul\":3322:3327   */\n      dup2\n        /* \"#utility.yul\":3304:3328   */\n      tag_222\n      jump\t// in\n    tag_221:\n        /* \"#utility.yul\":3299:3302   */\n      dup3\n        /* \"#utility.yul\":3292:3329   */\n      mstore\n        /* \"#utility.yul\":3217:3335   */\n      pop\n      pop\n      jump\t// out\n        /* \"#utility.yul\":3341:3450   */\n    tag_223:\n        /* \"#utility.yul\":3422:3443   */\n      tag_225\n        /* \"#utility.yul\":3437:3442   */\n      dup2\n        /* \"#utility.yul\":3422:3443   */\n      tag_226\n      jump\t// in\n    tag_225:\n        /* \"#utility.yul\":3417:3420   */\n      dup3\n        /* \"#utility.yul\":3410:3444   */\n      mstore\n        /* \"#utility.yul\":3341:3450   */\n      pop\n      pop\n      jump\t// out\n        /* \"#utility.yul\":3456:3822   */\n    tag_227:\n        /* \"#utility.yul\":3598:3601   */\n      0x00\n        /* \"#utility.yul\":3619:3686   */\n      tag_229\n        /* \"#utility.yul\":3683:3685   */\n      0x26\n        /* \"#utility.yul\":3678:3681   */\n      dup4\n        /* \"#utility.yul\":3619:3686   */\n      tag_230\n      jump\t// in\n    tag_229:\n        /* \"#utility.yul\":3612:3686   */\n      swap2\n      pop\n        /* \"#utility.yul\":3695:3788   */\n      tag_231\n        /* \"#utility.yul\":3784:3787   */\n      dup3\n        /* \"#utility.yul\":3695:3788   */\n      tag_232\n      jump\t// in\n    tag_231:\n        /* \"#utility.yul\":3813:3815   */\n      0x40\n        /* \"#utility.yul\":3808:3811   */\n      dup3\n        /* \"#utility.yul\":3804:3816   */\n      add\n        /* \"#utility.yul\":3797:3816   */\n      swap1\n      pop\n        /* \"#utility.yul\":3456:3822   */\n      swap2\n      swap1\n      pop\n      jump\t// out\n        /* \"#utility.yul\":3828:4194   */\n    tag_233:\n        /* \"#utility.yul\":3970:3973   */\n      0x00\n        /* \"#utility.yul\":3991:4058   */\n      tag_235\n        /* \"#utility.yul\":4055:4057   */\n      0x3f\n        /* \"#utility.yul\":4050:4053   */\n      dup4\n        /* \"#utility.yul\":3991:4058   */\n      tag_230\n      jump\t// in\n    tag_235:\n        /* \"#utility.yul\":3984:4058   */\n      swap2\n      pop\n        /* \"#utility.yul\":4067:4160   */\n      tag_236\n        /* \"#utility.yul\":4156:4159   */\n      dup3\n        /* \"#utility.yul\":4067:4160   */\n      tag_237\n      jump\t// in\n    tag_236:\n        /* \"#utility.yul\":4185:4187   */\n      0x40\n        /* \"#utility.yul\":4180:4183   */\n      dup3\n        /* \"#utility.yul\":4176:4188   */\n      add\n        /* \"#utility.yul\":4169:4188   */\n      swap1\n      pop\n        /* \"#utility.yul\":3828:4194   */\n      swap2\n      swap1\n      pop\n      jump\t// out\n        /* \"#utility.yul\":4200:4566   */\n    tag_238:\n        /* \"#utility.yul\":4342:4345   */\n      0x00\n        /* \"#utility.yul\":4363:4430   */\n      tag_240\n        /* \"#utility.yul\":4427:4429   */\n      0x40\n        /* \"#utility.yul\":4422:4425   */\n      dup4\n        /* \"#utility.yul\":4363:4430   */\n      tag_230\n      jump\t// in\n    tag_240:\n        /* \"#utility.yul\":4356:4430   */\n      swap2\n      pop\n        /* \"#utility.yul\":4439:4532   */\n      tag_241\n        /* \"#utility.yul\":4528:4531   */\n      dup3\n        /* \"#utility.yul\":4439:4532   */\n      tag_242\n      jump\t// in\n    tag_241:\n        /* \"#utility.yul\":4557:4559   */\n      0x40\n        /* \"#utility.yul\":4552:4555   */\n      dup3\n        /* \"#utility.yul\":4548:4560   */\n      add\n        /* \"#utility.yul\":4541:4560   */\n      swap1\n      pop\n        /* \"#utility.yul\":4200:4566   */\n      swap2\n      swap1\n      pop\n      jump\t// out\n        /* \"#utility.yul\":4572:4938   */\n    tag_243:\n        /* \"#utility.yul\":4714:4717   */\n      0x00\n        /* \"#utility.yul\":4735:4802   */\n      tag_245\n        /* \"#utility.yul\":4799:4801   */\n      0x20\n        /* \"#utility.yul\":4794:4797   */\n      dup4\n        /* \"#utility.yul\":4735:4802   */\n      tag_230\n      jump\t// in\n    tag_245:\n        /* \"#utility.yul\":4728:4802   */\n      swap2\n      pop\n        /* \"#utility.yul\":4811:4904   */\n      tag_246\n        /* \"#utility.yul\":4900:4903   */\n      dup3\n        /* \"#utility.yul\":4811:4904   */\n      tag_247\n      jump\t// in\n    tag_246:\n        /* \"#utility.yul\":4929:4931   */\n      0x20\n        /* \"#utility.yul\":4924:4927   */\n      dup3\n        /* \"#utility.yul\":4920:4932   */\n      add\n        /* \"#utility.yul\":4913:4932   */\n      swap1\n      pop\n        /* \"#utility.yul\":4572:4938   */\n      swap2\n      swap1\n      pop\n      jump\t// out\n        /* \"#utility.yul\":5008:5716   */\n    tag_248:\n        /* \"#utility.yul\":5161:5165   */\n      0x60\n        /* \"#utility.yul\":5156:5159   */\n      dup3\n        /* \"#utility.yul\":5152:5166   */\n      add\n        /* \"#utility.yul\":5250:5254   */\n      0x00\n        /* \"#utility.yul\":5243:5248   */\n      dup3\n        /* \"#utility.yul\":5239:5255   */\n      add\n        /* \"#utility.yul\":5233:5256   */\n      mload\n        /* \"#utility.yul\":5269:5332   */\n      tag_250\n        /* \"#utility.yul\":5326:5330   */\n      0x00\n        /* \"#utility.yul\":5321:5324   */\n      dup6\n        /* \"#utility.yul\":5317:5331   */\n      add\n        /* \"#utility.yul\":5303:5315   */\n      dup3\n        /* \"#utility.yul\":5269:5332   */\n      tag_251\n      jump\t// in\n    tag_250:\n        /* \"#utility.yul\":5176:5342   */\n      pop\n        /* \"#utility.yul\":5436:5440   */\n      0x20\n        /* \"#utility.yul\":5429:5434   */\n      dup3\n        /* \"#utility.yul\":5425:5441   */\n      add\n        /* \"#utility.yul\":5419:5442   */\n      mload\n        /* \"#utility.yul\":5455:5518   */\n      tag_252\n        /* \"#utility.yul\":5512:5516   */\n      0x20\n        /* \"#utility.yul\":5507:5510   */\n      dup6\n        /* \"#utility.yul\":5503:5517   */\n      add\n        /* \"#utility.yul\":5489:5501   */\n      dup3\n        /* \"#utility.yul\":5455:5518   */\n      tag_251\n      jump\t// in\n    tag_252:\n        /* \"#utility.yul\":5352:5528   */\n      pop\n        /* \"#utility.yul\":5617:5621   */\n      0x40\n        /* \"#utility.yul\":5610:5615   */\n      dup3\n        /* \"#utility.yul\":5606:5622   */\n      add\n        /* \"#utility.yul\":5600:5623   */\n      mload\n        /* \"#utility.yul\":5636:5699   */\n      tag_253\n        /* \"#utility.yul\":5693:5697   */\n      0x40\n        /* \"#utility.yul\":5688:5691   */\n      dup6\n        /* \"#utility.yul\":5684:5698   */\n      add\n        /* \"#utility.yul\":5670:5682   */\n      dup3\n        /* \"#utility.yul\":5636:5699   */\n      tag_251\n      jump\t// in\n    tag_253:\n        /* \"#utility.yul\":5538:5709   */\n      pop\n        /* \"#utility.yul\":5130:5716   */\n      pop\n        /* \"#utility.yul\":5008:5716   */\n      pop\n      pop\n      jump\t// out\n        /* \"#utility.yul\":5722:5830   */\n    tag_251:\n        /* \"#utility.yul\":5799:5823   */\n      tag_255\n        /* \"#utility.yul\":5817:5822   */\n      dup2\n        /* \"#utility.yul\":5799:5823   */\n      tag_256\n      jump\t// in\n    tag_255:\n        /* \"#utility.yul\":5794:5797   */\n      dup3\n        /* \"#utility.yul\":5787:5824   */\n      mstore\n        /* \"#utility.yul\":5722:5830   */\n      pop\n      pop\n      jump\t// out\n        /* \"#utility.yul\":5836:5954   */\n    tag_257:\n        /* \"#utility.yul\":5923:5947   */\n      tag_259\n        /* \"#utility.yul\":5941:5946   */\n      dup2\n        /* \"#utility.yul\":5923:5947   */\n      tag_256\n      jump\t// in\n    tag_259:\n        /* \"#utility.yul\":5918:5921   */\n      dup3\n        /* \"#utility.yul\":5911:5948   */\n      mstore\n        /* \"#utility.yul\":5836:5954   */\n      pop\n      pop\n      jump\t// out\n        /* \"#utility.yul\":5960:6182   */\n    tag_55:\n        /* \"#utility.yul\":6053:6057   */\n      0x00\n        /* \"#utility.yul\":6091:6093   */\n      0x20\n        /* \"#utility.yul\":6080:6089   */\n      dup3\n        /* \"#utility.yul\":6076:6094   */\n      add\n        /* \"#utility.yul\":6068:6094   */\n      swap1\n      pop\n        /* \"#utility.yul\":6104:6175   */\n      tag_261\n        /* \"#utility.yul\":6172:6173   */\n      0x00\n        /* \"#utility.yul\":6161:6170   */\n      dup4\n        /* \"#utility.yul\":6157:6174   */\n      add\n        /* \"#utility.yul\":6148:6154   */\n      dup5\n        /* \"#utility.yul\":6104:6175   */\n      tag_219\n      jump\t// in\n    tag_261:\n        /* \"#utility.yul\":5960:6182   */\n      swap3\n      swap2\n      pop\n      pop\n      jump\t// out\n        /* \"#utility.yul\":6188:6630   */\n    tag_102:\n        /* \"#utility.yul\":6337:6341   */\n      0x00\n        /* \"#utility.yul\":6375:6377   */\n      0x60\n        /* \"#utility.yul\":6364:6373   */\n      dup3\n        /* \"#utility.yul\":6360:6378   */\n      add\n        /* \"#utility.yul\":6352:6378   */\n      swap1\n      pop\n        /* \"#utility.yul\":6388:6459   */\n      tag_263\n        /* \"#utility.yul\":6456:6457   */\n      0x00\n        /* \"#utility.yul\":6445:6454   */\n      dup4\n        /* \"#utility.yul\":6441:6458   */\n      add\n        /* \"#utility.yul\":6432:6438   */\n      dup7\n        /* \"#utility.yul\":6388:6459   */\n      tag_219\n      jump\t// in\n    tag_263:\n        /* \"#utility.yul\":6469:6541   */\n      tag_264\n        /* \"#utility.yul\":6537:6539   */\n      0x20\n        /* \"#utility.yul\":6526:6535   */\n      dup4\n        /* \"#utility.yul\":6522:6540   */\n      add\n        /* \"#utility.yul\":6513:6519   */\n      dup6\n        /* \"#utility.yul\":6469:6541   */\n      tag_219\n      jump\t// in\n    tag_264:\n        /* \"#utility.yul\":6551:6623   */\n      tag_265\n        /* \"#utility.yul\":6619:6621   */\n      0x40\n        /* \"#utility.yul\":6608:6617   */\n      dup4\n        /* \"#utility.yul\":6604:6622   */\n      add\n        /* \"#utility.yul\":6595:6601   */\n      dup5\n        /* \"#utility.yul\":6551:6623   */\n      tag_257\n      jump\t// in\n    tag_265:\n        /* \"#utility.yul\":6188:6630   */\n      swap5\n      swap4\n      pop\n      pop\n      pop\n      pop\n      jump\t// out\n        /* \"#utility.yul\":6636:6968   */\n    tag_121:\n        /* \"#utility.yul\":6757:6761   */\n      0x00\n        /* \"#utility.yul\":6795:6797   */\n      0x40\n        /* \"#utility.yul\":6784:6793   */\n      dup3\n        /* \"#utility.yul\":6780:6798   */\n      add\n        /* \"#utility.yul\":6772:6798   */\n      swap1\n      pop\n        /* \"#utility.yul\":6808:6879   */\n      tag_267\n        /* \"#utility.yul\":6876:6877   */\n      0x00\n        /* \"#utility.yul\":6865:6874   */\n      dup4\n        /* \"#utility.yul\":6861:6878   */\n      add\n        /* \"#utility.yul\":6852:6858   */\n      dup6\n        /* \"#utility.yul\":6808:6879   */\n      tag_219\n      jump\t// in\n    tag_267:\n        /* \"#utility.yul\":6889:6961   */\n      tag_268\n        /* \"#utility.yul\":6957:6959   */\n      0x20\n        /* \"#utility.yul\":6946:6955   */\n      dup4\n        /* \"#utility.yul\":6942:6960   */\n      add\n        /* \"#utility.yul\":6933:6939   */\n      dup5\n        /* \"#utility.yul\":6889:6961   */\n      tag_257\n      jump\t// in\n    tag_268:\n        /* \"#utility.yul\":6636:6968   */\n      swap4\n      swap3\n      pop\n      pop\n      pop\n      jump\t// out\n        /* \"#utility.yul\":6974:7184   */\n    tag_37:\n        /* \"#utility.yul\":7061:7065   */\n      0x00\n        /* \"#utility.yul\":7099:7101   */\n      0x20\n        /* \"#utility.yul\":7088:7097   */\n      dup3\n        /* \"#utility.yul\":7084:7102   */\n      add\n        /* \"#utility.yul\":7076:7102   */\n      swap1\n      pop\n        /* \"#utility.yul\":7112:7177   */\n      tag_270\n        /* \"#utility.yul\":7174:7175   */\n      0x00\n        /* \"#utility.yul\":7163:7172   */\n      dup4\n        /* \"#utility.yul\":7159:7176   */\n      add\n        /* \"#utility.yul\":7150:7156   */\n      dup5\n        /* \"#utility.yul\":7112:7177   */\n      tag_223\n      jump\t// in\n    tag_270:\n        /* \"#utility.yul\":6974:7184   */\n      swap3\n      swap2\n      pop\n      pop\n      jump\t// out\n        /* \"#utility.yul\":7190:7609   */\n    tag_165:\n        /* \"#utility.yul\":7356:7360   */\n      0x00\n        /* \"#utility.yul\":7394:7396   */\n      0x20\n        /* \"#utility.yul\":7383:7392   */\n      dup3\n        /* \"#utility.yul\":7379:7397   */\n      add\n        /* \"#utility.yul\":7371:7397   */\n      swap1\n      pop\n        /* \"#utility.yul\":7443:7452   */\n      dup2\n        /* \"#utility.yul\":7437:7441   */\n      dup2\n        /* \"#utility.yul\":7433:7453   */\n      sub\n        /* \"#utility.yul\":7429:7430   */\n      0x00\n        /* \"#utility.yul\":7418:7427   */\n      dup4\n        /* \"#utility.yul\":7414:7431   */\n      add\n        /* \"#utility.yul\":7407:7454   */\n      mstore\n        /* \"#utility.yul\":7471:7602   */\n      tag_272\n        /* \"#utility.yul\":7597:7601   */\n      dup2\n        /* \"#utility.yul\":7471:7602   */\n      tag_227\n      jump\t// in\n    tag_272:\n        /* \"#utility.yul\":7463:7602   */\n      swap1\n      pop\n        /* \"#utility.yul\":7190:7609   */\n      swap2\n      swap1\n      pop\n      jump\t// out\n        /* \"#utility.yul\":7615:8034   */\n    tag_139:\n        /* \"#utility.yul\":7781:7785   */\n      0x00\n        /* \"#utility.yul\":7819:7821   */\n      0x20\n        /* \"#utility.yul\":7808:7817   */\n      dup3\n        /* \"#utility.yul\":7804:7822   */\n      add\n        /* \"#utility.yul\":7796:7822   */\n      swap1\n      pop\n        /* \"#utility.yul\":7868:7877   */\n      dup2\n        /* \"#utility.yul\":7862:7866   */\n      dup2\n        /* \"#utility.yul\":7858:7878   */\n      sub\n        /* \"#utility.yul\":7854:7855   */\n      0x00\n        /* \"#utility.yul\":7843:7852   */\n      dup4\n        /* \"#utility.yul\":7839:7856   */\n      add\n        /* \"#utility.yul\":7832:7879   */\n      mstore\n        /* \"#utility.yul\":7896:8027   */\n      tag_274\n        /* \"#utility.yul\":8022:8026   */\n      dup2\n        /* \"#utility.yul\":7896:8027   */\n      tag_233\n      jump\t// in\n    tag_274:\n        /* \"#utility.yul\":7888:8027   */\n      swap1\n      pop\n        /* \"#utility.yul\":7615:8034   */\n      swap2\n      swap1\n      pop\n      jump\t// out\n        /* \"#utility.yul\":8040:8459   */\n    tag_100:\n        /* \"#utility.yul\":8206:8210   */\n      0x00\n        /* \"#utility.yul\":8244:8246   */\n      0x20\n        /* \"#utility.yul\":8233:8242   */\n      dup3\n        /* \"#utility.yul\":8229:8247   */\n      add\n        /* \"#utility.yul\":8221:8247   */\n      swap1\n      pop\n        /* \"#utility.yul\":8293:8302   */\n      dup2\n        /* \"#utility.yul\":8287:8291   */\n      dup2\n        /* \"#utility.yul\":8283:8303   */\n      sub\n        /* \"#utility.yul\":8279:8280   */\n      0x00\n        /* \"#utility.yul\":8268:8277   */\n      dup4\n        /* \"#utility.yul\":8264:8281   */\n      add\n        /* \"#utility.yul\":8257:8304   */\n      mstore\n        /* \"#utility.yul\":8321:8452   */\n      tag_276\n        /* \"#utility.yul\":8447:8451   */\n      dup2\n        /* \"#utility.yul\":8321:8452   */\n      tag_238\n      jump\t// in\n    tag_276:\n        /* \"#utility.yul\":8313:8452   */\n      swap1\n      pop\n        /* \"#utility.yul\":8040:8459   */\n      swap2\n      swap1\n      pop\n      jump\t// out\n        /* \"#utility.yul\":8465:8884   */\n    tag_82:\n        /* \"#utility.yul\":8631:8635   */\n      0x00\n        /* \"#utility.yul\":8669:8671   */\n      0x20\n        /* \"#utility.yul\":8658:8667   */\n      dup3\n        /* \"#utility.yul\":8654:8672   */\n      add\n        /* \"#utility.yul\":8646:8672   */\n      swap1\n      pop\n        /* \"#utility.yul\":8718:8727   */\n      dup2\n        /* \"#utility.yul\":8712:8716   */\n      dup2\n        /* \"#utility.yul\":8708:8728   */\n      sub\n        /* \"#utility.yul\":8704:8705   */\n      0x00\n        /* \"#utility.yul\":8693:8702   */\n      dup4\n        /* \"#utility.yul\":8689:8706   */\n      add\n        /* \"#utility.yul\":8682:8729   */\n      mstore\n        /* \"#utility.yul\":8746:8877   */\n      tag_278\n        /* \"#utility.yul\":8872:8876   */\n      dup2\n        /* \"#utility.yul\":8746:8877   */\n      tag_243\n      jump\t// in\n    tag_278:\n        /* \"#utility.yul\":8738:8877   */\n      swap1\n      pop\n        /* \"#utility.yul\":8465:8884   */\n      swap2\n      swap1\n      pop\n      jump\t// out\n        /* \"#utility.yul\":8890:9224   */\n    tag_31:\n        /* \"#utility.yul\":9039:9043   */\n      0x00\n        /* \"#utility.yul\":9077:9079   */\n      0x60\n        /* \"#utility.yul\":9066:9075   */\n      dup3\n        /* \"#utility.yul\":9062:9080   */\n      add\n        /* \"#utility.yul\":9054:9080   */\n      swap1\n      pop\n        /* \"#utility.yul\":9090:9217   */\n      tag_280\n        /* \"#utility.yul\":9214:9215   */\n      0x00\n        /* \"#utility.yul\":9203:9212   */\n      dup4\n        /* \"#utility.yul\":9199:9216   */\n      add\n        /* \"#utility.yul\":9190:9196   */\n      dup5\n        /* \"#utility.yul\":9090:9217   */\n      tag_248\n      jump\t// in\n    tag_280:\n        /* \"#utility.yul\":8890:9224   */\n      swap3\n      swap2\n      pop\n      pop\n      jump\t// out\n        /* \"#utility.yul\":9230:9452   */\n    tag_21:\n        /* \"#utility.yul\":9323:9327   */\n      0x00\n        /* \"#utility.yul\":9361:9363   */\n      0x20\n        /* \"#utility.yul\":9350:9359   */\n      dup3\n        /* \"#utility.yul\":9346:9364   */\n      add\n        /* \"#utility.yul\":9338:9364   */\n      swap1\n      pop\n        /* \"#utility.yul\":9374:9445   */\n      tag_282\n        /* \"#utility.yul\":9442:9443   */\n      0x00\n        /* \"#utility.yul\":9431:9440   */\n      dup4\n        /* \"#utility.yul\":9427:9444   */\n      add\n        /* \"#utility.yul\":9418:9424   */\n      dup5\n        /* \"#utility.yul\":9374:9445   */\n      tag_257\n      jump\t// in\n    tag_282:\n        /* \"#utility.yul\":9230:9452   */\n      swap3\n      swap2\n      pop\n      pop\n      jump\t// out\n        /* \"#utility.yul\":9458:9900   */\n    tag_66:\n        /* \"#utility.yul\":9607:9611   */\n      0x00\n        /* \"#utility.yul\":9645:9647   */\n      0x60\n        /* \"#utility.yul\":9634:9643   */\n      dup3\n        /* \"#utility.yul\":9630:9648   */\n      add\n        /* \"#utility.yul\":9622:9648   */\n      swap1\n      pop\n        /* \"#utility.yul\":9658:9729   */\n      tag_284\n        /* \"#utility.yul\":9726:9727   */\n      0x00\n        /* \"#utility.yul\":9715:9724   */\n      dup4\n        /* \"#utility.yul\":9711:9728   */\n      add\n        /* \"#utility.yul\":9702:9708   */\n      dup7\n        /* \"#utility.yul\":9658:9729   */\n      tag_257\n      jump\t// in\n    tag_284:\n        /* \"#utility.yul\":9739:9811   */\n      tag_285\n        /* \"#utility.yul\":9807:9809   */\n      0x20\n        /* \"#utility.yul\":9796:9805   */\n      dup4\n        /* \"#utility.yul\":9792:9810   */\n      add\n        /* \"#utility.yul\":9783:9789   */\n      dup6\n        /* \"#utility.yul\":9739:9811   */\n      tag_257\n      jump\t// in\n    tag_285:\n        /* \"#utility.yul\":9821:9893   */\n      tag_286\n        /* \"#utility.yul\":9889:9891   */\n      0x40\n        /* \"#utility.yul\":9878:9887   */\n      dup4\n        /* \"#utility.yul\":9874:9892   */\n      add\n        /* \"#utility.yul\":9865:9871   */\n      dup5\n        /* \"#utility.yul\":9821:9893   */\n      tag_257\n      jump\t// in\n    tag_286:\n        /* \"#utility.yul\":9458:9900   */\n      swap5\n      swap4\n      pop\n      pop\n      pop\n      pop\n      jump\t// out\n        /* \"#utility.yul\":9987:10156   */\n    tag_230:\n        /* \"#utility.yul\":10071:10082   */\n      0x00\n        /* \"#utility.yul\":10105:10111   */\n      dup3\n        /* \"#utility.yul\":10100:10103   */\n      dup3\n        /* \"#utility.yul\":10093:10112   */\n      mstore\n        /* \"#utility.yul\":10145:10149   */\n      0x20\n        /* \"#utility.yul\":10140:10143   */\n      dup3\n        /* \"#utility.yul\":10136:10150   */\n      add\n        /* \"#utility.yul\":10121:10150   */\n      swap1\n      pop\n        /* \"#utility.yul\":9987:10156   */\n      swap3\n      swap2\n      pop\n      pop\n      jump\t// out\n        /* \"#utility.yul\":10162:10467   */\n    tag_113:\n        /* \"#utility.yul\":10202:10205   */\n      0x00\n        /* \"#utility.yul\":10221:10241   */\n      tag_291\n        /* \"#utility.yul\":10239:10240   */\n      dup3\n        /* \"#utility.yul\":10221:10241   */\n      tag_256\n      jump\t// in\n    tag_291:\n        /* \"#utility.yul\":10216:10241   */\n      swap2\n      pop\n        /* \"#utility.yul\":10255:10275   */\n      tag_292\n        /* \"#utility.yul\":10273:10274   */\n      dup4\n        /* \"#utility.yul\":10255:10275   */\n      tag_256\n      jump\t// in\n    tag_292:\n        /* \"#utility.yul\":10250:10275   */\n      swap3\n      pop\n        /* \"#utility.yul\":10409:10410   */\n      dup3\n        /* \"#utility.yul\":10341:10407   */\n      0xffffffffffffffffffffffffffffffffffffffffffffffffffffffffffffffff\n        /* \"#utility.yul\":10337:10411   */\n      sub\n        /* \"#utility.yul\":10334:10335   */\n      dup3\n        /* \"#utility.yul\":10331:10412   */\n      gt\n        /* \"#utility.yul\":10328:10435   */\n      iszero\n      tag_293\n      jumpi\n        /* \"#utility.yul\":10415:10433   */\n      tag_294\n      tag_295\n      jump\t// in\n    tag_294:\n        /* \"#utility.yul\":10328:10435   */\n    tag_293:\n        /* \"#utility.yul\":10459:10460   */\n      dup3\n        /* \"#utility.yul\":10456:10457   */\n      dup3\n        /* \"#utility.yul\":10452:10461   */\n      add\n        /* \"#utility.yul\":10445:10461   */\n      swap1\n      pop\n        /* \"#utility.yul\":10162:10467   */\n      swap3\n      swap2\n      pop\n      pop\n      jump\t// out\n        /* \"#utility.yul\":10473:10821   */\n    tag_111:\n        /* \"#utility.yul\":10513:10520   */\n      0x00\n        /* \"#utility.yul\":10536:10556   */\n      tag_297\n        /* \"#utility.yul\":10554:10555   */\n      dup3\n        /* \"#utility.yul\":10536:10556   */\n      tag_256\n      jump\t// in\n    tag_297:\n        /* \"#utility.yul\":10531:10556   */\n      swap2\n      pop\n        /* \"#utility.yul\":10570:10590   */\n      tag_298\n        /* \"#utility.yul\":10588:10589   */\n      dup4\n        /* \"#utility.yul\":10570:10590   */\n      tag_256\n      jump\t// in\n    tag_298:\n        /* \"#utility.yul\":10565:10590   */\n      swap3\n      pop\n        /* \"#utility.yul\":10758:10759   */\n      dup2\n        /* \"#utility.yul\":10690:10756   */\n      0xffffffffffffffffffffffffffffffffffffffffffffffffffffffffffffffff\n        /* \"#utility.yul\":10686:10760   */\n      div\n        /* \"#utility.yul\":10683:10684   */\n      dup4\n        /* \"#utility.yul\":10680:10761   */\n      gt\n        /* \"#utility.yul\":10675:10676   */\n      dup3\n        /* \"#utility.yul\":10668:10677   */\n      iszero\n        /* \"#utility.yul\":10661:10678   */\n      iszero\n        /* \"#utility.yul\":10657:10762   */\n      and\n        /* \"#utility.yul\":10654:10785   */\n      iszero\n      tag_299\n      jumpi\n        /* \"#utility.yul\":10765:10783   */\n      tag_300\n      tag_295\n      jump\t// in\n    tag_300:\n        /* \"#utility.yul\":10654:10785   */\n    tag_299:\n        /* \"#utility.yul\":10813:10814   */\n      dup3\n        /* \"#utility.yul\":10810:10811   */\n      dup3\n        /* \"#utility.yul\":10806:10815   */\n      mul\n        /* \"#utility.yul\":10795:10815   */\n      swap1\n      pop\n        /* \"#utility.yul\":10473:10821   */\n      swap3\n      swap2\n      pop\n      pop\n      jump\t// out\n        /* \"#utility.yul\":10827:11018   */\n    tag_173:\n        /* \"#utility.yul\":10867:10871   */\n      0x00\n        /* \"#utility.yul\":10887:10907   */\n      tag_302\n        /* \"#utility.yul\":10905:10906   */\n      dup3\n        /* \"#utility.yul\":10887:10907   */\n      tag_256\n      jump\t// in\n    tag_302:\n        /* \"#utility.yul\":10882:10907   */\n      swap2\n      pop\n        /* \"#utility.yul\":10921:10941   */\n      tag_303\n        /* \"#utility.yul\":10939:10940   */\n      dup4\n        /* \"#utility.yul\":10921:10941   */\n      tag_256\n      jump\t// in\n    tag_303:\n        /* \"#utility.yul\":10916:10941   */\n      swap3\n      pop\n        /* \"#utility.yul\":10960:10961   */\n      dup3\n        /* \"#utility.yul\":10957:10958   */\n      dup3\n        /* \"#utility.yul\":10954:10962   */\n      lt\n        /* \"#utility.yul\":10951:10985   */\n      iszero\n      tag_304\n      jumpi\n        /* \"#utility.yul\":10965:10983   */\n      tag_305\n      tag_295\n      jump\t// in\n    tag_305:\n        /* \"#utility.yul\":10951:10985   */\n    tag_304:\n        /* \"#utility.yul\":11010:11011   */\n      dup3\n        /* \"#utility.yul\":11007:11008   */\n      dup3\n        /* \"#utility.yul\":11003:11012   */\n      sub\n        /* \"#utility.yul\":10995:11012   */\n      swap1\n      pop\n        /* \"#utility.yul\":10827:11018   */\n      swap3\n      swap2\n      pop\n      pop\n      jump\t// out\n        /* \"#utility.yul\":11024:11120   */\n    tag_222:\n        /* \"#utility.yul\":11061:11068   */\n      0x00\n        /* \"#utility.yul\":11090:11114   */\n      tag_307\n        /* \"#utility.yul\":11108:11113   */\n      dup3\n        /* \"#utility.yul\":11090:11114   */\n      tag_308\n      jump\t// in\n    tag_307:\n        /* \"#utility.yul\":11079:11114   */\n      swap1\n      pop\n        /* \"#utility.yul\":11024:11120   */\n      swap2\n      swap1\n      pop\n      jump\t// out\n        /* \"#utility.yul\":11126:11216   */\n    tag_226:\n        /* \"#utility.yul\":11160:11167   */\n      0x00\n        /* \"#utility.yul\":11203:11208   */\n      dup2\n        /* \"#utility.yul\":11196:11209   */\n      iszero\n        /* \"#utility.yul\":11189:11210   */\n      iszero\n        /* \"#utility.yul\":11178:11210   */\n      swap1\n      pop\n        /* \"#utility.yul\":11126:11216   */\n      swap2\n      swap1\n      pop\n      jump\t// out\n        /* \"#utility.yul\":11222:11348   */\n    tag_308:\n        /* \"#utility.yul\":11259:11266   */\n      0x00\n        /* \"#utility.yul\":11299:11341   */\n      0xffffffffffffffffffffffffffffffffffffffff\n        /* \"#utility.yul\":11292:11297   */\n      dup3\n        /* \"#utility.yul\":11288:11342   */\n      and\n        /* \"#utility.yul\":11277:11342   */\n      swap1\n      pop\n        /* \"#utility.yul\":11222:11348   */\n      swap2\n      swap1\n      pop\n      jump\t// out\n        /* \"#utility.yul\":11354:11431   */\n    tag_256:\n        /* \"#utility.yul\":11391:11398   */\n      0x00\n        /* \"#utility.yul\":11420:11425   */\n      dup2\n        /* \"#utility.yul\":11409:11425   */\n      swap1\n      pop\n        /* \"#utility.yul\":11354:11431   */\n      swap2\n      swap1\n      pop\n      jump\t// out\n        /* \"#utility.yul\":11437:11617   */\n    tag_295:\n        /* \"#utility.yul\":11485:11562   */\n      0x4e487b7100000000000000000000000000000000000000000000000000000000\n        /* \"#utility.yul\":11482:11483   */\n      0x00\n        /* \"#utility.yul\":11475:11563   */\n      mstore\n        /* \"#utility.yul\":11582:11586   */\n      0x11\n        /* \"#utility.yul\":11579:11580   */\n      0x04\n        /* \"#utility.yul\":11572:11587   */\n      mstore\n        /* \"#utility.yul\":11606:11610   */\n      0x24\n        /* \"#utility.yul\":11603:11604   */\n      0x00\n        /* \"#utility.yul\":11596:11611   */\n      revert\n        /* \"#utility.yul\":11746:11863   */\n    tag_193:\n        /* \"#utility.yul\":11855:11856   */\n      0x00\n        /* \"#utility.yul\":11852:11853   */\n      dup1\n        /* \"#utility.yul\":11845:11857   */\n      revert\n        /* \"#utility.yul\":11869:12094   */\n    tag_232:\n        /* \"#utility.yul\":12009:12043   */\n      0x4f776e61626c653a206e6577206f776e657220697320746865207a65726f2061\n        /* \"#utility.yul\":12005:12006   */\n      0x00\n        /* \"#utility.yul\":11997:12003   */\n      dup3\n        /* \"#utility.yul\":11993:12007   */\n      add\n        /* \"#utility.yul\":11986:12044   */\n      mstore\n        /* \"#utility.yul\":12078:12086   */\n      0x6464726573730000000000000000000000000000000000000000000000000000\n        /* \"#utility.yul\":12073:12075   */\n      0x20\n        /* \"#utility.yul\":12065:12071   */\n      dup3\n        /* \"#utility.yul\":12061:12076   */\n      add\n        /* \"#utility.yul\":12054:12087   */\n      mstore\n        /* \"#utility.yul\":11869:12094   */\n      pop\n      jump\t// out\n        /* \"#utility.yul\":12100:12350   */\n    tag_237:\n        /* \"#utility.yul\":12240:12274   */\n      0x546f6b656e7320617265206f6e6c7920617661696c61626c6520616674657220\n        /* \"#utility.yul\":12236:12237   */\n      0x00\n        /* \"#utility.yul\":12228:12234   */\n      dup3\n        /* \"#utility.yul\":12224:12238   */\n      add\n        /* \"#utility.yul\":12217:12275   */\n      mstore\n        /* \"#utility.yul\":12309:12342   */\n      0x636f72726563742074696d6520706572696f642068617320656c617073656400\n        /* \"#utility.yul\":12304:12306   */\n      0x20\n        /* \"#utility.yul\":12296:12302   */\n      dup3\n        /* \"#utility.yul\":12292:12307   */\n      add\n        /* \"#utility.yul\":12285:12343   */\n      mstore\n        /* \"#utility.yul\":12100:12350   */\n      pop\n      jump\t// out\n        /* \"#utility.yul\":12356:12607   */\n    tag_242:\n        /* \"#utility.yul\":12496:12530   */\n      0x4e6f7420656e6f75676820535441544520746f6b656e7320696e20796f757220\n        /* \"#utility.yul\":12492:12493   */\n      0x00\n        /* \"#utility.yul\":12484:12490   */\n      dup3\n        /* \"#utility.yul\":12480:12494   */\n      add\n        /* \"#utility.yul\":12473:12531   */\n      mstore\n        /* \"#utility.yul\":12565:12599   */\n      0x77616c6c65742c20706c6561736520747279206c657373657220616d6f756e74\n        /* \"#utility.yul\":12560:12562   */\n      0x20\n        /* \"#utility.yul\":12552:12558   */\n      dup3\n        /* \"#utility.yul\":12548:12563   */\n      add\n        /* \"#utility.yul\":12541:12600   */\n      mstore\n        /* \"#utility.yul\":12356:12607   */\n      pop\n      jump\t// out\n        /* \"#utility.yul\":12613:12795   */\n    tag_247:\n        /* \"#utility.yul\":12753:12787   */\n      0x4f776e61626c653a2063616c6c6572206973206e6f7420746865206f776e6572\n        /* \"#utility.yul\":12749:12750   */\n      0x00\n        /* \"#utility.yul\":12741:12747   */\n      dup3\n        /* \"#utility.yul\":12737:12751   */\n      add\n        /* \"#utility.yul\":12730:12788   */\n      mstore\n        /* \"#utility.yul\":12613:12795   */\n      pop\n      jump\t// out\n        /* \"#utility.yul\":12801:12923   */\n    tag_178:\n        /* \"#utility.yul\":12874:12898   */\n      tag_321\n        /* \"#utility.yul\":12892:12897   */\n      dup2\n        /* \"#utility.yul\":12874:12898   */\n      tag_222\n      jump\t// in\n    tag_321:\n        /* \"#utility.yul\":12867:12872   */\n      dup2\n        /* \"#utility.yul\":12864:12899   */\n      eq\n        /* \"#utility.yul\":12854:12917   */\n      tag_322\n      jumpi\n        /* \"#utility.yul\":12913:12914   */\n      0x00\n        /* \"#utility.yul\":12910:12911   */\n      dup1\n        /* \"#utility.yul\":12903:12915   */\n      revert\n        /* \"#utility.yul\":12854:12917   */\n    tag_322:\n        /* \"#utility.yul\":12801:12923   */\n      pop\n      jump\t// out\n        /* \"#utility.yul\":12929:13045   */\n    tag_182:\n        /* \"#utility.yul\":12999:13020   */\n      tag_324\n        /* \"#utility.yul\":13014:13019   */\n      dup2\n        /* \"#utility.yul\":12999:13020   */\n      tag_226\n      jump\t// in\n    tag_324:\n        /* \"#utility.yul\":12992:12997   */\n      dup2\n        /* \"#utility.yul\":12989:13021   */\n      eq\n        /* \"#utility.yul\":12979:13039   */\n      tag_325\n      jumpi\n        /* \"#utility.yul\":13035:13036   */\n      0x00\n        /* \"#utility.yul\":13032:13033   */\n      dup1\n        /* \"#utility.yul\":13025:13037   */\n      revert\n        /* \"#utility.yul\":12979:13039   */\n    tag_325:\n        /* \"#utility.yul\":12929:13045   */\n      pop\n      jump\t// out\n        /* \"#utility.yul\":13051:13173   */\n    tag_186:\n        /* \"#utility.yul\":13124:13148   */\n      tag_327\n        /* \"#utility.yul\":13142:13147   */\n      dup2\n        /* \"#utility.yul\":13124:13148   */\n      tag_256\n      jump\t// in\n    tag_327:\n        /* \"#utility.yul\":13117:13122   */\n      dup2\n        /* \"#utility.yul\":13114:13149   */\n      eq\n        /* \"#utility.yul\":13104:13167   */\n      tag_328\n      jumpi\n        /* \"#utility.yul\":13163:13164   */\n      0x00\n        /* \"#utility.yul\":13160:13161   */\n      dup1\n        /* \"#utility.yul\":13153:13165   */\n      revert\n        /* \"#utility.yul\":13104:13167   */\n    tag_328:\n        /* \"#utility.yul\":13051:13173   */\n      pop\n      jump\t// out\n\n    auxdata: 0xa26469706673582212207625a176fe696cd0adb5a835b84eb3c394b5f4fac65df23fba79bec06e98b74564736f6c63430008070033\n}\n",
				"bytecode": {
					"linkReferences": {},
					"object": "608060405234801561001057600080fd5b5061002d61002261003260201b60201c565b61003a60201b60201c565b6100fe565b600033905090565b60008060009054906101000a900473ffffffffffffffffffffffffffffffffffffffff169050816000806101000a81548173ffffffffffffffffffffffffffffffffffffffff021916908373ffffffffffffffffffffffffffffffffffffffff1602179055508173ffffffffffffffffffffffffffffffffffffffff168173ffffffffffffffffffffffffffffffffffffffff167f8be0079c531659141344cd1fd0a4f28419497f9722a3daafe3b4186f6b6457e060405160405180910390a35050565b611ae58061010d6000396000f3fe6080604052600436106100a75760003560e01c80638381e182116100645780638381e182146101d35780638da5cb5b14610203578063d48bfca71461022e578063dcb4319114610257578063e12fb1b914610296578063f2fde38b146102d3576100a7565b80634302a2f2146100ac5780635fa7b584146100e95780636386c1c7146101125780636e9c931c1461014f578063715018a61461017f57806383374cab14610196575b600080fd5b3480156100b857600080fd5b506100d360048036038101906100ce91906113fc565b6102fc565b6040516100e09190611791565b60405180910390f35b3480156100f557600080fd5b50610110600480360381019061010b91906113fc565b610314565b005b34801561011e57600080fd5b50610139600480360381019061013491906113fc565b6103eb565b6040516101469190611776565b60405180910390f35b61016960048036038101906101649190611503565b6104f7565b60405161017691906116db565b60405180910390f35b34801561018b57600080fd5b50610194610aee565b005b3480156101a257600080fd5b506101bd60048036038101906101b891906113fc565b610b76565b6040516101ca9190611791565b60405180910390f35b6101ed60048036038101906101e891906114c3565b610c17565b6040516101fa91906116db565b60405180910390f35b34801561020f57600080fd5b50610218611041565b6040516102259190611660565b60405180910390f35b34801561023a57600080fd5b50610255600480360381019061025091906113fc565b61106a565b005b34801561026357600080fd5b5061027e60048036038101906102799190611429565b611140565b60405161028d939291906117ac565b60405180910390f35b3480156102a257600080fd5b506102bd60048036038101906102b891906113fc565b611177565b6040516102ca91906116db565b60405180910390f35b3480156102df57600080fd5b506102fa60048036038101906102f591906113fc565b611197565b005b60036020528060005260406000206000915090505481565b61031c61128f565b73ffffffffffffffffffffffffffffffffffffffff1661033a611041565b73ffffffffffffffffffffffffffffffffffffffff1614610390576040517f08c379a000000000000000000000000000000000000000000000000000000000815260040161038790611756565b60405180910390fd5b6000600160008373ffffffffffffffffffffffffffffffffffffffff1673ffffffffffffffffffffffffffffffffffffffff16815260200190815260200160002060006101000a81548160ff02191690831515021790555050565b6103f3611387565b81600160008273ffffffffffffffffffffffffffffffffffffffff1673ffffffffffffffffffffffffffffffffffffffff16815260200190815260200160002060009054906101000a900460ff1661044a57600080fd5b600260008473ffffffffffffffffffffffffffffffffffffffff1673ffffffffffffffffffffffffffffffffffffffff16815260200190815260200160002060003373ffffffffffffffffffffffffffffffffffffffff1673ffffffffffffffffffffffffffffffffffffffff1681526020019081526020016000206040518060600160405290816000820154815260200160018201548152602001600282015481525050915050919050565b600082600160008273ffffffffffffffffffffffffffffffffffffffff1673ffffffffffffffffffffffffffffffffffffffff16815260200190815260200160002060009054906101000a900460ff1661055057600080fd5b8373ffffffffffffffffffffffffffffffffffffffff166370a08231336040518263ffffffff1660e01b81526004016105899190611660565b60206040518083038186803b1580156105a157600080fd5b505afa1580156105b5573d6000803e3d6000fd5b505050506040513d601f19601f820116820180604052508101906105d99190611496565b85111561061b576040517f08c379a000000000000000000000000000000000000000000000000000000000815260040161061290611736565b60405180910390fd5b8373ffffffffffffffffffffffffffffffffffffffff166323b872dd3330886040518463ffffffff1660e01b81526004016106589392919061167b565b602060405180830381600087803b15801561067257600080fd5b505af1158015610686573d6000803e3d6000fd5b505050506040513d601f19601f820116820180604052508101906106aa9190611469565b6106b357600080fd5b6000600260008673ffffffffffffffffffffffffffffffffffffffff1673ffffffffffffffffffffffffffffffffffffffff16815260200190815260200160002060003373ffffffffffffffffffffffffffffffffffffffff1673ffffffffffffffffffffffffffffffffffffffff1681526020019081526020016000206000015414156108615784600260008673ffffffffffffffffffffffffffffffffffffffff1673ffffffffffffffffffffffffffffffffffffffff16815260200190815260200160002060003373ffffffffffffffffffffffffffffffffffffffff1673ffffffffffffffffffffffffffffffffffffffff1681526020019081526020016000206000018190555062015180836107ce919061184a565b426107d991906117f4565b600260008673ffffffffffffffffffffffffffffffffffffffff1673ffffffffffffffffffffffffffffffffffffffff16815260200190815260200160002060003373ffffffffffffffffffffffffffffffffffffffff1673ffffffffffffffffffffffffffffffffffffffff16815260200190815260200160002060020181905550610a14565b6108f385600260008773ffffffffffffffffffffffffffffffffffffffff1673ffffffffffffffffffffffffffffffffffffffff16815260200190815260200160002060003373ffffffffffffffffffffffffffffffffffffffff1673ffffffffffffffffffffffffffffffffffffffff1681526020019081526020016000206000015461129790919063ffffffff16565b600260008673ffffffffffffffffffffffffffffffffffffffff1673ffffffffffffffffffffffffffffffffffffffff16815260200190815260200160002060003373ffffffffffffffffffffffffffffffffffffffff1673ffffffffffffffffffffffffffffffffffffffff168152602001908152602001600020600001819055506201518083610985919061184a565b4261099091906117f4565b600260008673ffffffffffffffffffffffffffffffffffffffff1673ffffffffffffffffffffffffffffffffffffffff16815260200190815260200160002060003373ffffffffffffffffffffffffffffffffffffffff1673ffffffffffffffffffffffffffffffffffffffff168152602001908152602001600020600201819055505b610a6685600360008773ffffffffffffffffffffffffffffffffffffffff1673ffffffffffffffffffffffffffffffffffffffff1681526020019081526020016000205461129790919063ffffffff16565b600360008673ffffffffffffffffffffffffffffffffffffffff1673ffffffffffffffffffffffffffffffffffffffff168152602001908152602001600020819055507fe5cfeeb5fcb96c1c52a55137c15e7f46d34d100d256c5396efc087c43d2fde4b3386604051610ada9291906116b2565b60405180910390a160019150509392505050565b610af661128f565b73ffffffffffffffffffffffffffffffffffffffff16610b14611041565b73ffffffffffffffffffffffffffffffffffffffff1614610b6a576040517f08c379a0000000000000000000000000000000000000000000000000000000008152600401610b6190611756565b60405180910390fd5b610b7460006112ad565b565b600081600160008273ffffffffffffffffffffffffffffffffffffffff1673ffffffffffffffffffffffffffffffffffffffff16815260200190815260200160002060009054906101000a900460ff16610bcf57600080fd5b600360008473ffffffffffffffffffffffffffffffffffffffff1673ffffffffffffffffffffffffffffffffffffffff16815260200190815260200160002054915050919050565b600081600160008273ffffffffffffffffffffffffffffffffffffffff1673ffffffffffffffffffffffffffffffffffffffff16815260200190815260200160002060009054906101000a900460ff16610c7057600080fd5b6000600260008573ffffffffffffffffffffffffffffffffffffffff1673ffffffffffffffffffffffffffffffffffffffff16815260200190815260200160002060003373ffffffffffffffffffffffffffffffffffffffff1673ffffffffffffffffffffffffffffffffffffffff1681526020019081526020016000206000015411610cfc57600080fd5b600260008473ffffffffffffffffffffffffffffffffffffffff1673ffffffffffffffffffffffffffffffffffffffff16815260200190815260200160002060003373ffffffffffffffffffffffffffffffffffffffff1673ffffffffffffffffffffffffffffffffffffffff168152602001908152602001600020600201544211610dbd576040517f08c379a0000000000000000000000000000000000000000000000000000000008152600401610db490611716565b60405180910390fd5b8273ffffffffffffffffffffffffffffffffffffffff1663a9059cbb33866040518363ffffffff1660e01b8152600401610df89291906116b2565b602060405180830381600087803b158015610e1257600080fd5b505af1158015610e26573d6000803e3d6000fd5b505050506040513d601f19601f82011682018060405250810190610e4a9190611469565b610e5357600080fd5b610ea584600360008673ffffffffffffffffffffffffffffffffffffffff1673ffffffffffffffffffffffffffffffffffffffff1681526020019081526020016000205461137190919063ffffffff16565b600360008573ffffffffffffffffffffffffffffffffffffffff1673ffffffffffffffffffffffffffffffffffffffff16815260200190815260200160002081905550610f7a84600260008673ffffffffffffffffffffffffffffffffffffffff1673ffffffffffffffffffffffffffffffffffffffff16815260200190815260200160002060003373ffffffffffffffffffffffffffffffffffffffff1673ffffffffffffffffffffffffffffffffffffffff1681526020019081526020016000206001015461129790919063ffffffff16565b600260008573ffffffffffffffffffffffffffffffffffffffff1673ffffffffffffffffffffffffffffffffffffffff16815260200190815260200160002060003373ffffffffffffffffffffffffffffffffffffffff1673ffffffffffffffffffffffffffffffffffffffff168152602001908152602001600020600101819055507f9845e367b683334e5c0b12d7b81721ac518e649376fa65e3d68324e8f34f2679338560405161102e9291906116b2565b60405180910390a1600191505092915050565b60008060009054906101000a900473ffffffffffffffffffffffffffffffffffffffff16905090565b61107261128f565b73ffffffffffffffffffffffffffffffffffffffff16611090611041565b73ffffffffffffffffffffffffffffffffffffffff16146110e6576040517f08c379a00000000000000000000000000000000000000000000000000000000081526004016110dd90611756565b60405180910390fd5b60018060008373ffffffffffffffffffffffffffffffffffffffff1673ffffffffffffffffffffffffffffffffffffffff16815260200190815260200160002060006101000a81548160ff02191690831515021790555050565b6002602052816000526040600020602052806000526040600020600091509150508060000154908060010154908060020154905083565b60016020528060005260406000206000915054906101000a900460ff1681565b61119f61128f565b73ffffffffffffffffffffffffffffffffffffffff166111bd611041565b73ffffffffffffffffffffffffffffffffffffffff1614611213576040517f08c379a000000000000000000000000000000000000000000000000000000000815260040161120a90611756565b60405180910390fd5b600073ffffffffffffffffffffffffffffffffffffffff168173ffffffffffffffffffffffffffffffffffffffff161415611283576040517f08c379a000000000000000000000000000000000000000000000000000000000815260040161127a906116f6565b60405180910390fd5b61128c816112ad565b50565b600033905090565b600081836112a591906117f4565b905092915050565b60008060009054906101000a900473ffffffffffffffffffffffffffffffffffffffff169050816000806101000a81548173ffffffffffffffffffffffffffffffffffffffff021916908373ffffffffffffffffffffffffffffffffffffffff1602179055508173ffffffffffffffffffffffffffffffffffffffff168173ffffffffffffffffffffffffffffffffffffffff167f8be0079c531659141344cd1fd0a4f28419497f9722a3daafe3b4186f6b6457e060405160405180910390a35050565b6000818361137f91906118a4565b905092915050565b60405180606001604052806000815260200160008152602001600081525090565b6000813590506113b781611a6a565b92915050565b6000815190506113cc81611a81565b92915050565b6000813590506113e181611a98565b92915050565b6000815190506113f681611a98565b92915050565b6000602082840312156114125761141161194f565b5b6000611420848285016113a8565b91505092915050565b600080604083850312156114405761143f61194f565b5b600061144e858286016113a8565b925050602061145f858286016113a8565b9150509250929050565b60006020828403121561147f5761147e61194f565b5b600061148d848285016113bd565b91505092915050565b6000602082840312156114ac576114ab61194f565b5b60006114ba848285016113e7565b91505092915050565b600080604083850312156114da576114d961194f565b5b60006114e8858286016113d2565b92505060206114f9858286016113a8565b9150509250929050565b60008060006060848603121561151c5761151b61194f565b5b600061152a868287016113d2565b935050602061153b868287016113a8565b925050604061154c868287016113d2565b9150509250925092565b61155f816118d8565b82525050565b61156e816118ea565b82525050565b60006115816026836117e3565b915061158c82611954565b604082019050919050565b60006115a4603f836117e3565b91506115af826119a3565b604082019050919050565b60006115c76040836117e3565b91506115d2826119f2565b604082019050919050565b60006115ea6020836117e3565b91506115f582611a41565b602082019050919050565b6060820160008201516116166000850182611642565b5060208201516116296020850182611642565b50604082015161163c6040850182611642565b50505050565b61164b81611916565b82525050565b61165a81611916565b82525050565b60006020820190506116756000830184611556565b92915050565b60006060820190506116906000830186611556565b61169d6020830185611556565b6116aa6040830184611651565b949350505050565b60006040820190506116c76000830185611556565b6116d46020830184611651565b9392505050565b60006020820190506116f06000830184611565565b92915050565b6000602082019050818103600083015261170f81611574565b9050919050565b6000602082019050818103600083015261172f81611597565b9050919050565b6000602082019050818103600083015261174f816115ba565b9050919050565b6000602082019050818103600083015261176f816115dd565b9050919050565b600060608201905061178b6000830184611600565b92915050565b60006020820190506117a66000830184611651565b92915050565b60006060820190506117c16000830186611651565b6117ce6020830185611651565b6117db6040830184611651565b949350505050565b600082825260208201905092915050565b60006117ff82611916565b915061180a83611916565b9250827fffffffffffffffffffffffffffffffffffffffffffffffffffffffffffffffff0382111561183f5761183e611920565b5b828201905092915050565b600061185582611916565b915061186083611916565b9250817fffffffffffffffffffffffffffffffffffffffffffffffffffffffffffffffff048311821515161561189957611898611920565b5b828202905092915050565b60006118af82611916565b91506118ba83611916565b9250828210156118cd576118cc611920565b5b828203905092915050565b60006118e3826118f6565b9050919050565b60008115159050919050565b600073ffffffffffffffffffffffffffffffffffffffff82169050919050565b6000819050919050565b7f4e487b7100000000000000000000000000000000000000000000000000000000600052601160045260246000fd5b600080fd5b7f4f776e61626c653a206e6577206f776e657220697320746865207a65726f206160008201527f6464726573730000000000000000000000000000000000000000000000000000602082015250565b7f546f6b656e7320617265206f6e6c7920617661696c61626c652061667465722060008201527f636f72726563742074696d6520706572696f642068617320656c617073656400602082015250565b7f4e6f7420656e6f75676820535441544520746f6b656e7320696e20796f75722060008201527f77616c6c65742c20706c6561736520747279206c657373657220616d6f756e74602082015250565b7f4f776e61626c653a2063616c6c6572206973206e6f7420746865206f776e6572600082015250565b611a73816118d8565b8114611a7e57600080fd5b50565b611a8a816118ea565b8114611a9557600080fd5b50565b611aa181611916565b8114611aac57600080fd5b5056fea26469706673582212207625a176fe696cd0adb5a835b84eb3c394b5f4fac65df23fba79bec06e98b74564736f6c63430008070033",
					"opcodes": "PUSH1 0x80 PUSH1 0x40 MSTORE CALLVALUE DUP1 ISZERO PUSH2 0x10 JUMPI PUSH1 0x0 DUP1 REVERT JUMPDEST POP PUSH2 0x2D PUSH2 0x22 PUSH2 0x32 PUSH1 0x20 SHL PUSH1 0x20 SHR JUMP JUMPDEST PUSH2 0x3A PUSH1 0x20 SHL PUSH1 0x20 SHR JUMP JUMPDEST PUSH2 0xFE JUMP JUMPDEST PUSH1 0x0 CALLER SWAP1 POP SWAP1 JUMP JUMPDEST PUSH1 0x0 DUP1 PUSH1 0x0 SWAP1 SLOAD SWAP1 PUSH2 0x100 EXP SWAP1 DIV PUSH20 0xFFFFFFFFFFFFFFFFFFFFFFFFFFFFFFFFFFFFFFFF AND SWAP1 POP DUP2 PUSH1 0x0 DUP1 PUSH2 0x100 EXP DUP2 SLOAD DUP2 PUSH20 0xFFFFFFFFFFFFFFFFFFFFFFFFFFFFFFFFFFFFFFFF MUL NOT AND SWAP1 DUP4 PUSH20 0xFFFFFFFFFFFFFFFFFFFFFFFFFFFFFFFFFFFFFFFF AND MUL OR SWAP1 SSTORE POP DUP2 PUSH20 0xFFFFFFFFFFFFFFFFFFFFFFFFFFFFFFFFFFFFFFFF AND DUP2 PUSH20 0xFFFFFFFFFFFFFFFFFFFFFFFFFFFFFFFFFFFFFFFF AND PUSH32 0x8BE0079C531659141344CD1FD0A4F28419497F9722A3DAAFE3B4186F6B6457E0 PUSH1 0x40 MLOAD PUSH1 0x40 MLOAD DUP1 SWAP2 SUB SWAP1 LOG3 POP POP JUMP JUMPDEST PUSH2 0x1AE5 DUP1 PUSH2 0x10D PUSH1 0x0 CODECOPY PUSH1 0x0 RETURN INVALID PUSH1 0x80 PUSH1 0x40 MSTORE PUSH1 0x4 CALLDATASIZE LT PUSH2 0xA7 JUMPI PUSH1 0x0 CALLDATALOAD PUSH1 0xE0 SHR DUP1 PUSH4 0x8381E182 GT PUSH2 0x64 JUMPI DUP1 PUSH4 0x8381E182 EQ PUSH2 0x1D3 JUMPI DUP1 PUSH4 0x8DA5CB5B EQ PUSH2 0x203 JUMPI DUP1 PUSH4 0xD48BFCA7 EQ PUSH2 0x22E JUMPI DUP1 PUSH4 0xDCB43191 EQ PUSH2 0x257 JUMPI DUP1 PUSH4 0xE12FB1B9 EQ PUSH2 0x296 JUMPI DUP1 PUSH4 0xF2FDE38B EQ PUSH2 0x2D3 JUMPI PUSH2 0xA7 JUMP JUMPDEST DUP1 PUSH4 0x4302A2F2 EQ PUSH2 0xAC JUMPI DUP1 PUSH4 0x5FA7B584 EQ PUSH2 0xE9 JUMPI DUP1 PUSH4 0x6386C1C7 EQ PUSH2 0x112 JUMPI DUP1 PUSH4 0x6E9C931C EQ PUSH2 0x14F JUMPI DUP1 PUSH4 0x715018A6 EQ PUSH2 0x17F JUMPI DUP1 PUSH4 0x83374CAB EQ PUSH2 0x196 JUMPI JUMPDEST PUSH1 0x0 DUP1 REVERT JUMPDEST CALLVALUE DUP1 ISZERO PUSH2 0xB8 JUMPI PUSH1 0x0 DUP1 REVERT JUMPDEST POP PUSH2 0xD3 PUSH1 0x4 DUP1 CALLDATASIZE SUB DUP2 ADD SWAP1 PUSH2 0xCE SWAP2 SWAP1 PUSH2 0x13FC JUMP JUMPDEST PUSH2 0x2FC JUMP JUMPDEST PUSH1 0x40 MLOAD PUSH2 0xE0 SWAP2 SWAP1 PUSH2 0x1791 JUMP JUMPDEST PUSH1 0x40 MLOAD DUP1 SWAP2 SUB SWAP1 RETURN JUMPDEST CALLVALUE DUP1 ISZERO PUSH2 0xF5 JUMPI PUSH1 0x0 DUP1 REVERT JUMPDEST POP PUSH2 0x110 PUSH1 0x4 DUP1 CALLDATASIZE SUB DUP2 ADD SWAP1 PUSH2 0x10B SWAP2 SWAP1 PUSH2 0x13FC JUMP JUMPDEST PUSH2 0x314 JUMP JUMPDEST STOP JUMPDEST CALLVALUE DUP1 ISZERO PUSH2 0x11E JUMPI PUSH1 0x0 DUP1 REVERT JUMPDEST POP PUSH2 0x139 PUSH1 0x4 DUP1 CALLDATASIZE SUB DUP2 ADD SWAP1 PUSH2 0x134 SWAP2 SWAP1 PUSH2 0x13FC JUMP JUMPDEST PUSH2 0x3EB JUMP JUMPDEST PUSH1 0x40 MLOAD PUSH2 0x146 SWAP2 SWAP1 PUSH2 0x1776 JUMP JUMPDEST PUSH1 0x40 MLOAD DUP1 SWAP2 SUB SWAP1 RETURN JUMPDEST PUSH2 0x169 PUSH1 0x4 DUP1 CALLDATASIZE SUB DUP2 ADD SWAP1 PUSH2 0x164 SWAP2 SWAP1 PUSH2 0x1503 JUMP JUMPDEST PUSH2 0x4F7 JUMP JUMPDEST PUSH1 0x40 MLOAD PUSH2 0x176 SWAP2 SWAP1 PUSH2 0x16DB JUMP JUMPDEST PUSH1 0x40 MLOAD DUP1 SWAP2 SUB SWAP1 RETURN JUMPDEST CALLVALUE DUP1 ISZERO PUSH2 0x18B JUMPI PUSH1 0x0 DUP1 REVERT JUMPDEST POP PUSH2 0x194 PUSH2 0xAEE JUMP JUMPDEST STOP JUMPDEST CALLVALUE DUP1 ISZERO PUSH2 0x1A2 JUMPI PUSH1 0x0 DUP1 REVERT JUMPDEST POP PUSH2 0x1BD PUSH1 0x4 DUP1 CALLDATASIZE SUB DUP2 ADD SWAP1 PUSH2 0x1B8 SWAP2 SWAP1 PUSH2 0x13FC JUMP JUMPDEST PUSH2 0xB76 JUMP JUMPDEST PUSH1 0x40 MLOAD PUSH2 0x1CA SWAP2 SWAP1 PUSH2 0x1791 JUMP JUMPDEST PUSH1 0x40 MLOAD DUP1 SWAP2 SUB SWAP1 RETURN JUMPDEST PUSH2 0x1ED PUSH1 0x4 DUP1 CALLDATASIZE SUB DUP2 ADD SWAP1 PUSH2 0x1E8 SWAP2 SWAP1 PUSH2 0x14C3 JUMP JUMPDEST PUSH2 0xC17 JUMP JUMPDEST PUSH1 0x40 MLOAD PUSH2 0x1FA SWAP2 SWAP1 PUSH2 0x16DB JUMP JUMPDEST PUSH1 0x40 MLOAD DUP1 SWAP2 SUB SWAP1 RETURN JUMPDEST CALLVALUE DUP1 ISZERO PUSH2 0x20F JUMPI PUSH1 0x0 DUP1 REVERT JUMPDEST POP PUSH2 0x218 PUSH2 0x1041 JUMP JUMPDEST PUSH1 0x40 MLOAD PUSH2 0x225 SWAP2 SWAP1 PUSH2 0x1660 JUMP JUMPDEST PUSH1 0x40 MLOAD DUP1 SWAP2 SUB SWAP1 RETURN JUMPDEST CALLVALUE DUP1 ISZERO PUSH2 0x23A JUMPI PUSH1 0x0 DUP1 REVERT JUMPDEST POP PUSH2 0x255 PUSH1 0x4 DUP1 CALLDATASIZE SUB DUP2 ADD SWAP1 PUSH2 0x250 SWAP2 SWAP1 PUSH2 0x13FC JUMP JUMPDEST PUSH2 0x106A JUMP JUMPDEST STOP JUMPDEST CALLVALUE DUP1 ISZERO PUSH2 0x263 JUMPI PUSH1 0x0 DUP1 REVERT JUMPDEST POP PUSH2 0x27E PUSH1 0x4 DUP1 CALLDATASIZE SUB DUP2 ADD SWAP1 PUSH2 0x279 SWAP2 SWAP1 PUSH2 0x1429 JUMP JUMPDEST PUSH2 0x1140 JUMP JUMPDEST PUSH1 0x40 MLOAD PUSH2 0x28D SWAP4 SWAP3 SWAP2 SWAP1 PUSH2 0x17AC JUMP JUMPDEST PUSH1 0x40 MLOAD DUP1 SWAP2 SUB SWAP1 RETURN JUMPDEST CALLVALUE DUP1 ISZERO PUSH2 0x2A2 JUMPI PUSH1 0x0 DUP1 REVERT JUMPDEST POP PUSH2 0x2BD PUSH1 0x4 DUP1 CALLDATASIZE SUB DUP2 ADD SWAP1 PUSH2 0x2B8 SWAP2 SWAP1 PUSH2 0x13FC JUMP JUMPDEST PUSH2 0x1177 JUMP JUMPDEST PUSH1 0x40 MLOAD PUSH2 0x2CA SWAP2 SWAP1 PUSH2 0x16DB JUMP JUMPDEST PUSH1 0x40 MLOAD DUP1 SWAP2 SUB SWAP1 RETURN JUMPDEST CALLVALUE DUP1 ISZERO PUSH2 0x2DF JUMPI PUSH1 0x0 DUP1 REVERT JUMPDEST POP PUSH2 0x2FA PUSH1 0x4 DUP1 CALLDATASIZE SUB DUP2 ADD SWAP1 PUSH2 0x2F5 SWAP2 SWAP1 PUSH2 0x13FC JUMP JUMPDEST PUSH2 0x1197 JUMP JUMPDEST STOP JUMPDEST PUSH1 0x3 PUSH1 0x20 MSTORE DUP1 PUSH1 0x0 MSTORE PUSH1 0x40 PUSH1 0x0 KECCAK256 PUSH1 0x0 SWAP2 POP SWAP1 POP SLOAD DUP2 JUMP JUMPDEST PUSH2 0x31C PUSH2 0x128F JUMP JUMPDEST PUSH20 0xFFFFFFFFFFFFFFFFFFFFFFFFFFFFFFFFFFFFFFFF AND PUSH2 0x33A PUSH2 0x1041 JUMP JUMPDEST PUSH20 0xFFFFFFFFFFFFFFFFFFFFFFFFFFFFFFFFFFFFFFFF AND EQ PUSH2 0x390 JUMPI PUSH1 0x40 MLOAD PUSH32 0x8C379A000000000000000000000000000000000000000000000000000000000 DUP2 MSTORE PUSH1 0x4 ADD PUSH2 0x387 SWAP1 PUSH2 0x1756 JUMP JUMPDEST PUSH1 0x40 MLOAD DUP1 SWAP2 SUB SWAP1 REVERT JUMPDEST PUSH1 0x0 PUSH1 0x1 PUSH1 0x0 DUP4 PUSH20 0xFFFFFFFFFFFFFFFFFFFFFFFFFFFFFFFFFFFFFFFF AND PUSH20 0xFFFFFFFFFFFFFFFFFFFFFFFFFFFFFFFFFFFFFFFF AND DUP2 MSTORE PUSH1 0x20 ADD SWAP1 DUP2 MSTORE PUSH1 0x20 ADD PUSH1 0x0 KECCAK256 PUSH1 0x0 PUSH2 0x100 EXP DUP2 SLOAD DUP2 PUSH1 0xFF MUL NOT AND SWAP1 DUP4 ISZERO ISZERO MUL OR SWAP1 SSTORE POP POP JUMP JUMPDEST PUSH2 0x3F3 PUSH2 0x1387 JUMP JUMPDEST DUP2 PUSH1 0x1 PUSH1 0x0 DUP3 PUSH20 0xFFFFFFFFFFFFFFFFFFFFFFFFFFFFFFFFFFFFFFFF AND PUSH20 0xFFFFFFFFFFFFFFFFFFFFFFFFFFFFFFFFFFFFFFFF AND DUP2 MSTORE PUSH1 0x20 ADD SWAP1 DUP2 MSTORE PUSH1 0x20 ADD PUSH1 0x0 KECCAK256 PUSH1 0x0 SWAP1 SLOAD SWAP1 PUSH2 0x100 EXP SWAP1 DIV PUSH1 0xFF AND PUSH2 0x44A JUMPI PUSH1 0x0 DUP1 REVERT JUMPDEST PUSH1 0x2 PUSH1 0x0 DUP5 PUSH20 0xFFFFFFFFFFFFFFFFFFFFFFFFFFFFFFFFFFFFFFFF AND PUSH20 0xFFFFFFFFFFFFFFFFFFFFFFFFFFFFFFFFFFFFFFFF AND DUP2 MSTORE PUSH1 0x20 ADD SWAP1 DUP2 MSTORE PUSH1 0x20 ADD PUSH1 0x0 KECCAK256 PUSH1 0x0 CALLER PUSH20 0xFFFFFFFFFFFFFFFFFFFFFFFFFFFFFFFFFFFFFFFF AND PUSH20 0xFFFFFFFFFFFFFFFFFFFFFFFFFFFFFFFFFFFFFFFF AND DUP2 MSTORE PUSH1 0x20 ADD SWAP1 DUP2 MSTORE PUSH1 0x20 ADD PUSH1 0x0 KECCAK256 PUSH1 0x40 MLOAD DUP1 PUSH1 0x60 ADD PUSH1 0x40 MSTORE SWAP1 DUP2 PUSH1 0x0 DUP3 ADD SLOAD DUP2 MSTORE PUSH1 0x20 ADD PUSH1 0x1 DUP3 ADD SLOAD DUP2 MSTORE PUSH1 0x20 ADD PUSH1 0x2 DUP3 ADD SLOAD DUP2 MSTORE POP POP SWAP2 POP POP SWAP2 SWAP1 POP JUMP JUMPDEST PUSH1 0x0 DUP3 PUSH1 0x1 PUSH1 0x0 DUP3 PUSH20 0xFFFFFFFFFFFFFFFFFFFFFFFFFFFFFFFFFFFFFFFF AND PUSH20 0xFFFFFFFFFFFFFFFFFFFFFFFFFFFFFFFFFFFFFFFF AND DUP2 MSTORE PUSH1 0x20 ADD SWAP1 DUP2 MSTORE PUSH1 0x20 ADD PUSH1 0x0 KECCAK256 PUSH1 0x0 SWAP1 SLOAD SWAP1 PUSH2 0x100 EXP SWAP1 DIV PUSH1 0xFF AND PUSH2 0x550 JUMPI PUSH1 0x0 DUP1 REVERT JUMPDEST DUP4 PUSH20 0xFFFFFFFFFFFFFFFFFFFFFFFFFFFFFFFFFFFFFFFF AND PUSH4 0x70A08231 CALLER PUSH1 0x40 MLOAD DUP3 PUSH4 0xFFFFFFFF AND PUSH1 0xE0 SHL DUP2 MSTORE PUSH1 0x4 ADD PUSH2 0x589 SWAP2 SWAP1 PUSH2 0x1660 JUMP JUMPDEST PUSH1 0x20 PUSH1 0x40 MLOAD DUP1 DUP4 SUB DUP2 DUP7 DUP1 EXTCODESIZE ISZERO DUP1 ISZERO PUSH2 0x5A1 JUMPI PUSH1 0x0 DUP1 REVERT JUMPDEST POP GAS STATICCALL ISZERO DUP1 ISZERO PUSH2 0x5B5 JUMPI RETURNDATASIZE PUSH1 0x0 DUP1 RETURNDATACOPY RETURNDATASIZE PUSH1 0x0 REVERT JUMPDEST POP POP POP POP PUSH1 0x40 MLOAD RETURNDATASIZE PUSH1 0x1F NOT PUSH1 0x1F DUP3 ADD AND DUP3 ADD DUP1 PUSH1 0x40 MSTORE POP DUP2 ADD SWAP1 PUSH2 0x5D9 SWAP2 SWAP1 PUSH2 0x1496 JUMP JUMPDEST DUP6 GT ISZERO PUSH2 0x61B JUMPI PUSH1 0x40 MLOAD PUSH32 0x8C379A000000000000000000000000000000000000000000000000000000000 DUP2 MSTORE PUSH1 0x4 ADD PUSH2 0x612 SWAP1 PUSH2 0x1736 JUMP JUMPDEST PUSH1 0x40 MLOAD DUP1 SWAP2 SUB SWAP1 REVERT JUMPDEST DUP4 PUSH20 0xFFFFFFFFFFFFFFFFFFFFFFFFFFFFFFFFFFFFFFFF AND PUSH4 0x23B872DD CALLER ADDRESS DUP9 PUSH1 0x40 MLOAD DUP5 PUSH4 0xFFFFFFFF AND PUSH1 0xE0 SHL DUP2 MSTORE PUSH1 0x4 ADD PUSH2 0x658 SWAP4 SWAP3 SWAP2 SWAP1 PUSH2 0x167B JUMP JUMPDEST PUSH1 0x20 PUSH1 0x40 MLOAD DUP1 DUP4 SUB DUP2 PUSH1 0x0 DUP8 DUP1 EXTCODESIZE ISZERO DUP1 ISZERO PUSH2 0x672 JUMPI PUSH1 0x0 DUP1 REVERT JUMPDEST POP GAS CALL ISZERO DUP1 ISZERO PUSH2 0x686 JUMPI RETURNDATASIZE PUSH1 0x0 DUP1 RETURNDATACOPY RETURNDATASIZE PUSH1 0x0 REVERT JUMPDEST POP POP POP POP PUSH1 0x40 MLOAD RETURNDATASIZE PUSH1 0x1F NOT PUSH1 0x1F DUP3 ADD AND DUP3 ADD DUP1 PUSH1 0x40 MSTORE POP DUP2 ADD SWAP1 PUSH2 0x6AA SWAP2 SWAP1 PUSH2 0x1469 JUMP JUMPDEST PUSH2 0x6B3 JUMPI PUSH1 0x0 DUP1 REVERT JUMPDEST PUSH1 0x0 PUSH1 0x2 PUSH1 0x0 DUP7 PUSH20 0xFFFFFFFFFFFFFFFFFFFFFFFFFFFFFFFFFFFFFFFF AND PUSH20 0xFFFFFFFFFFFFFFFFFFFFFFFFFFFFFFFFFFFFFFFF AND DUP2 MSTORE PUSH1 0x20 ADD SWAP1 DUP2 MSTORE PUSH1 0x20 ADD PUSH1 0x0 KECCAK256 PUSH1 0x0 CALLER PUSH20 0xFFFFFFFFFFFFFFFFFFFFFFFFFFFFFFFFFFFFFFFF AND PUSH20 0xFFFFFFFFFFFFFFFFFFFFFFFFFFFFFFFFFFFFFFFF AND DUP2 MSTORE PUSH1 0x20 ADD SWAP1 DUP2 MSTORE PUSH1 0x20 ADD PUSH1 0x0 KECCAK256 PUSH1 0x0 ADD SLOAD EQ ISZERO PUSH2 0x861 JUMPI DUP5 PUSH1 0x2 PUSH1 0x0 DUP7 PUSH20 0xFFFFFFFFFFFFFFFFFFFFFFFFFFFFFFFFFFFFFFFF AND PUSH20 0xFFFFFFFFFFFFFFFFFFFFFFFFFFFFFFFFFFFFFFFF AND DUP2 MSTORE PUSH1 0x20 ADD SWAP1 DUP2 MSTORE PUSH1 0x20 ADD PUSH1 0x0 KECCAK256 PUSH1 0x0 CALLER PUSH20 0xFFFFFFFFFFFFFFFFFFFFFFFFFFFFFFFFFFFFFFFF AND PUSH20 0xFFFFFFFFFFFFFFFFFFFFFFFFFFFFFFFFFFFFFFFF AND DUP2 MSTORE PUSH1 0x20 ADD SWAP1 DUP2 MSTORE PUSH1 0x20 ADD PUSH1 0x0 KECCAK256 PUSH1 0x0 ADD DUP2 SWAP1 SSTORE POP PUSH3 0x15180 DUP4 PUSH2 0x7CE SWAP2 SWAP1 PUSH2 0x184A JUMP JUMPDEST TIMESTAMP PUSH2 0x7D9 SWAP2 SWAP1 PUSH2 0x17F4 JUMP JUMPDEST PUSH1 0x2 PUSH1 0x0 DUP7 PUSH20 0xFFFFFFFFFFFFFFFFFFFFFFFFFFFFFFFFFFFFFFFF AND PUSH20 0xFFFFFFFFFFFFFFFFFFFFFFFFFFFFFFFFFFFFFFFF AND DUP2 MSTORE PUSH1 0x20 ADD SWAP1 DUP2 MSTORE PUSH1 0x20 ADD PUSH1 0x0 KECCAK256 PUSH1 0x0 CALLER PUSH20 0xFFFFFFFFFFFFFFFFFFFFFFFFFFFFFFFFFFFFFFFF AND PUSH20 0xFFFFFFFFFFFFFFFFFFFFFFFFFFFFFFFFFFFFFFFF AND DUP2 MSTORE PUSH1 0x20 ADD SWAP1 DUP2 MSTORE PUSH1 0x20 ADD PUSH1 0x0 KECCAK256 PUSH1 0x2 ADD DUP2 SWAP1 SSTORE POP PUSH2 0xA14 JUMP JUMPDEST PUSH2 0x8F3 DUP6 PUSH1 0x2 PUSH1 0x0 DUP8 PUSH20 0xFFFFFFFFFFFFFFFFFFFFFFFFFFFFFFFFFFFFFFFF AND PUSH20 0xFFFFFFFFFFFFFFFFFFFFFFFFFFFFFFFFFFFFFFFF AND DUP2 MSTORE PUSH1 0x20 ADD SWAP1 DUP2 MSTORE PUSH1 0x20 ADD PUSH1 0x0 KECCAK256 PUSH1 0x0 CALLER PUSH20 0xFFFFFFFFFFFFFFFFFFFFFFFFFFFFFFFFFFFFFFFF AND PUSH20 0xFFFFFFFFFFFFFFFFFFFFFFFFFFFFFFFFFFFFFFFF AND DUP2 MSTORE PUSH1 0x20 ADD SWAP1 DUP2 MSTORE PUSH1 0x20 ADD PUSH1 0x0 KECCAK256 PUSH1 0x0 ADD SLOAD PUSH2 0x1297 SWAP1 SWAP2 SWAP1 PUSH4 0xFFFFFFFF AND JUMP JUMPDEST PUSH1 0x2 PUSH1 0x0 DUP7 PUSH20 0xFFFFFFFFFFFFFFFFFFFFFFFFFFFFFFFFFFFFFFFF AND PUSH20 0xFFFFFFFFFFFFFFFFFFFFFFFFFFFFFFFFFFFFFFFF AND DUP2 MSTORE PUSH1 0x20 ADD SWAP1 DUP2 MSTORE PUSH1 0x20 ADD PUSH1 0x0 KECCAK256 PUSH1 0x0 CALLER PUSH20 0xFFFFFFFFFFFFFFFFFFFFFFFFFFFFFFFFFFFFFFFF AND PUSH20 0xFFFFFFFFFFFFFFFFFFFFFFFFFFFFFFFFFFFFFFFF AND DUP2 MSTORE PUSH1 0x20 ADD SWAP1 DUP2 MSTORE PUSH1 0x20 ADD PUSH1 0x0 KECCAK256 PUSH1 0x0 ADD DUP2 SWAP1 SSTORE POP PUSH3 0x15180 DUP4 PUSH2 0x985 SWAP2 SWAP1 PUSH2 0x184A JUMP JUMPDEST TIMESTAMP PUSH2 0x990 SWAP2 SWAP1 PUSH2 0x17F4 JUMP JUMPDEST PUSH1 0x2 PUSH1 0x0 DUP7 PUSH20 0xFFFFFFFFFFFFFFFFFFFFFFFFFFFFFFFFFFFFFFFF AND PUSH20 0xFFFFFFFFFFFFFFFFFFFFFFFFFFFFFFFFFFFFFFFF AND DUP2 MSTORE PUSH1 0x20 ADD SWAP1 DUP2 MSTORE PUSH1 0x20 ADD PUSH1 0x0 KECCAK256 PUSH1 0x0 CALLER PUSH20 0xFFFFFFFFFFFFFFFFFFFFFFFFFFFFFFFFFFFFFFFF AND PUSH20 0xFFFFFFFFFFFFFFFFFFFFFFFFFFFFFFFFFFFFFFFF AND DUP2 MSTORE PUSH1 0x20 ADD SWAP1 DUP2 MSTORE PUSH1 0x20 ADD PUSH1 0x0 KECCAK256 PUSH1 0x2 ADD DUP2 SWAP1 SSTORE POP JUMPDEST PUSH2 0xA66 DUP6 PUSH1 0x3 PUSH1 0x0 DUP8 PUSH20 0xFFFFFFFFFFFFFFFFFFFFFFFFFFFFFFFFFFFFFFFF AND PUSH20 0xFFFFFFFFFFFFFFFFFFFFFFFFFFFFFFFFFFFFFFFF AND DUP2 MSTORE PUSH1 0x20 ADD SWAP1 DUP2 MSTORE PUSH1 0x20 ADD PUSH1 0x0 KECCAK256 SLOAD PUSH2 0x1297 SWAP1 SWAP2 SWAP1 PUSH4 0xFFFFFFFF AND JUMP JUMPDEST PUSH1 0x3 PUSH1 0x0 DUP7 PUSH20 0xFFFFFFFFFFFFFFFFFFFFFFFFFFFFFFFFFFFFFFFF AND PUSH20 0xFFFFFFFFFFFFFFFFFFFFFFFFFFFFFFFFFFFFFFFF AND DUP2 MSTORE PUSH1 0x20 ADD SWAP1 DUP2 MSTORE PUSH1 0x20 ADD PUSH1 0x0 KECCAK256 DUP2 SWAP1 SSTORE POP PUSH32 0xE5CFEEB5FCB96C1C52A55137C15E7F46D34D100D256C5396EFC087C43D2FDE4B CALLER DUP7 PUSH1 0x40 MLOAD PUSH2 0xADA SWAP3 SWAP2 SWAP1 PUSH2 0x16B2 JUMP JUMPDEST PUSH1 0x40 MLOAD DUP1 SWAP2 SUB SWAP1 LOG1 PUSH1 0x1 SWAP2 POP POP SWAP4 SWAP3 POP POP POP JUMP JUMPDEST PUSH2 0xAF6 PUSH2 0x128F JUMP JUMPDEST PUSH20 0xFFFFFFFFFFFFFFFFFFFFFFFFFFFFFFFFFFFFFFFF AND PUSH2 0xB14 PUSH2 0x1041 JUMP JUMPDEST PUSH20 0xFFFFFFFFFFFFFFFFFFFFFFFFFFFFFFFFFFFFFFFF AND EQ PUSH2 0xB6A JUMPI PUSH1 0x40 MLOAD PUSH32 0x8C379A000000000000000000000000000000000000000000000000000000000 DUP2 MSTORE PUSH1 0x4 ADD PUSH2 0xB61 SWAP1 PUSH2 0x1756 JUMP JUMPDEST PUSH1 0x40 MLOAD DUP1 SWAP2 SUB SWAP1 REVERT JUMPDEST PUSH2 0xB74 PUSH1 0x0 PUSH2 0x12AD JUMP JUMPDEST JUMP JUMPDEST PUSH1 0x0 DUP2 PUSH1 0x1 PUSH1 0x0 DUP3 PUSH20 0xFFFFFFFFFFFFFFFFFFFFFFFFFFFFFFFFFFFFFFFF AND PUSH20 0xFFFFFFFFFFFFFFFFFFFFFFFFFFFFFFFFFFFFFFFF AND DUP2 MSTORE PUSH1 0x20 ADD SWAP1 DUP2 MSTORE PUSH1 0x20 ADD PUSH1 0x0 KECCAK256 PUSH1 0x0 SWAP1 SLOAD SWAP1 PUSH2 0x100 EXP SWAP1 DIV PUSH1 0xFF AND PUSH2 0xBCF JUMPI PUSH1 0x0 DUP1 REVERT JUMPDEST PUSH1 0x3 PUSH1 0x0 DUP5 PUSH20 0xFFFFFFFFFFFFFFFFFFFFFFFFFFFFFFFFFFFFFFFF AND PUSH20 0xFFFFFFFFFFFFFFFFFFFFFFFFFFFFFFFFFFFFFFFF AND DUP2 MSTORE PUSH1 0x20 ADD SWAP1 DUP2 MSTORE PUSH1 0x20 ADD PUSH1 0x0 KECCAK256 SLOAD SWAP2 POP POP SWAP2 SWAP1 POP JUMP JUMPDEST PUSH1 0x0 DUP2 PUSH1 0x1 PUSH1 0x0 DUP3 PUSH20 0xFFFFFFFFFFFFFFFFFFFFFFFFFFFFFFFFFFFFFFFF AND PUSH20 0xFFFFFFFFFFFFFFFFFFFFFFFFFFFFFFFFFFFFFFFF AND DUP2 MSTORE PUSH1 0x20 ADD SWAP1 DUP2 MSTORE PUSH1 0x20 ADD PUSH1 0x0 KECCAK256 PUSH1 0x0 SWAP1 SLOAD SWAP1 PUSH2 0x100 EXP SWAP1 DIV PUSH1 0xFF AND PUSH2 0xC70 JUMPI PUSH1 0x0 DUP1 REVERT JUMPDEST PUSH1 0x0 PUSH1 0x2 PUSH1 0x0 DUP6 PUSH20 0xFFFFFFFFFFFFFFFFFFFFFFFFFFFFFFFFFFFFFFFF AND PUSH20 0xFFFFFFFFFFFFFFFFFFFFFFFFFFFFFFFFFFFFFFFF AND DUP2 MSTORE PUSH1 0x20 ADD SWAP1 DUP2 MSTORE PUSH1 0x20 ADD PUSH1 0x0 KECCAK256 PUSH1 0x0 CALLER PUSH20 0xFFFFFFFFFFFFFFFFFFFFFFFFFFFFFFFFFFFFFFFF AND PUSH20 0xFFFFFFFFFFFFFFFFFFFFFFFFFFFFFFFFFFFFFFFF AND DUP2 MSTORE PUSH1 0x20 ADD SWAP1 DUP2 MSTORE PUSH1 0x20 ADD PUSH1 0x0 KECCAK256 PUSH1 0x0 ADD SLOAD GT PUSH2 0xCFC JUMPI PUSH1 0x0 DUP1 REVERT JUMPDEST PUSH1 0x2 PUSH1 0x0 DUP5 PUSH20 0xFFFFFFFFFFFFFFFFFFFFFFFFFFFFFFFFFFFFFFFF AND PUSH20 0xFFFFFFFFFFFFFFFFFFFFFFFFFFFFFFFFFFFFFFFF AND DUP2 MSTORE PUSH1 0x20 ADD SWAP1 DUP2 MSTORE PUSH1 0x20 ADD PUSH1 0x0 KECCAK256 PUSH1 0x0 CALLER PUSH20 0xFFFFFFFFFFFFFFFFFFFFFFFFFFFFFFFFFFFFFFFF AND PUSH20 0xFFFFFFFFFFFFFFFFFFFFFFFFFFFFFFFFFFFFFFFF AND DUP2 MSTORE PUSH1 0x20 ADD SWAP1 DUP2 MSTORE PUSH1 0x20 ADD PUSH1 0x0 KECCAK256 PUSH1 0x2 ADD SLOAD TIMESTAMP GT PUSH2 0xDBD JUMPI PUSH1 0x40 MLOAD PUSH32 0x8C379A000000000000000000000000000000000000000000000000000000000 DUP2 MSTORE PUSH1 0x4 ADD PUSH2 0xDB4 SWAP1 PUSH2 0x1716 JUMP JUMPDEST PUSH1 0x40 MLOAD DUP1 SWAP2 SUB SWAP1 REVERT JUMPDEST DUP3 PUSH20 0xFFFFFFFFFFFFFFFFFFFFFFFFFFFFFFFFFFFFFFFF AND PUSH4 0xA9059CBB CALLER DUP7 PUSH1 0x40 MLOAD DUP4 PUSH4 0xFFFFFFFF AND PUSH1 0xE0 SHL DUP2 MSTORE PUSH1 0x4 ADD PUSH2 0xDF8 SWAP3 SWAP2 SWAP1 PUSH2 0x16B2 JUMP JUMPDEST PUSH1 0x20 PUSH1 0x40 MLOAD DUP1 DUP4 SUB DUP2 PUSH1 0x0 DUP8 DUP1 EXTCODESIZE ISZERO DUP1 ISZERO PUSH2 0xE12 JUMPI PUSH1 0x0 DUP1 REVERT JUMPDEST POP GAS CALL ISZERO DUP1 ISZERO PUSH2 0xE26 JUMPI RETURNDATASIZE PUSH1 0x0 DUP1 RETURNDATACOPY RETURNDATASIZE PUSH1 0x0 REVERT JUMPDEST POP POP POP POP PUSH1 0x40 MLOAD RETURNDATASIZE PUSH1 0x1F NOT PUSH1 0x1F DUP3 ADD AND DUP3 ADD DUP1 PUSH1 0x40 MSTORE POP DUP2 ADD SWAP1 PUSH2 0xE4A SWAP2 SWAP1 PUSH2 0x1469 JUMP JUMPDEST PUSH2 0xE53 JUMPI PUSH1 0x0 DUP1 REVERT JUMPDEST PUSH2 0xEA5 DUP5 PUSH1 0x3 PUSH1 0x0 DUP7 PUSH20 0xFFFFFFFFFFFFFFFFFFFFFFFFFFFFFFFFFFFFFFFF AND PUSH20 0xFFFFFFFFFFFFFFFFFFFFFFFFFFFFFFFFFFFFFFFF AND DUP2 MSTORE PUSH1 0x20 ADD SWAP1 DUP2 MSTORE PUSH1 0x20 ADD PUSH1 0x0 KECCAK256 SLOAD PUSH2 0x1371 SWAP1 SWAP2 SWAP1 PUSH4 0xFFFFFFFF AND JUMP JUMPDEST PUSH1 0x3 PUSH1 0x0 DUP6 PUSH20 0xFFFFFFFFFFFFFFFFFFFFFFFFFFFFFFFFFFFFFFFF AND PUSH20 0xFFFFFFFFFFFFFFFFFFFFFFFFFFFFFFFFFFFFFFFF AND DUP2 MSTORE PUSH1 0x20 ADD SWAP1 DUP2 MSTORE PUSH1 0x20 ADD PUSH1 0x0 KECCAK256 DUP2 SWAP1 SSTORE POP PUSH2 0xF7A DUP5 PUSH1 0x2 PUSH1 0x0 DUP7 PUSH20 0xFFFFFFFFFFFFFFFFFFFFFFFFFFFFFFFFFFFFFFFF AND PUSH20 0xFFFFFFFFFFFFFFFFFFFFFFFFFFFFFFFFFFFFFFFF AND DUP2 MSTORE PUSH1 0x20 ADD SWAP1 DUP2 MSTORE PUSH1 0x20 ADD PUSH1 0x0 KECCAK256 PUSH1 0x0 CALLER PUSH20 0xFFFFFFFFFFFFFFFFFFFFFFFFFFFFFFFFFFFFFFFF AND PUSH20 0xFFFFFFFFFFFFFFFFFFFFFFFFFFFFFFFFFFFFFFFF AND DUP2 MSTORE PUSH1 0x20 ADD SWAP1 DUP2 MSTORE PUSH1 0x20 ADD PUSH1 0x0 KECCAK256 PUSH1 0x1 ADD SLOAD PUSH2 0x1297 SWAP1 SWAP2 SWAP1 PUSH4 0xFFFFFFFF AND JUMP JUMPDEST PUSH1 0x2 PUSH1 0x0 DUP6 PUSH20 0xFFFFFFFFFFFFFFFFFFFFFFFFFFFFFFFFFFFFFFFF AND PUSH20 0xFFFFFFFFFFFFFFFFFFFFFFFFFFFFFFFFFFFFFFFF AND DUP2 MSTORE PUSH1 0x20 ADD SWAP1 DUP2 MSTORE PUSH1 0x20 ADD PUSH1 0x0 KECCAK256 PUSH1 0x0 CALLER PUSH20 0xFFFFFFFFFFFFFFFFFFFFFFFFFFFFFFFFFFFFFFFF AND PUSH20 0xFFFFFFFFFFFFFFFFFFFFFFFFFFFFFFFFFFFFFFFF AND DUP2 MSTORE PUSH1 0x20 ADD SWAP1 DUP2 MSTORE PUSH1 0x20 ADD PUSH1 0x0 KECCAK256 PUSH1 0x1 ADD DUP2 SWAP1 SSTORE POP PUSH32 0x9845E367B683334E5C0B12D7B81721AC518E649376FA65E3D68324E8F34F2679 CALLER DUP6 PUSH1 0x40 MLOAD PUSH2 0x102E SWAP3 SWAP2 SWAP1 PUSH2 0x16B2 JUMP JUMPDEST PUSH1 0x40 MLOAD DUP1 SWAP2 SUB SWAP1 LOG1 PUSH1 0x1 SWAP2 POP POP SWAP3 SWAP2 POP POP JUMP JUMPDEST PUSH1 0x0 DUP1 PUSH1 0x0 SWAP1 SLOAD SWAP1 PUSH2 0x100 EXP SWAP1 DIV PUSH20 0xFFFFFFFFFFFFFFFFFFFFFFFFFFFFFFFFFFFFFFFF AND SWAP1 POP SWAP1 JUMP JUMPDEST PUSH2 0x1072 PUSH2 0x128F JUMP JUMPDEST PUSH20 0xFFFFFFFFFFFFFFFFFFFFFFFFFFFFFFFFFFFFFFFF AND PUSH2 0x1090 PUSH2 0x1041 JUMP JUMPDEST PUSH20 0xFFFFFFFFFFFFFFFFFFFFFFFFFFFFFFFFFFFFFFFF AND EQ PUSH2 0x10E6 JUMPI PUSH1 0x40 MLOAD PUSH32 0x8C379A000000000000000000000000000000000000000000000000000000000 DUP2 MSTORE PUSH1 0x4 ADD PUSH2 0x10DD SWAP1 PUSH2 0x1756 JUMP JUMPDEST PUSH1 0x40 MLOAD DUP1 SWAP2 SUB SWAP1 REVERT JUMPDEST PUSH1 0x1 DUP1 PUSH1 0x0 DUP4 PUSH20 0xFFFFFFFFFFFFFFFFFFFFFFFFFFFFFFFFFFFFFFFF AND PUSH20 0xFFFFFFFFFFFFFFFFFFFFFFFFFFFFFFFFFFFFFFFF AND DUP2 MSTORE PUSH1 0x20 ADD SWAP1 DUP2 MSTORE PUSH1 0x20 ADD PUSH1 0x0 KECCAK256 PUSH1 0x0 PUSH2 0x100 EXP DUP2 SLOAD DUP2 PUSH1 0xFF MUL NOT AND SWAP1 DUP4 ISZERO ISZERO MUL OR SWAP1 SSTORE POP POP JUMP JUMPDEST PUSH1 0x2 PUSH1 0x20 MSTORE DUP2 PUSH1 0x0 MSTORE PUSH1 0x40 PUSH1 0x0 KECCAK256 PUSH1 0x20 MSTORE DUP1 PUSH1 0x0 MSTORE PUSH1 0x40 PUSH1 0x0 KECCAK256 PUSH1 0x0 SWAP2 POP SWAP2 POP POP DUP1 PUSH1 0x0 ADD SLOAD SWAP1 DUP1 PUSH1 0x1 ADD SLOAD SWAP1 DUP1 PUSH1 0x2 ADD SLOAD SWAP1 POP DUP4 JUMP JUMPDEST PUSH1 0x1 PUSH1 0x20 MSTORE DUP1 PUSH1 0x0 MSTORE PUSH1 0x40 PUSH1 0x0 KECCAK256 PUSH1 0x0 SWAP2 POP SLOAD SWAP1 PUSH2 0x100 EXP SWAP1 DIV PUSH1 0xFF AND DUP2 JUMP JUMPDEST PUSH2 0x119F PUSH2 0x128F JUMP JUMPDEST PUSH20 0xFFFFFFFFFFFFFFFFFFFFFFFFFFFFFFFFFFFFFFFF AND PUSH2 0x11BD PUSH2 0x1041 JUMP JUMPDEST PUSH20 0xFFFFFFFFFFFFFFFFFFFFFFFFFFFFFFFFFFFFFFFF AND EQ PUSH2 0x1213 JUMPI PUSH1 0x40 MLOAD PUSH32 0x8C379A000000000000000000000000000000000000000000000000000000000 DUP2 MSTORE PUSH1 0x4 ADD PUSH2 0x120A SWAP1 PUSH2 0x1756 JUMP JUMPDEST PUSH1 0x40 MLOAD DUP1 SWAP2 SUB SWAP1 REVERT JUMPDEST PUSH1 0x0 PUSH20 0xFFFFFFFFFFFFFFFFFFFFFFFFFFFFFFFFFFFFFFFF AND DUP2 PUSH20 0xFFFFFFFFFFFFFFFFFFFFFFFFFFFFFFFFFFFFFFFF AND EQ ISZERO PUSH2 0x1283 JUMPI PUSH1 0x40 MLOAD PUSH32 0x8C379A000000000000000000000000000000000000000000000000000000000 DUP2 MSTORE PUSH1 0x4 ADD PUSH2 0x127A SWAP1 PUSH2 0x16F6 JUMP JUMPDEST PUSH1 0x40 MLOAD DUP1 SWAP2 SUB SWAP1 REVERT JUMPDEST PUSH2 0x128C DUP2 PUSH2 0x12AD JUMP JUMPDEST POP JUMP JUMPDEST PUSH1 0x0 CALLER SWAP1 POP SWAP1 JUMP JUMPDEST PUSH1 0x0 DUP2 DUP4 PUSH2 0x12A5 SWAP2 SWAP1 PUSH2 0x17F4 JUMP JUMPDEST SWAP1 POP SWAP3 SWAP2 POP POP JUMP JUMPDEST PUSH1 0x0 DUP1 PUSH1 0x0 SWAP1 SLOAD SWAP1 PUSH2 0x100 EXP SWAP1 DIV PUSH20 0xFFFFFFFFFFFFFFFFFFFFFFFFFFFFFFFFFFFFFFFF AND SWAP1 POP DUP2 PUSH1 0x0 DUP1 PUSH2 0x100 EXP DUP2 SLOAD DUP2 PUSH20 0xFFFFFFFFFFFFFFFFFFFFFFFFFFFFFFFFFFFFFFFF MUL NOT AND SWAP1 DUP4 PUSH20 0xFFFFFFFFFFFFFFFFFFFFFFFFFFFFFFFFFFFFFFFF AND MUL OR SWAP1 SSTORE POP DUP2 PUSH20 0xFFFFFFFFFFFFFFFFFFFFFFFFFFFFFFFFFFFFFFFF AND DUP2 PUSH20 0xFFFFFFFFFFFFFFFFFFFFFFFFFFFFFFFFFFFFFFFF AND PUSH32 0x8BE0079C531659141344CD1FD0A4F28419497F9722A3DAAFE3B4186F6B6457E0 PUSH1 0x40 MLOAD PUSH1 0x40 MLOAD DUP1 SWAP2 SUB SWAP1 LOG3 POP POP JUMP JUMPDEST PUSH1 0x0 DUP2 DUP4 PUSH2 0x137F SWAP2 SWAP1 PUSH2 0x18A4 JUMP JUMPDEST SWAP1 POP SWAP3 SWAP2 POP POP JUMP JUMPDEST PUSH1 0x40 MLOAD DUP1 PUSH1 0x60 ADD PUSH1 0x40 MSTORE DUP1 PUSH1 0x0 DUP2 MSTORE PUSH1 0x20 ADD PUSH1 0x0 DUP2 MSTORE PUSH1 0x20 ADD PUSH1 0x0 DUP2 MSTORE POP SWAP1 JUMP JUMPDEST PUSH1 0x0 DUP2 CALLDATALOAD SWAP1 POP PUSH2 0x13B7 DUP2 PUSH2 0x1A6A JUMP JUMPDEST SWAP3 SWAP2 POP POP JUMP JUMPDEST PUSH1 0x0 DUP2 MLOAD SWAP1 POP PUSH2 0x13CC DUP2 PUSH2 0x1A81 JUMP JUMPDEST SWAP3 SWAP2 POP POP JUMP JUMPDEST PUSH1 0x0 DUP2 CALLDATALOAD SWAP1 POP PUSH2 0x13E1 DUP2 PUSH2 0x1A98 JUMP JUMPDEST SWAP3 SWAP2 POP POP JUMP JUMPDEST PUSH1 0x0 DUP2 MLOAD SWAP1 POP PUSH2 0x13F6 DUP2 PUSH2 0x1A98 JUMP JUMPDEST SWAP3 SWAP2 POP POP JUMP JUMPDEST PUSH1 0x0 PUSH1 0x20 DUP3 DUP5 SUB SLT ISZERO PUSH2 0x1412 JUMPI PUSH2 0x1411 PUSH2 0x194F JUMP JUMPDEST JUMPDEST PUSH1 0x0 PUSH2 0x1420 DUP5 DUP3 DUP6 ADD PUSH2 0x13A8 JUMP JUMPDEST SWAP2 POP POP SWAP3 SWAP2 POP POP JUMP JUMPDEST PUSH1 0x0 DUP1 PUSH1 0x40 DUP4 DUP6 SUB SLT ISZERO PUSH2 0x1440 JUMPI PUSH2 0x143F PUSH2 0x194F JUMP JUMPDEST JUMPDEST PUSH1 0x0 PUSH2 0x144E DUP6 DUP3 DUP7 ADD PUSH2 0x13A8 JUMP JUMPDEST SWAP3 POP POP PUSH1 0x20 PUSH2 0x145F DUP6 DUP3 DUP7 ADD PUSH2 0x13A8 JUMP JUMPDEST SWAP2 POP POP SWAP3 POP SWAP3 SWAP1 POP JUMP JUMPDEST PUSH1 0x0 PUSH1 0x20 DUP3 DUP5 SUB SLT ISZERO PUSH2 0x147F JUMPI PUSH2 0x147E PUSH2 0x194F JUMP JUMPDEST JUMPDEST PUSH1 0x0 PUSH2 0x148D DUP5 DUP3 DUP6 ADD PUSH2 0x13BD JUMP JUMPDEST SWAP2 POP POP SWAP3 SWAP2 POP POP JUMP JUMPDEST PUSH1 0x0 PUSH1 0x20 DUP3 DUP5 SUB SLT ISZERO PUSH2 0x14AC JUMPI PUSH2 0x14AB PUSH2 0x194F JUMP JUMPDEST JUMPDEST PUSH1 0x0 PUSH2 0x14BA DUP5 DUP3 DUP6 ADD PUSH2 0x13E7 JUMP JUMPDEST SWAP2 POP POP SWAP3 SWAP2 POP POP JUMP JUMPDEST PUSH1 0x0 DUP1 PUSH1 0x40 DUP4 DUP6 SUB SLT ISZERO PUSH2 0x14DA JUMPI PUSH2 0x14D9 PUSH2 0x194F JUMP JUMPDEST JUMPDEST PUSH1 0x0 PUSH2 0x14E8 DUP6 DUP3 DUP7 ADD PUSH2 0x13D2 JUMP JUMPDEST SWAP3 POP POP PUSH1 0x20 PUSH2 0x14F9 DUP6 DUP3 DUP7 ADD PUSH2 0x13A8 JUMP JUMPDEST SWAP2 POP POP SWAP3 POP SWAP3 SWAP1 POP JUMP JUMPDEST PUSH1 0x0 DUP1 PUSH1 0x0 PUSH1 0x60 DUP5 DUP7 SUB SLT ISZERO PUSH2 0x151C JUMPI PUSH2 0x151B PUSH2 0x194F JUMP JUMPDEST JUMPDEST PUSH1 0x0 PUSH2 0x152A DUP7 DUP3 DUP8 ADD PUSH2 0x13D2 JUMP JUMPDEST SWAP4 POP POP PUSH1 0x20 PUSH2 0x153B DUP7 DUP3 DUP8 ADD PUSH2 0x13A8 JUMP JUMPDEST SWAP3 POP POP PUSH1 0x40 PUSH2 0x154C DUP7 DUP3 DUP8 ADD PUSH2 0x13D2 JUMP JUMPDEST SWAP2 POP POP SWAP3 POP SWAP3 POP SWAP3 JUMP JUMPDEST PUSH2 0x155F DUP2 PUSH2 0x18D8 JUMP JUMPDEST DUP3 MSTORE POP POP JUMP JUMPDEST PUSH2 0x156E DUP2 PUSH2 0x18EA JUMP JUMPDEST DUP3 MSTORE POP POP JUMP JUMPDEST PUSH1 0x0 PUSH2 0x1581 PUSH1 0x26 DUP4 PUSH2 0x17E3 JUMP JUMPDEST SWAP2 POP PUSH2 0x158C DUP3 PUSH2 0x1954 JUMP JUMPDEST PUSH1 0x40 DUP3 ADD SWAP1 POP SWAP2 SWAP1 POP JUMP JUMPDEST PUSH1 0x0 PUSH2 0x15A4 PUSH1 0x3F DUP4 PUSH2 0x17E3 JUMP JUMPDEST SWAP2 POP PUSH2 0x15AF DUP3 PUSH2 0x19A3 JUMP JUMPDEST PUSH1 0x40 DUP3 ADD SWAP1 POP SWAP2 SWAP1 POP JUMP JUMPDEST PUSH1 0x0 PUSH2 0x15C7 PUSH1 0x40 DUP4 PUSH2 0x17E3 JUMP JUMPDEST SWAP2 POP PUSH2 0x15D2 DUP3 PUSH2 0x19F2 JUMP JUMPDEST PUSH1 0x40 DUP3 ADD SWAP1 POP SWAP2 SWAP1 POP JUMP JUMPDEST PUSH1 0x0 PUSH2 0x15EA PUSH1 0x20 DUP4 PUSH2 0x17E3 JUMP JUMPDEST SWAP2 POP PUSH2 0x15F5 DUP3 PUSH2 0x1A41 JUMP JUMPDEST PUSH1 0x20 DUP3 ADD SWAP1 POP SWAP2 SWAP1 POP JUMP JUMPDEST PUSH1 0x60 DUP3 ADD PUSH1 0x0 DUP3 ADD MLOAD PUSH2 0x1616 PUSH1 0x0 DUP6 ADD DUP3 PUSH2 0x1642 JUMP JUMPDEST POP PUSH1 0x20 DUP3 ADD MLOAD PUSH2 0x1629 PUSH1 0x20 DUP6 ADD DUP3 PUSH2 0x1642 JUMP JUMPDEST POP PUSH1 0x40 DUP3 ADD MLOAD PUSH2 0x163C PUSH1 0x40 DUP6 ADD DUP3 PUSH2 0x1642 JUMP JUMPDEST POP POP POP POP JUMP JUMPDEST PUSH2 0x164B DUP2 PUSH2 0x1916 JUMP JUMPDEST DUP3 MSTORE POP POP JUMP JUMPDEST PUSH2 0x165A DUP2 PUSH2 0x1916 JUMP JUMPDEST DUP3 MSTORE POP POP JUMP JUMPDEST PUSH1 0x0 PUSH1 0x20 DUP3 ADD SWAP1 POP PUSH2 0x1675 PUSH1 0x0 DUP4 ADD DUP5 PUSH2 0x1556 JUMP JUMPDEST SWAP3 SWAP2 POP POP JUMP JUMPDEST PUSH1 0x0 PUSH1 0x60 DUP3 ADD SWAP1 POP PUSH2 0x1690 PUSH1 0x0 DUP4 ADD DUP7 PUSH2 0x1556 JUMP JUMPDEST PUSH2 0x169D PUSH1 0x20 DUP4 ADD DUP6 PUSH2 0x1556 JUMP JUMPDEST PUSH2 0x16AA PUSH1 0x40 DUP4 ADD DUP5 PUSH2 0x1651 JUMP JUMPDEST SWAP5 SWAP4 POP POP POP POP JUMP JUMPDEST PUSH1 0x0 PUSH1 0x40 DUP3 ADD SWAP1 POP PUSH2 0x16C7 PUSH1 0x0 DUP4 ADD DUP6 PUSH2 0x1556 JUMP JUMPDEST PUSH2 0x16D4 PUSH1 0x20 DUP4 ADD DUP5 PUSH2 0x1651 JUMP JUMPDEST SWAP4 SWAP3 POP POP POP JUMP JUMPDEST PUSH1 0x0 PUSH1 0x20 DUP3 ADD SWAP1 POP PUSH2 0x16F0 PUSH1 0x0 DUP4 ADD DUP5 PUSH2 0x1565 JUMP JUMPDEST SWAP3 SWAP2 POP POP JUMP JUMPDEST PUSH1 0x0 PUSH1 0x20 DUP3 ADD SWAP1 POP DUP2 DUP2 SUB PUSH1 0x0 DUP4 ADD MSTORE PUSH2 0x170F DUP2 PUSH2 0x1574 JUMP JUMPDEST SWAP1 POP SWAP2 SWAP1 POP JUMP JUMPDEST PUSH1 0x0 PUSH1 0x20 DUP3 ADD SWAP1 POP DUP2 DUP2 SUB PUSH1 0x0 DUP4 ADD MSTORE PUSH2 0x172F DUP2 PUSH2 0x1597 JUMP JUMPDEST SWAP1 POP SWAP2 SWAP1 POP JUMP JUMPDEST PUSH1 0x0 PUSH1 0x20 DUP3 ADD SWAP1 POP DUP2 DUP2 SUB PUSH1 0x0 DUP4 ADD MSTORE PUSH2 0x174F DUP2 PUSH2 0x15BA JUMP JUMPDEST SWAP1 POP SWAP2 SWAP1 POP JUMP JUMPDEST PUSH1 0x0 PUSH1 0x20 DUP3 ADD SWAP1 POP DUP2 DUP2 SUB PUSH1 0x0 DUP4 ADD MSTORE PUSH2 0x176F DUP2 PUSH2 0x15DD JUMP JUMPDEST SWAP1 POP SWAP2 SWAP1 POP JUMP JUMPDEST PUSH1 0x0 PUSH1 0x60 DUP3 ADD SWAP1 POP PUSH2 0x178B PUSH1 0x0 DUP4 ADD DUP5 PUSH2 0x1600 JUMP JUMPDEST SWAP3 SWAP2 POP POP JUMP JUMPDEST PUSH1 0x0 PUSH1 0x20 DUP3 ADD SWAP1 POP PUSH2 0x17A6 PUSH1 0x0 DUP4 ADD DUP5 PUSH2 0x1651 JUMP JUMPDEST SWAP3 SWAP2 POP POP JUMP JUMPDEST PUSH1 0x0 PUSH1 0x60 DUP3 ADD SWAP1 POP PUSH2 0x17C1 PUSH1 0x0 DUP4 ADD DUP7 PUSH2 0x1651 JUMP JUMPDEST PUSH2 0x17CE PUSH1 0x20 DUP4 ADD DUP6 PUSH2 0x1651 JUMP JUMPDEST PUSH2 0x17DB PUSH1 0x40 DUP4 ADD DUP5 PUSH2 0x1651 JUMP JUMPDEST SWAP5 SWAP4 POP POP POP POP JUMP JUMPDEST PUSH1 0x0 DUP3 DUP3 MSTORE PUSH1 0x20 DUP3 ADD SWAP1 POP SWAP3 SWAP2 POP POP JUMP JUMPDEST PUSH1 0x0 PUSH2 0x17FF DUP3 PUSH2 0x1916 JUMP JUMPDEST SWAP2 POP PUSH2 0x180A DUP4 PUSH2 0x1916 JUMP JUMPDEST SWAP3 POP DUP3 PUSH32 0xFFFFFFFFFFFFFFFFFFFFFFFFFFFFFFFFFFFFFFFFFFFFFFFFFFFFFFFFFFFFFFFF SUB DUP3 GT ISZERO PUSH2 0x183F JUMPI PUSH2 0x183E PUSH2 0x1920 JUMP JUMPDEST JUMPDEST DUP3 DUP3 ADD SWAP1 POP SWAP3 SWAP2 POP POP JUMP JUMPDEST PUSH1 0x0 PUSH2 0x1855 DUP3 PUSH2 0x1916 JUMP JUMPDEST SWAP2 POP PUSH2 0x1860 DUP4 PUSH2 0x1916 JUMP JUMPDEST SWAP3 POP DUP2 PUSH32 0xFFFFFFFFFFFFFFFFFFFFFFFFFFFFFFFFFFFFFFFFFFFFFFFFFFFFFFFFFFFFFFFF DIV DUP4 GT DUP3 ISZERO ISZERO AND ISZERO PUSH2 0x1899 JUMPI PUSH2 0x1898 PUSH2 0x1920 JUMP JUMPDEST JUMPDEST DUP3 DUP3 MUL SWAP1 POP SWAP3 SWAP2 POP POP JUMP JUMPDEST PUSH1 0x0 PUSH2 0x18AF DUP3 PUSH2 0x1916 JUMP JUMPDEST SWAP2 POP PUSH2 0x18BA DUP4 PUSH2 0x1916 JUMP JUMPDEST SWAP3 POP DUP3 DUP3 LT ISZERO PUSH2 0x18CD JUMPI PUSH2 0x18CC PUSH2 0x1920 JUMP JUMPDEST JUMPDEST DUP3 DUP3 SUB SWAP1 POP SWAP3 SWAP2 POP POP JUMP JUMPDEST PUSH1 0x0 PUSH2 0x18E3 DUP3 PUSH2 0x18F6 JUMP JUMPDEST SWAP1 POP SWAP2 SWAP1 POP JUMP JUMPDEST PUSH1 0x0 DUP2 ISZERO ISZERO SWAP1 POP SWAP2 SWAP1 POP JUMP JUMPDEST PUSH1 0x0 PUSH20 0xFFFFFFFFFFFFFFFFFFFFFFFFFFFFFFFFFFFFFFFF DUP3 AND SWAP1 POP SWAP2 SWAP1 POP JUMP JUMPDEST PUSH1 0x0 DUP2 SWAP1 POP SWAP2 SWAP1 POP JUMP JUMPDEST PUSH32 0x4E487B7100000000000000000000000000000000000000000000000000000000 PUSH1 0x0 MSTORE PUSH1 0x11 PUSH1 0x4 MSTORE PUSH1 0x24 PUSH1 0x0 REVERT JUMPDEST PUSH1 0x0 DUP1 REVERT JUMPDEST PUSH32 0x4F776E61626C653A206E6577206F776E657220697320746865207A65726F2061 PUSH1 0x0 DUP3 ADD MSTORE PUSH32 0x6464726573730000000000000000000000000000000000000000000000000000 PUSH1 0x20 DUP3 ADD MSTORE POP JUMP JUMPDEST PUSH32 0x546F6B656E7320617265206F6E6C7920617661696C61626C6520616674657220 PUSH1 0x0 DUP3 ADD MSTORE PUSH32 0x636F72726563742074696D6520706572696F642068617320656C617073656400 PUSH1 0x20 DUP3 ADD MSTORE POP JUMP JUMPDEST PUSH32 0x4E6F7420656E6F75676820535441544520746F6B656E7320696E20796F757220 PUSH1 0x0 DUP3 ADD MSTORE PUSH32 0x77616C6C65742C20706C6561736520747279206C657373657220616D6F756E74 PUSH1 0x20 DUP3 ADD MSTORE POP JUMP JUMPDEST PUSH32 0x4F776E61626C653A2063616C6C6572206973206E6F7420746865206F776E6572 PUSH1 0x0 DUP3 ADD MSTORE POP JUMP JUMPDEST PUSH2 0x1A73 DUP2 PUSH2 0x18D8 JUMP JUMPDEST DUP2 EQ PUSH2 0x1A7E JUMPI PUSH1 0x0 DUP1 REVERT JUMPDEST POP JUMP JUMPDEST PUSH2 0x1A8A DUP2 PUSH2 0x18EA JUMP JUMPDEST DUP2 EQ PUSH2 0x1A95 JUMPI PUSH1 0x0 DUP1 REVERT JUMPDEST POP JUMP JUMPDEST PUSH2 0x1AA1 DUP2 PUSH2 0x1916 JUMP JUMPDEST DUP2 EQ PUSH2 0x1AAC JUMPI PUSH1 0x0 DUP1 REVERT JUMPDEST POP JUMP INVALID LOG2 PUSH5 0x6970667358 0x22 SLT KECCAK256 PUSH23 0x25A176FE696CD0ADB5A835B84EB3C394B5F4FAC65DF23F 0xBA PUSH26 0xBEC06E98B74564736F6C63430008070033000000000000000000 "
				},
				"gasEstimates": {
					"creation": {
						"codeDepositCost": "1377000",
						"executionCost": "infinite",
						"totalCost": "infinite"
					},
					"external": {
						"StakeMap(address,address)": "infinite",
						"addToken(address)": "27096",
						"getTokenTotalStaked(address)": "5200",
						"getUserInfo(address)": "infinite",
						"owner()": "2544",
						"removeToken(address)": "27075",
						"renounceOwnership()": "30463",
						"stake(uint256,address,uint256)": "infinite",
						"tokenTotalStaked(address)": "2815",
						"transferOwnership(address)": "30833",
						"unstake(uint256,address)": "infinite",
						"validTokens(address)": "2933"
					}
				},
				"methodIdentifiers": {
					"StakeMap(address,address)": "dcb43191",
					"addToken(address)": "d48bfca7",
					"getTokenTotalStaked(address)": "83374cab",
					"getUserInfo(address)": "6386c1c7",
					"owner()": "8da5cb5b",
					"removeToken(address)": "5fa7b584",
					"renounceOwnership()": "715018a6",
					"stake(uint256,address,uint256)": "6e9c931c",
					"tokenTotalStaked(address)": "4302a2f2",
					"transferOwnership(address)": "f2fde38b",
					"unstake(uint256,address)": "8381e182",
					"validTokens(address)": "e12fb1b9"
				}
			},
			"storageLayout": {
				"storage": [
					{
						"astId": 7,
						"contract": "contracts/staking.sol:staking",
						"label": "_owner",
						"offset": 0,
						"slot": "0",
						"type": "t_address"
					},
					{
						"astId": 497,
						"contract": "contracts/staking.sol:staking",
						"label": "validTokens",
						"offset": 0,
						"slot": "1",
						"type": "t_mapping(t_address,t_bool)"
					},
					{
						"astId": 504,
						"contract": "contracts/staking.sol:staking",
						"label": "StakeMap",
						"offset": 0,
						"slot": "2",
						"type": "t_mapping(t_address,t_mapping(t_address,t_struct(stakingInfo)493_storage))"
					},
					{
						"astId": 508,
						"contract": "contracts/staking.sol:staking",
						"label": "tokenTotalStaked",
						"offset": 0,
						"slot": "3",
						"type": "t_mapping(t_address,t_uint256)"
					}
				],
				"types": {
					"t_address": {
						"encoding": "inplace",
						"label": "address",
						"numberOfBytes": "20"
					},
					"t_bool": {
						"encoding": "inplace",
						"label": "bool",
						"numberOfBytes": "1"
					},
					"t_mapping(t_address,t_bool)": {
						"encoding": "mapping",
						"key": "t_address",
						"label": "mapping(address => bool)",
						"numberOfBytes": "32",
						"value": "t_bool"
					},
					"t_mapping(t_address,t_mapping(t_address,t_struct(stakingInfo)493_storage))": {
						"encoding": "mapping",
						"key": "t_address",
						"label": "mapping(address => mapping(address => struct staking.stakingInfo))",
						"numberOfBytes": "32",
						"value": "t_mapping(t_address,t_struct(stakingInfo)493_storage)"
					},
					"t_mapping(t_address,t_struct(stakingInfo)493_storage)": {
						"encoding": "mapping",
						"key": "t_address",
						"label": "mapping(address => struct staking.stakingInfo)",
						"numberOfBytes": "32",
						"value": "t_struct(stakingInfo)493_storage"
					},
					"t_mapping(t_address,t_uint256)": {
						"encoding": "mapping",
						"key": "t_address",
						"label": "mapping(address => uint256)",
						"numberOfBytes": "32",
						"value": "t_uint256"
					},
					"t_struct(stakingInfo)493_storage": {
						"encoding": "inplace",
						"label": "struct staking.stakingInfo",
						"members": [
							{
								"astId": 488,
								"contract": "contracts/staking.sol:staking",
								"label": "amount",
								"offset": 0,
								"slot": "0",
								"type": "t_uint256"
							},
							{
								"astId": 490,
								"contract": "contracts/staking.sol:staking",
								"label": "alreadyWithdrawn",
								"offset": 0,
								"slot": "1",
								"type": "t_uint256"
							},
							{
								"astId": 492,
								"contract": "contracts/staking.sol:staking",
								"label": "releaseDate",
								"offset": 0,
								"slot": "2",
								"type": "t_uint256"
							}
						],
						"numberOfBytes": "96"
					},
					"t_uint256": {
						"encoding": "inplace",
						"label": "uint256",
						"numberOfBytes": "32"
					}
				}
			},
			"userdoc": {
				"kind": "user",
				"methods": {
					"addToken(address)": {
						"notice": "add token address "
					},
					"getTokenTotalStaked(address)": {
						"notice": "get tokenTotalStaked"
					},
					"getUserInfo(address)": {
						"notice": "get User Staking Info "
					},
					"removeToken(address)": {
						"notice": "remove token address"
					},
					"stake(uint256,address,uint256)": {
						"notice": "Stake tokens"
					},
					"unstake(uint256,address)": {
						"notice": "Unstake tokens"
					}
				},
				"version": 1
			}
		}
	}
}