{
  "contractName": "staking",
  "abi": [
    {
      "anonymous": false,
      "inputs": [
        {
          "indexed": true,
          "internalType": "address",
          "name": "previousOwner",
          "type": "address"
        },
        {
          "indexed": true,
          "internalType": "address",
          "name": "newOwner",
          "type": "address"
        }
      ],
      "name": "OwnershipTransferred",
      "type": "event"
    },
    {
      "anonymous": false,
      "inputs": [
        {
          "indexed": false,
          "internalType": "address",
          "name": "_to",
          "type": "address"
        },
        {
          "indexed": false,
          "internalType": "uint256",
          "name": "_amount",
          "type": "uint256"
        }
      ],
      "name": "TokensUnstaked",
      "type": "event"
    },
    {
      "anonymous": false,
      "inputs": [
        {
          "indexed": false,
          "internalType": "address",
          "name": "_from",
          "type": "address"
        },
        {
          "indexed": false,
          "internalType": "uint256",
          "name": "_amount",
          "type": "uint256"
        }
      ],
      "name": "tokensStaked",
      "type": "event"
    },
    {
      "inputs": [
        {
          "internalType": "address",
          "name": "",
          "type": "address"
        },
        {
          "internalType": "address",
          "name": "",
          "type": "address"
        }
      ],
      "name": "StakeMap",
      "outputs": [
        {
          "internalType": "uint256",
          "name": "amount",
          "type": "uint256"
        },
        {
          "internalType": "uint256",
          "name": "alreadyWithdrawn",
          "type": "uint256"
        },
        {
          "internalType": "uint256",
          "name": "releaseDate",
          "type": "uint256"
        }
      ],
      "stateMutability": "view",
      "type": "function"
    },
    {
      "inputs": [],
      "name": "owner",
      "outputs": [
        {
          "internalType": "address",
          "name": "",
          "type": "address"
        }
      ],
      "stateMutability": "view",
      "type": "function"
    },
    {
      "inputs": [],
      "name": "renounceOwnership",
      "outputs": [],
      "stateMutability": "nonpayable",
      "type": "function"
    },
    {
      "inputs": [
        {
          "internalType": "address",
          "name": "",
          "type": "address"
        }
      ],
      "name": "tokenTotalStaked",
      "outputs": [
        {
          "internalType": "uint256",
          "name": "",
          "type": "uint256"
        }
      ],
      "stateMutability": "view",
      "type": "function"
    },
    {
      "inputs": [
        {
          "internalType": "address",
          "name": "newOwner",
          "type": "address"
        }
      ],
      "name": "transferOwnership",
      "outputs": [],
      "stateMutability": "nonpayable",
      "type": "function"
    },
    {
      "inputs": [
        {
          "internalType": "address",
          "name": "",
          "type": "address"
        }
      ],
      "name": "validTokens",
      "outputs": [
        {
          "internalType": "bool",
          "name": "",
          "type": "bool"
        }
      ],
      "stateMutability": "view",
      "type": "function"
    },
    {
      "inputs": [
        {
          "internalType": "address",
          "name": "_tokenAddr",
          "type": "address"
        }
      ],
      "name": "addToken",
      "outputs": [],
      "stateMutability": "nonpayable",
      "type": "function"
    },
    {
      "inputs": [
        {
          "internalType": "address",
          "name": "_tokenAddr",
          "type": "address"
        }
      ],
      "name": "removeToken",
      "outputs": [],
      "stateMutability": "nonpayable",
      "type": "function"
    },
    {
      "inputs": [
        {
          "internalType": "uint256",
          "name": "_amount",
          "type": "uint256"
        },
        {
          "internalType": "address",
          "name": "_tokenAddr",
          "type": "address"
        },
        {
          "internalType": "uint256",
          "name": "_daysCount",
          "type": "uint256"
        }
      ],
      "name": "stake",
      "outputs": [
        {
          "internalType": "bool",
          "name": "",
          "type": "bool"
        }
      ],
      "stateMutability": "payable",
      "type": "function"
    },
    {
      "inputs": [
        {
          "internalType": "uint256",
          "name": "_amount",
          "type": "uint256"
        },
        {
          "internalType": "address",
          "name": "_tokenAddr",
          "type": "address"
        }
      ],
      "name": "unstake",
      "outputs": [
        {
          "internalType": "bool",
          "name": "",
          "type": "bool"
        }
      ],
      "stateMutability": "payable",
      "type": "function"
    },
    {
      "inputs": [
        {
          "internalType": "address",
          "name": "_tokenAddr",
          "type": "address"
        }
      ],
      "name": "getUserInfo",
      "outputs": [
        {
          "components": [
            {
              "internalType": "uint256",
              "name": "amount",
              "type": "uint256"
            },
            {
              "internalType": "uint256",
              "name": "alreadyWithdrawn",
              "type": "uint256"
            },
            {
              "internalType": "uint256",
              "name": "releaseDate",
              "type": "uint256"
            }
          ],
          "internalType": "struct staking.stakingInfo",
          "name": "",
          "type": "tuple"
        }
      ],
      "stateMutability": "view",
      "type": "function"
    },
    {
      "inputs": [
        {
          "internalType": "address",
          "name": "_tokenAddr",
          "type": "address"
        }
      ],
      "name": "getTokenTotalStaked",
      "outputs": [
        {
          "internalType": "uint256",
          "name": "",
          "type": "uint256"
        }
      ],
      "stateMutability": "view",
      "type": "function"
    }
  ],
  "bytecode": "0x608060405234801561001057600080fd5b5061002d61002261003260201b60201c565b61003a60201b60201c565b6100fe565b600033905090565b60008060009054906101000a900473ffffffffffffffffffffffffffffffffffffffff169050816000806101000a81548173ffffffffffffffffffffffffffffffffffffffff021916908373ffffffffffffffffffffffffffffffffffffffff1602179055508173ffffffffffffffffffffffffffffffffffffffff168173ffffffffffffffffffffffffffffffffffffffff167f8be0079c531659141344cd1fd0a4f28419497f9722a3daafe3b4186f6b6457e060405160405180910390a35050565b611ab68061010d6000396000f3fe6080604052600436106100a75760003560e01c80638381e182116100645780638381e182146101d35780638da5cb5b14610203578063d48bfca71461022e578063dcb4319114610257578063e12fb1b914610296578063f2fde38b146102d3576100a7565b80634302a2f2146100ac5780635fa7b584146100e95780636386c1c7146101125780636e9c931c1461014f578063715018a61461017f57806383374cab14610196575b600080fd5b3480156100b857600080fd5b506100d360048036038101906100ce91906113dc565b6102fc565b6040516100e09190611422565b60405180910390f35b3480156100f557600080fd5b50610110600480360381019061010b91906113dc565b610314565b005b34801561011e57600080fd5b50610139600480360381019061013491906113dc565b6103eb565b604051610146919061148e565b60405180910390f35b610169600480360381019061016491906114d5565b6104f7565b6040516101769190611543565b60405180910390f35b34801561018b57600080fd5b50610194610acf565b005b3480156101a257600080fd5b506101bd60048036038101906101b891906113dc565b610b57565b6040516101ca9190611422565b60405180910390f35b6101ed60048036038101906101e8919061155e565b610bf8565b6040516101fa9190611543565b60405180910390f35b34801561020f57600080fd5b50610218611013565b60405161022591906115ad565b60405180910390f35b34801561023a57600080fd5b50610255600480360381019061025091906113dc565b61103c565b005b34801561026357600080fd5b5061027e600480360381019061027991906115c8565b611112565b60405161028d93929190611608565b60405180910390f35b3480156102a257600080fd5b506102bd60048036038101906102b891906113dc565b611149565b6040516102ca9190611543565b60405180910390f35b3480156102df57600080fd5b506102fa60048036038101906102f591906113dc565b611169565b005b60036020528060005260406000206000915090505481565b61031c611260565b73ffffffffffffffffffffffffffffffffffffffff1661033a611013565b73ffffffffffffffffffffffffffffffffffffffff1614610390576040517f08c379a00000000000000000000000000000000000000000000000000000000081526004016103879061169c565b60405180910390fd5b6000600160008373ffffffffffffffffffffffffffffffffffffffff1673ffffffffffffffffffffffffffffffffffffffff16815260200190815260200160002060006101000a81548160ff02191690831515021790555050565b6103f3611358565b81600160008273ffffffffffffffffffffffffffffffffffffffff1673ffffffffffffffffffffffffffffffffffffffff16815260200190815260200160002060009054906101000a900460ff1661044a57600080fd5b600260008473ffffffffffffffffffffffffffffffffffffffff1673ffffffffffffffffffffffffffffffffffffffff16815260200190815260200160002060003373ffffffffffffffffffffffffffffffffffffffff1673ffffffffffffffffffffffffffffffffffffffff1681526020019081526020016000206040518060600160405290816000820154815260200160018201548152602001600282015481525050915050919050565b600082600160008273ffffffffffffffffffffffffffffffffffffffff1673ffffffffffffffffffffffffffffffffffffffff16815260200190815260200160002060009054906101000a900460ff1661055057600080fd5b8373ffffffffffffffffffffffffffffffffffffffff166370a08231336040518263ffffffff1660e01b815260040161058991906115ad565b602060405180830381865afa1580156105a6573d6000803e3d6000fd5b505050506040513d601f19601f820116820180604052508101906105ca91906116d1565b85111561060c576040517f08c379a000000000000000000000000000000000000000000000000000000000815260040161060390611770565b60405180910390fd5b8373ffffffffffffffffffffffffffffffffffffffff166323b872dd3330886040518463ffffffff1660e01b815260040161064993929190611790565b6020604051808303816000875af1158015610668573d6000803e3d6000fd5b505050506040513d601f19601f8201168201806040525081019061068c91906117f3565b61069557600080fd5b6000600260008673ffffffffffffffffffffffffffffffffffffffff1673ffffffffffffffffffffffffffffffffffffffff16815260200190815260200160002060003373ffffffffffffffffffffffffffffffffffffffff1673ffffffffffffffffffffffffffffffffffffffff16815260200190815260200160002060000154036108425784600260008673ffffffffffffffffffffffffffffffffffffffff1673ffffffffffffffffffffffffffffffffffffffff16815260200190815260200160002060003373ffffffffffffffffffffffffffffffffffffffff1673ffffffffffffffffffffffffffffffffffffffff1681526020019081526020016000206000018190555062015180836107af919061184f565b426107ba91906118a9565b600260008673ffffffffffffffffffffffffffffffffffffffff1673ffffffffffffffffffffffffffffffffffffffff16815260200190815260200160002060003373ffffffffffffffffffffffffffffffffffffffff1673ffffffffffffffffffffffffffffffffffffffff168152602001908152602001600020600201819055506109f5565b6108d485600260008773ffffffffffffffffffffffffffffffffffffffff1673ffffffffffffffffffffffffffffffffffffffff16815260200190815260200160002060003373ffffffffffffffffffffffffffffffffffffffff1673ffffffffffffffffffffffffffffffffffffffff1681526020019081526020016000206000015461126890919063ffffffff16565b600260008673ffffffffffffffffffffffffffffffffffffffff1673ffffffffffffffffffffffffffffffffffffffff16815260200190815260200160002060003373ffffffffffffffffffffffffffffffffffffffff1673ffffffffffffffffffffffffffffffffffffffff168152602001908152602001600020600001819055506201518083610966919061184f565b4261097191906118a9565b600260008673ffffffffffffffffffffffffffffffffffffffff1673ffffffffffffffffffffffffffffffffffffffff16815260200190815260200160002060003373ffffffffffffffffffffffffffffffffffffffff1673ffffffffffffffffffffffffffffffffffffffff168152602001908152602001600020600201819055505b610a4785600360008773ffffffffffffffffffffffffffffffffffffffff1673ffffffffffffffffffffffffffffffffffffffff1681526020019081526020016000205461126890919063ffffffff16565b600360008673ffffffffffffffffffffffffffffffffffffffff1673ffffffffffffffffffffffffffffffffffffffff168152602001908152602001600020819055507fe5cfeeb5fcb96c1c52a55137c15e7f46d34d100d256c5396efc087c43d2fde4b3386604051610abb9291906118ff565b60405180910390a160019150509392505050565b610ad7611260565b73ffffffffffffffffffffffffffffffffffffffff16610af5611013565b73ffffffffffffffffffffffffffffffffffffffff1614610b4b576040517f08c379a0000000000000000000000000000000000000000000000000000000008152600401610b429061169c565b60405180910390fd5b610b55600061127e565b565b600081600160008273ffffffffffffffffffffffffffffffffffffffff1673ffffffffffffffffffffffffffffffffffffffff16815260200190815260200160002060009054906101000a900460ff16610bb057600080fd5b600360008473ffffffffffffffffffffffffffffffffffffffff1673ffffffffffffffffffffffffffffffffffffffff16815260200190815260200160002054915050919050565b600081600160008273ffffffffffffffffffffffffffffffffffffffff1673ffffffffffffffffffffffffffffffffffffffff16815260200190815260200160002060009054906101000a900460ff16610c5157600080fd5b6000600260008573ffffffffffffffffffffffffffffffffffffffff1673ffffffffffffffffffffffffffffffffffffffff16815260200190815260200160002060003373ffffffffffffffffffffffffffffffffffffffff1673ffffffffffffffffffffffffffffffffffffffff1681526020019081526020016000206000015411610cdd57600080fd5b600260008473ffffffffffffffffffffffffffffffffffffffff1673ffffffffffffffffffffffffffffffffffffffff16815260200190815260200160002060003373ffffffffffffffffffffffffffffffffffffffff1673ffffffffffffffffffffffffffffffffffffffff168152602001908152602001600020600201544211610d9e576040517f08c379a0000000000000000000000000000000000000000000000000000000008152600401610d959061199a565b60405180910390fd5b8273ffffffffffffffffffffffffffffffffffffffff1663a9059cbb33866040518363ffffffff1660e01b8152600401610dd99291906118ff565b6020604051808303816000875af1158015610df8573d6000803e3d6000fd5b505050506040513d601f19601f82011682018060405250810190610e1c91906117f3565b610e2557600080fd5b610e7784600360008673ffffffffffffffffffffffffffffffffffffffff1673ffffffffffffffffffffffffffffffffffffffff1681526020019081526020016000205461134290919063ffffffff16565b600360008573ffffffffffffffffffffffffffffffffffffffff1673ffffffffffffffffffffffffffffffffffffffff16815260200190815260200160002081905550610f4c84600260008673ffffffffffffffffffffffffffffffffffffffff1673ffffffffffffffffffffffffffffffffffffffff16815260200190815260200160002060003373ffffffffffffffffffffffffffffffffffffffff1673ffffffffffffffffffffffffffffffffffffffff1681526020019081526020016000206001015461126890919063ffffffff16565b600260008573ffffffffffffffffffffffffffffffffffffffff1673ffffffffffffffffffffffffffffffffffffffff16815260200190815260200160002060003373ffffffffffffffffffffffffffffffffffffffff1673ffffffffffffffffffffffffffffffffffffffff168152602001908152602001600020600101819055507f9845e367b683334e5c0b12d7b81721ac518e649376fa65e3d68324e8f34f267933856040516110009291906118ff565b60405180910390a1600191505092915050565b60008060009054906101000a900473ffffffffffffffffffffffffffffffffffffffff16905090565b611044611260565b73ffffffffffffffffffffffffffffffffffffffff16611062611013565b73ffffffffffffffffffffffffffffffffffffffff16146110b8576040517f08c379a00000000000000000000000000000000000000000000000000000000081526004016110af9061169c565b60405180910390fd5b60018060008373ffffffffffffffffffffffffffffffffffffffff1673ffffffffffffffffffffffffffffffffffffffff16815260200190815260200160002060006101000a81548160ff02191690831515021790555050565b6002602052816000526040600020602052806000526040600020600091509150508060000154908060010154908060020154905083565b60016020528060005260406000206000915054906101000a900460ff1681565b611171611260565b73ffffffffffffffffffffffffffffffffffffffff1661118f611013565b73ffffffffffffffffffffffffffffffffffffffff16146111e5576040517f08c379a00000000000000000000000000000000000000000000000000000000081526004016111dc9061169c565b60405180910390fd5b600073ffffffffffffffffffffffffffffffffffffffff168173ffffffffffffffffffffffffffffffffffffffff1603611254576040517f08c379a000000000000000000000000000000000000000000000000000000000815260040161124b90611a2c565b60405180910390fd5b61125d8161127e565b50565b600033905090565b6000818361127691906118a9565b905092915050565b60008060009054906101000a900473ffffffffffffffffffffffffffffffffffffffff169050816000806101000a81548173ffffffffffffffffffffffffffffffffffffffff021916908373ffffffffffffffffffffffffffffffffffffffff1602179055508173ffffffffffffffffffffffffffffffffffffffff168173ffffffffffffffffffffffffffffffffffffffff167f8be0079c531659141344cd1fd0a4f28419497f9722a3daafe3b4186f6b6457e060405160405180910390a35050565b600081836113509190611a4c565b905092915050565b60405180606001604052806000815260200160008152602001600081525090565b600080fd5b600073ffffffffffffffffffffffffffffffffffffffff82169050919050565b60006113a98261137e565b9050919050565b6113b98161139e565b81146113c457600080fd5b50565b6000813590506113d6816113b0565b92915050565b6000602082840312156113f2576113f1611379565b5b6000611400848285016113c7565b91505092915050565b6000819050919050565b61141c81611409565b82525050565b60006020820190506114376000830184611413565b92915050565b61144681611409565b82525050565b606082016000820151611462600085018261143d565b506020820151611475602085018261143d565b506040820151611488604085018261143d565b50505050565b60006060820190506114a3600083018461144c565b92915050565b6114b281611409565b81146114bd57600080fd5b50565b6000813590506114cf816114a9565b92915050565b6000806000606084860312156114ee576114ed611379565b5b60006114fc868287016114c0565b935050602061150d868287016113c7565b925050604061151e868287016114c0565b9150509250925092565b60008115159050919050565b61153d81611528565b82525050565b60006020820190506115586000830184611534565b92915050565b6000806040838503121561157557611574611379565b5b6000611583858286016114c0565b9250506020611594858286016113c7565b9150509250929050565b6115a78161139e565b82525050565b60006020820190506115c2600083018461159e565b92915050565b600080604083850312156115df576115de611379565b5b60006115ed858286016113c7565b92505060206115fe858286016113c7565b9150509250929050565b600060608201905061161d6000830186611413565b61162a6020830185611413565b6116376040830184611413565b949350505050565b600082825260208201905092915050565b7f4f776e61626c653a2063616c6c6572206973206e6f7420746865206f776e6572600082015250565b600061168660208361163f565b915061169182611650565b602082019050919050565b600060208201905081810360008301526116b581611679565b9050919050565b6000815190506116cb816114a9565b92915050565b6000602082840312156116e7576116e6611379565b5b60006116f5848285016116bc565b91505092915050565b7f4e6f7420656e6f75676820535441544520746f6b656e7320696e20796f75722060008201527f77616c6c65742c20706c6561736520747279206c657373657220616d6f756e74602082015250565b600061175a60408361163f565b9150611765826116fe565b604082019050919050565b600060208201905081810360008301526117898161174d565b9050919050565b60006060820190506117a5600083018661159e565b6117b2602083018561159e565b6117bf6040830184611413565b949350505050565b6117d081611528565b81146117db57600080fd5b50565b6000815190506117ed816117c7565b92915050565b60006020828403121561180957611808611379565b5b6000611817848285016117de565b91505092915050565b7f4e487b7100000000000000000000000000000000000000000000000000000000600052601160045260246000fd5b600061185a82611409565b915061186583611409565b9250817fffffffffffffffffffffffffffffffffffffffffffffffffffffffffffffffff048311821515161561189e5761189d611820565b5b828202905092915050565b60006118b482611409565b91506118bf83611409565b9250827fffffffffffffffffffffffffffffffffffffffffffffffffffffffffffffffff038211156118f4576118f3611820565b5b828201905092915050565b6000604082019050611914600083018561159e565b6119216020830184611413565b9392505050565b7f546f6b656e7320617265206f6e6c7920617661696c61626c652061667465722060008201527f636f72726563742074696d6520706572696f642068617320656c617073656400602082015250565b6000611984603f8361163f565b915061198f82611928565b604082019050919050565b600060208201905081810360008301526119b381611977565b9050919050565b7f4f776e61626c653a206e6577206f776e657220697320746865207a65726f206160008201527f6464726573730000000000000000000000000000000000000000000000000000602082015250565b6000611a1660268361163f565b9150611a21826119ba565b604082019050919050565b60006020820190508181036000830152611a4581611a09565b9050919050565b6000611a5782611409565b9150611a6283611409565b925082821015611a7557611a74611820565b5b82820390509291505056fea2646970667358221220da00f58f6e684896929063e6ed9976a1507728411047d635013a5656ee68e46964736f6c634300080d0033",
  "immutableReferences": {},
  "source": "// SPDX-License-Identifier: MIT\r\npragma solidity ^0.8.2;\r\n\r\nimport \"@openzeppelin/contracts/access/Ownable.sol\";\r\nimport \"@openzeppelin/contracts/token/ERC20/IERC20.sol\";\r\nimport \"@openzeppelin/contracts/utils/math/SafeMath.sol\";\r\n\r\ncontract staking is Ownable {\r\n  // Library usage\r\n  using SafeMath for uint;\r\n\r\n  struct stakingInfo {\r\n      uint amount;\r\n      uint alreadyWithdrawn;\r\n      uint releaseDate; //update release date after each stake\r\n  }\r\n  \r\n  mapping (address => bool) public validTokens; //valid Token addresses\r\n  mapping (address => mapping(address => stakingInfo)) public StakeMap; //tokenAddr to user to stake amount\r\n  mapping (address => uint) public tokenTotalStaked; //tokenAddr to total token staked\r\n    \r\n  // Events\r\n  event tokensStaked(address _from, uint _amount);\r\n  event TokensUnstaked(address _to, uint _amount);\r\n\r\n  modifier isValidToken(address _tokenAddr){\r\n    require(validTokens[_tokenAddr]);\r\n    _;\r\n  }\r\n\r\n  /**\r\n  * add token address \r\n  */\r\n  function addToken( address _tokenAddr) onlyOwner external {\r\n    validTokens[_tokenAddr] = true;\r\n  }\r\n    \r\n  /**\r\n  * remove token address\r\n  */\r\n  function removeToken( address _tokenAddr) onlyOwner external {\r\n    validTokens[_tokenAddr] = false;\r\n  }\r\n\r\n  /**\r\n  * Stake tokens\r\n  */\r\n  function stake(uint _amount, address _tokenAddr, uint _daysCount) isValidToken(_tokenAddr) external payable returns (bool){\r\n    require(_amount <= IERC20(_tokenAddr).balanceOf(msg.sender), \"Not enough STATE tokens in your wallet, please try lesser amount\");\r\n    require(IERC20(_tokenAddr).transferFrom(msg.sender, address(this), _amount));\r\n\r\n    if (StakeMap[_tokenAddr][msg.sender].amount == 0){\r\n      StakeMap[_tokenAddr][msg.sender].amount = _amount;\r\n      StakeMap[_tokenAddr][msg.sender].releaseDate = block.timestamp + _daysCount * 1 days;\r\n    }else{\r\n      StakeMap[_tokenAddr][msg.sender].amount = StakeMap[_tokenAddr][msg.sender].amount.add(_amount);\r\n      StakeMap[_tokenAddr][msg.sender].releaseDate = block.timestamp + _daysCount * 1 days;\r\n    }\r\n    tokenTotalStaked[_tokenAddr] = tokenTotalStaked[_tokenAddr].add(_amount);\r\n\r\n    emit tokensStaked(msg.sender, _amount);\r\n    return true;\r\n  }\r\n\r\n  /**\r\n  * Unstake tokens\r\n  */\r\n  function unstake(uint _amount, address _tokenAddr) isValidToken(_tokenAddr) external payable returns (bool){\r\n    require(StakeMap[_tokenAddr][msg.sender].amount > 0);\r\n    require(block.timestamp > StakeMap[_tokenAddr][msg.sender].releaseDate, \"Tokens are only available after correct time period has elapsed\");\r\n    require(IERC20(_tokenAddr).transfer(msg.sender, _amount));\r\n\r\n    tokenTotalStaked[_tokenAddr] = tokenTotalStaked[_tokenAddr].sub(_amount);\r\n    StakeMap[_tokenAddr][msg.sender].alreadyWithdrawn = StakeMap[_tokenAddr][msg.sender].alreadyWithdrawn.add(_amount);\r\n\r\n    emit TokensUnstaked(msg.sender, _amount);\r\n    return true;\r\n  }\r\n\r\n  /**\r\n  * get User Staking Info \r\n  */\r\n  function getUserInfo(address _tokenAddr) isValidToken(_tokenAddr) external view returns(stakingInfo memory){\r\n    return StakeMap[_tokenAddr][msg.sender];\r\n  }\r\n\r\n  \r\n  /**\r\n  * get tokenTotalStaked\r\n  */\r\n  function getTokenTotalStaked(address _tokenAddr) isValidToken(_tokenAddr) external view returns(uint){\r\n    return tokenTotalStaked[_tokenAddr];\r\n  }\r\n}",
  "sourcePath": "C:\\Solidity\\pragmaTest\\contracts\\staking.sol",
  "compiler": {
    "name": "solc",
    "version": "0.8.13+commit.abaa5c0e.Emscripten.clang"
  },
  "schemaVersion": "3.4.7",
  "updatedAt": "2022-04-28T21:43:15.087Z",
  "devdoc": {
    "kind": "dev",
    "methods": {
      "owner()": {
        "details": "Returns the address of the current owner."
      },
      "renounceOwnership()": {
        "details": "Leaves the contract without owner. It will not be possible to call `onlyOwner` functions anymore. Can only be called by the current owner. NOTE: Renouncing ownership will leave the contract without an owner, thereby removing any functionality that is only available to the owner."
      },
      "transferOwnership(address)": {
        "details": "Transfers ownership of the contract to a new account (`newOwner`). Can only be called by the current owner."
      }
    },
    "version": 1
  },
  "userdoc": {
    "kind": "user",
    "methods": {
      "addToken(address)": {
        "notice": "add token address "
      },
      "getTokenTotalStaked(address)": {
        "notice": "get tokenTotalStaked"
      },
      "getUserInfo(address)": {
        "notice": "get User Staking Info "
      },
      "removeToken(address)": {
        "notice": "remove token address"
      },
      "stake(uint256,address,uint256)": {
        "notice": "Stake tokens"
      },
      "unstake(uint256,address)": {
        "notice": "Unstake tokens"
      }
    },
    "version": 1
  }
}